:020000040800F2
:1000000000000220BD330008091000080B10000892
:100010000D1000080F10000811100008000000006B
:1000200000000000000000000000000013100008A5
:100030001510000800000000171000081910000833
:100040000D3400080D3400080D3400080D3400088C
:100050000D3400080D3400080D3400080D3400087C
:100060000D3400080D3400080D3400080D3400086C
:100070000D3400080D3400080D3400080D3400085C
:100080000D3400080D3400080D3400080D3400084C
:100090000D3400080D3400080D3400080D3400083C
:1000A0000D3400080D3400080D3400080D3400082C
:1000B0000D3400080D3400080D3400080D3400081C
:1000C0000D3400080D3400080D340008211000081C
:1000D0000D3400080D3400080D3400080D340008FC
:1000E0000D340008311000080D3400080D340008EC
:1000F0000D3400080D3400080D3400080D340008DC
:100100000D3400080D3400080D3400080D340008CB
:100110000D3400080D340008411000080D340008AB
:100120000D3400080D3400080D340008511000088B
:100130000D3400080D3400080D3400080D3400089B
:100140000D3400080D3400080D3400080D3400088B
:100150000D3400080D3400080D3400080D3400087B
:100160000D3400080D3400080D3400080D3400086B
:100170000D3400080D3400080D34000800000000A4
:080180000D3400080D340008E5
:1001900001F0FF01102A2BDB10F0070F08D010F838
:1001A000013B013A8B422DD010F0070F42B3F6D13C
:1001B000F0B441EA012141EA014122F007047FF055
:1001C00000070023F0E80256083C85EA010586EAAC
:1001D000010685FA47F5A3FA87F586FA47F6A5FAE8
:1001E00087F68EB9EED1F0BC01F0FF0102F00702F4
:1001F00032B110F8013B013A83EA010313B1F8D19F
:100200000020704701387047002D06BF354603387F
:10021000073815F0010F07D1013015F4807F02BFB8
:10022000013015F4C03F0130F0BC0138704700BF09
:1002300053B94AB9002908BF00281CBF4FF0FF314D
:100240004FF0FF3000F00CB8ADF1080C6DE904CEB2
:1002500003F09AFDDDF804E0DDE9022304B0704705
:10026000704700BF10B5054C237833B9044B13B168
:100270000448AFF300800123237010BD84000020E8
:10028000000000004440000808B5034B1BB10349BF
:100290000348AFF3008008BD000000008800002084
:1002A0004440000810B50B4B4FF0000C1C6884F85C
:1002B00000C01C6860801B6899801A8101229A72B4
:1002C00083F80BC0A3F80CC04021034801F0D9FD0E
:1002D00010BD00BF000000200000024008B5214B07
:1002E0001B681A78012A37D1D97A0131C9B2D9727B
:1002F0009A89013292B29A81B3F802C0988840007C
:100300009CFBF0F0D880B3F808E00EFB0CFC6245D3
:1003100017DA884225D39A7AB2FA82F2520940213A
:10032000114801F0AEFD0F4B1B68D97ADA88914273
:1003300017D19A7AB2FA82F252099A720022DA72CC
:100340000FE001224021084801F09BFD054B1B688E
:1003500000229A811A7004E001224021024801F033
:1003600090FD08BD0000002000000240044B1B6807
:1003700000229A81DA7201229A721A70704700BFC5
:1003800000000020034B1B6800229A81DA729A72E7
:100390001A7070470000002008B5064B187059709D
:1003A0009A700022DA601A6101221946024802F0AE
:1003B000F3F908BDDC0000202001002008B50C4B3B
:1003C000187059709A7000225A60DA601A614FF002
:1003D000004159619A61DA61012283F820204FF4CB
:1003E000807159621946034802F084FA08BD00BFC3
:1003F000B000002020010020014B01221A8070472C
:10040000AE0000200346421CD0B202F00F02092ABF
:1004100001D90733D8B2884200D9002070470000C4
:1004200000B583B0034610461A0902EB820203F0BE
:100430000F0303EB42030A0902EB820201F00F01F2
:1004400001EB4201C9B20091DBB2034A062103F07D
:1004500095F803B05DF804FB5C40000808B52DED8D
:10046000028BDFED0E8A9FED0E8AF0EE680AB0EE89
:10047000480A00F001FB0B4B1860F0EE680AB0EE82
:10048000480A00F0F9FA084B18600A220521642096
:10049000FFF708FFBDEC028B08BD00BF0000C8429B
:1004A0000AD7233C140100201801002038B51D4B49
:1004B0001D681D4C1021204601F0DCFCB0FA80F1D3
:1004C0004909284600F0EBFA184B1870184B1D68C4
:1004D0000821204601F0CEFCB0FA80F149092846F7
:1004E00000F0DDFA134B187000F004FC124D2A786E
:1004F000124B1A70124C2278124B1A7000F03EFC0C
:10050000287000F043FC20700F4C01220F49204658
:1005100002F0D5FA01220E49204602F0F6FAFFF762
:10052000DDFE38BD14010020001002401D01002036
:10053000180100201C010020110100200F010020E3
:10054000100100200E01002020010020DC0000200E
:10055000D80000202DE9F04186B09D4B1A68137831
:10056000032B00F2AD80DFE813F004005000B3006D
:10057000A701984C984B224659781878FFF750FFFE
:10058000964B002204924FF4FC62039201220292E5
:100590001A1D92E803008DE803001B6822463421EF
:1005A000142001F043F88E4B1B88A3B98D4B1B78A8
:1005B000022B1AD08C4B1B78022B40F081808B4B86
:1005C0001B78022B7CD0824B1B6803221A70002000
:1005D00001F062F874E00020814B18807C4B1B68AE
:1005E00001221A7001F058F86AE0814B1B78022B47
:1005F000E0D07D4B1B78022BDCD0754B1B680222B0
:100600001A70002001F048F85AE0744D4FF00008CD
:10061000CDF810801F230393012702972C1D94E827
:1006200003008DE803002B68724A1E210F2000F0A2
:10063000FDFF684E684B324659781878FFF7F0FE98
:10064000CDF810804FF4FC630393029794E8030005
:100650008DE803002B6832463421142000F0E6FFB9
:100660005B4B1B685A78C2B15E4B1B78012B1CD0C8
:100670005D4A1278012A18D0022B12D0022A22D009
:100680005D4B1B681B78DBB9514B1A68002050701A
:100690001B68187001F000F812E05F70FFF766FE4B
:1006A000E2E7534B1B78022BE8D0494D2B6800241E
:1006B0001C70204600F0F0FF2B685C70FFF762FEB4
:1006C00006B0BDE8F081494B1B78022BEDD1D7E78E
:1006D000937833B9404B197811715B7853710123CA
:1006E0009370404B1B78022B03D13F4B1B78022B9E
:1006F0004FD0424B0026049640F2FF720392012530
:1007000002951A1D92E803008DE803001B683C4A1D
:100710000A21084600F08AFF2D4B1B682D4C22460B
:1007200059791879FFF77CFE2C4B04964FF4FC6244
:10073000039202951A1D92E803008DE803001B68DE
:1007400022463421142000F071FF264B1B78AB4267
:1007500036D0254B1B78012B54D0224B1B78022B13
:1007600058D0022B5FD02BB9194B1B6800221A728C
:100770005A819A731C4B1B78022B73D0022B7AD0B0
:10078000002B9DD1124B1B6800225A729A81DA739A
:1007900096E70F4D2B6800241C70204600F07CFF6C
:1007A0002B68224659791879FFF7F6FD2B689C7063
:1007B0002B681C725C725C819C819C73DC737FE78C
:1007C000034B1C6823212079FFF71CFE2071C0E732
:1007D00004000020F0000020DC00002014000020B5
:1007E000AE00002011010020100100200E010020A9
:1007F0000F010020684000080000002008000020D1
:1008000070400008934B1C6859216079FFF7FAFD8E
:100810006071A2E7904A1278022AA2D08D4B1B6821
:1008200001221A72A6E78C4A1278022A9BD1894AC1
:100830001468227A002A96D06389092B02D80133E2
:10084000638197E7A37B0133DBB2A373092B91D9B3
:1008500023212079FFF7D6FD20717E4B1B680022F3
:100860009A7387E77D4A1278022A87D0794B1B68F2
:1008700001225A7224E7794A1278022A80D1754AF5
:100880001468627A002A3FF47BAFA389092B02D84F
:100890000133A38114E7E37B0133DBB2E373092B5C
:1008A0007FF60EAF59216079FFF7ACFD6071694B9F
:1008B0001B680022DA7303E7694B1B78022B03D114
:1008C000684B1B78022B50D0674B0026049640F2F1
:1008D000FF720392012502951A1D92E803008DE82C
:1008E00003001B68614A0A21084600F09FFE594B2D
:1008F0001B685F4C2246D9799879FFF791FD5D4BD3
:1009000004964FF4FC62039202951A1D92E80300CC
:100910008DE803001B6822463421142000F086FE77
:100920004F4B1B78AB4234D04E4B1B78012B38D049
:100930004B4B1B78022B3CD0022B43D02BB9454BA1
:100940001B6800221A725A819A73464B1B78022B3D
:1009500057D0022B5ED0002B7FF4B2AE3D4B1B680C
:1009600000225A729A81DA73AAE600241470204693
:1009700000F092FE374D2B682246D9799879FFF71F
:100980001DFD2B681C725C725C819C819C73DC7306
:1009900096E6304B1C682321A079FFF733FDA07148
:1009A000C2E72C4B1C685921E079FFF72BFDE07161
:1009B000BEE7294A1278022ABED0264B1B680122C4
:1009C0001A72C2E7244A1278022AB7D1214A14685F
:1009D000227A002AB2D06389092B02D801336381BD
:1009E000B3E7A37B0133DBB2A373092BADD923217A
:1009F000A079FFF707FDA071164B1B6800229A73C0
:100A0000A3E7164A1278022AA3D0124B1B680122D0
:100A10005A7255E6114A1278022A9CD10D4A14687E
:100A2000627A002A97D0A389092B02D80133A381C7
:100A300046E6E37B0133DBB2E373092B7FF640AE7E
:100A40005921E079FFF7DEFCE071024B1B680022C0
:100A5000DA7335E6040000200F0100200E010020AB
:100A60001101002010010020080000207C40000837
:100A7000F00000201400002008B52DED028BB0EE30
:100A8000408AF0EE608A0C2002F0C2FC28EE288A30
:100A9000BCEEC88A80ED008ABDEC028B08BD41B96E
:100AA00043680BB1013B436043684BB98360806886
:100AB0007047436802689342F6D201334360F3E71C
:100AC00002689342F3D3012383604260EFE70000A2
:100AD00000B583B000210191094B1A6B42F48002EA
:100AE0001A631B6B03F480030193019B0A463B20AE
:100AF00000F0D4FE3B2000F0E1FE03B05DF804FB03
:100B0000003802402DE9F0418AB000240594069493
:100B10000794089409940094354B1A6B42F0100224
:100B20001A631A6B02F010020092009A01941A6B79
:100B300042F004021A631A6B02F004020192019A55
:100B400002941A6B42F080021A631A6B02F0800260
:100B50000292029A03941A6B42F001021A631A6B12
:100B600002F001020392039A04941A6B42F002020B
:100B70001A631B6B03F002030493049BDFF880806D
:100B800022464021404601F07CF91A4F224630218E
:100B9000384601F076F9184E22460121304601F020
:100BA00070F91823059306940125079505A91348A4
:100BB00001F06AF84023059306950794089405A967
:100BC000404601F061F83023059306950794089498
:100BD00005A9384601F058F805950695079408943C
:100BE00005A9304601F050F80AB0BDE8F08100BF19
:100BF0000038024000080240000402400010024099
:100C00000000024072B6FEE700B595B03022002128
:100C100008A802F0E9FC00230393049305930693CC
:100C200007930193204A116C41F080511164126CBA
:100C300002F080520192019A02931C4A116841F419
:100C400080411160126802F480420292029A0622E8
:100C5000089201220A920B9210220C9202220E920A
:100C60000F9308231093A823119312920423139334
:100C700008A801F00DF998B90F23039302230493F8
:100C8000002305934FF4A05306934FF4805307932A
:100C9000052103A801F04CFB20B915B05DF804FB59
:100CA000FFF7B0FFFFF7AEFF0038024000700040D2
:100CB00008B500F05FFDFFF7A7FFFFF723FFFFF781
:100CC00007FF00F06BF800F011FA00F0FFF80020C9
:100CD00000F0DDFC002000F0DFFC492000F00AFD00
:100CE000462000F007FD024802F090F9FEE700BF41
:100CF000000200201B4B1B78012B1CD01A4B1B88B9
:100D0000013B9BB24E2B02D8184B01221A70164B96
:100D100000221A80164B1B78012B17D0154B1B880D
:100D2000013B9BB24E2B02D8134B01221A70114B80
:100D300000221A8070470C4A138801339BB213803B
:100D40004F2BE7D9094B02221A70E3E7094A1388AF
:100D500001339BB213804F2BECD9074B02221A7040
:100D6000704700BF1D0100200C0100200901002078
:100D70001C0100200A01002008010020024B187805
:100D800000221A70704700BF09010020024B18783A
:100D900000221A70704700BF0801002010B590B003
:100DA00000240B940C940D940E940F940A94282212
:100DB0002146684602F018FC2C482D4B0360446025
:100DC0007F238360FF23C36004614461846101F079
:100DD00089FC00283ED117238DF82C3010238DF884
:100DE0002D3000238DF82E300E930F9301220BA986
:100DF0001E4801F0D1FC80BB02238DF8283010235F
:100E00008DF8293008238DF82A3024238DF82B30D3
:100E100001220AA9154801F01FFD08BB00238DF827
:100E200000308DF801308DF8023001930393049364
:100E30004FF0004205920693079301228DF820207F
:100E40004FF4807309936946084801F053FD50B987
:100E500010B010BDFFF7D6FEBDE7FFF7D3FECBE71E
:100E6000FFF7D0FEDAE7FFF7CDFEF1E72001002023
:100E70000028004000B585B0002300930193029341
:100E8000039302680F4B9A4202D005B05DF804FB51
:100E9000022300934FF480730393684601F0F8FA3D
:100EA00060B9094B0122C3F83C2E002211462920CB
:100EB00000F0F4FC292000F001FDE6E7FFF7A2FEB8
:100EC000EFE700BF002800400000474208B50F4888
:100ED0000F4B03604FF4827343604FF40043836011
:100EE0000023C360036143614FF4802282611022BA
:100EF000C2610362436283620A23C36201F0C8FED7
:100F000000B908BDFFF77EFEFBE700BFA00100208F
:100F10000030014030B589B000230393049305935A
:100F2000069307930268264B9A4201D009B030BD60
:100F300004460025019503F584335A6C42F480522F
:100F40005A645A6C02F480520192019A02951A6B0B
:100F500042F001021A631B6B03F001030293029B30
:100F6000B0230393022304930323069305230793DB
:100F700003A9144800F088FE1348144B03604FF097
:100F8000C063436040238360C5604FF480630361A6
:100F900045618561C5610562456200F00DFD58B986
:100FA000094BA3649C6300221146232000F076FCC9
:100FB000232000F083FCB9E7FFF724FEF0E700BF31
:100FC000003001400000024040010020586402400F
:100FD00082B0002100910B4B5A6C42F480425A645B
:100FE0005A6C02F480420092009A01911A6C42F00D
:100FF00080521A641B6C03F080530193019B02B072
:10100000704700BF00380240FEE7FEE7FEE7FEE75C
:10101000FEE770477047704708B500F0C5FB08BD94
:1010200008B5024801F058FF08BD00BFA00100202C
:1010300008B5024801F0D6FA08BD00BF2001002023
:1010400008B5024802F02AF808BD00BF00020020DF
:1010500008B5024800F02AFD08BD00BF400100208D
:1010600008B50268084B9A4200D008BD074B1B78B0
:1010700023B1FFF71BFAFFF76DFAF6E7FFF7EEF97A
:10108000024B01221A70F4E700100040F801002022
:1010900010B503460C4A0D490D48006840B10C4894
:1010A00000680344521A934206D8094A136010BDDF
:1010B0000748084C0460F2E702F0AEFA0C23036024
:1010C0004FF0FF30F3E700BF0000022000040000F3
:1010D000FC010020A0130020034AD2F8883043F41A
:1010E0007003C2F88830704700ED00E000B583B0AF
:1010F0000023009301930F480F4A026041F26702F8
:1011000042608360C722C260836102F0E3F850B995
:101110000023009301936946064802F007F928B9B5
:1011200003B05DF804FBFFF76DFDF1E7FFF76AFD23
:10113000F6E700BF000200200010004002680E4BDE
:101140009A4200D0704700B583B00022019203F5A7
:101150000A33196C41F0100119641B6C03F0100381
:101160000193019B0121362000F098FB362000F00E
:10117000A5FB03B05DF804FB0010004010B5094C5E
:1011800000220121204600F07CFE052000F01EFB1D
:1011900001221146204600F074FE052000F016FBE7
:1011A00010BD00BF00040240F8B50D4616461F46AC
:1011B0000D4C2468002CFBD0024620210B4800F087
:1011C00060FE47B1AC192B46A34204D2186840BA5E
:1011D00043F8040BF8E7044B00221A603246294614
:1011E000034801F0B5FDF8BD2800002000080240CA
:1011F000A001002000B583B08DF807000023012274
:101200000DF107011846FFF7CFFF03B05DF804FBAF
:1012100001B9704708B513468AB201460120FFF7AD
:10122000C3FF08BD2DE9F843054615F8013B11E061
:10123000661C002201212046FFF7EAFF0135EDB2CE
:1012400034464D45F4D312E00025FAE700F0BEFA2B
:101250003B4625465F1EFFB29BB12C4614F8020B9D
:10126000FFF7C8FF95F8018018F07F09ECD118F05E
:10127000800FEDD014F8010BFF28E7D14FF4FA707E
:10128000E4E7BDE8F88300002DE9F04182B00546AF
:101290000C4690461F462A20FFF7ACFF00268DF82B
:1012A0000460134B19780D448DF805508DF80660D5
:1012B00041448DF80710324604210DEB0100FFF781
:1012C000A7FF0C4B1A7814448DF805403A448DF86A
:1012D00007202B20FFF78EFF324604210DEB010083
:1012E000FFF796FF2C20FFF785FF02B0BDE8F081E5
:1012F000491200204812002000B583B000238DF869
:101300000730032813D8DFE800F0021E2F3DC0236A
:101310008DF807308023244A1380244A1380244BFD
:101320001A78244B1A70244B1A78244B1A703620E2
:10133000FFF760FF002201210DF10700FFF768FFB2
:1013400003B05DF804FBA0238DF807308023174A13
:101350001380154A1380164B1A78184B1A70164BC7
:101360001A78144B1A70E2E780230F4A13800F4A51
:1013700013800F4B1A780F4B1A700F4B1A780F4BC4
:101380001A70D4E760238DF807308023074A138052
:10139000054A1380064B1A78084B1A70064B1A78C8
:1013A000044B1A70C3E700BF4C1200204E120020FD
:1013B0004B120020491200204A120020481200203F
:1013C00010B50446FFF7DAFE0948FFF72BFF09487E
:1013D000FFF728FF0848FFF725FF084B02221A7085
:1013E000074B03221A702046FFF786FF10BD00BF8F
:1013F0003C67000838670008306700084B1200207F
:101400004A120020F8B5BDF818502F4CB4F900600E
:10141000B04256DA2D4CB4F90040A14251DA002A0C
:101420004FD0002B4DD0024492B2013A92B2964274
:1014300000DAB2B20B449BB2013B9BB29C4200DA91
:10144000A3B22F0247EA35275D1A0135141A013479
:1014500015FB04F5ADB21E4CD4F800C0B5F5806F95
:1014600003D26E080136002406E04FF40076FAE756
:101470004CF8047B0134A4B2B442F9D3AE0ADBB217
:10148000D2B2C9B2C0B2FFF7FFFE002408E00022CA
:101490004FF400610E4B1868FFF7BAFE0134A4B296
:1014A000B442F4D3F1020A4C0022C1EB450120689A
:1014B000FFF7AEFE2268074B9A4203D0054A044B61
:1014C0001A60F8BD044AFAE74E1200204C120020C0
:1014D00024000020480A00204802002082B02DE9A4
:1014E000F04F85B00090019115460F939DF848E0AC
:1014F000BDF84C60BDF85040494B1868BDF840C07D
:101500005FFA8CF1BEF1020F1ED0BDF842209DF8AB
:10151000449009FB02FB203D0F9B0BFB053AB9F100
:10152000020F14D0B9F1030F14D14FF400053702A4
:1015300047EA1627BFB2260246EA1426B6B20024AE
:10154000A0460292039131E04B00D9B2DDE74FF49F
:101550000045ECE78025EAE71AF808300AEB0802B4
:10156000517841EA032133E01AF8081030E00234E0
:1015700020F8127006E0621C20F81460BEF1020F21
:101580000FD0144601339C450FD901FA03F22A42C9
:10159000F1D0621C20F81470BEF1020FE7D014469F
:1015A000F0E7023420F81260ECE7C844D84511D2C5
:1015B000B9F1020FD0D0B9F1030FD5D11AF8082034
:1015C0000AEB08035978090241EA02419B78194362
:1015D0000023D8E7029A03999DF800009DF8046063
:1015E0004518EDB2B318DBB2013B6A1EDBB2D2B2D2
:1015F0003146FFF749FE0A4D002261002868FFF7D7
:1016000007FE2A68074B9A4207D0064A044B1A6025
:1016100005B0BDE8F04F02B07047034AF6E700BFDF
:1016200024000020480A00204802002082B02DE952
:10163000F04786B004460F4615460F939DF8488044
:10164000BDF84C90BDF850A0BDF84060B8F1010F56
:1016500015D97600B6B212E0CDF810A0CDF80C90F6
:10166000CDF8088010AB93E803008DE803000F9BD2
:1016700039462046FFF732FF3444A4B201352A78B8
:10168000002AE9D106B0BDE8F04702B0704708B5BE
:10169000FFF796FE08BD000000B583B00090054B33
:1016A0001B88054A128800210846FFF7ABFE03B0ED
:1016B0005DF804FB4C1200204E12002000BF0268AF
:1016C000034B9A4200D07047024B01221A60FAE79E
:1016D00000300140280000200268044B9A4200D0EC
:1016E0007047034B01221A60FAE700BF0030014047
:1016F0002800002008B5312809D0462807D0302816
:101700000AD100221021074800F0BBFB04E00122AF
:101710001021044800F0B5FB1021024800F0AAFB9C
:1017200008BD00BF0008024010B504460E4B1A78F1
:101730004FF47A73B3FBF2F30C4A1068B0FBF3F08A
:1017400000F0C0F868B90F2C01D901200AE000228E
:1017500021464FF0FF3000F0A1F8054B1C6000203F
:1017600000E0012010BD00BF2C0000202000002060
:101770003000002008B50B4B1A6842F400721A6062
:101780001A6842F480621A601A6842F480721A6021
:10179000032000F071F80F20FFF7C6FFFFF718FCD9
:1017A000002008BD003C0240034A1168034B1B782F
:1017B0000B441360704700BF501200202C00002023
:1017C000014B1868704700BF5012002038B504461E
:1017D000FFF7F6FF0546B4F1FF3F02D0044B1B783C
:1017E0001C44FFF7EDFF401BA042FAD338BD00BFF9
:1017F0002C000020002807DB00F01F024009012315
:101800009340024A42F82030704700BF00E100E0F8
:10181000002808DB0901C9B200F1604000F5614011
:1018200080F80013704700F00F000901C9B2014BA6
:101830001954704714ED00E000B500F00700C0F146
:10184000070CBCF1040F28BF4FF0040C031D062B3E
:101850000FD9C31E4FF0FF3E0EFA0CF021EA000133
:1018600099400EFA03FE22EA0E0241EA02005DF8F8
:1018700004FB0023EEE70000074AD36823F4E0638B
:101880001B041B0C000200F4E060034343F0BF6341
:1018900043F40033D360704700ED00E010B5044618
:1018A000054BD868C0F30220FFF7C6FF014620466B
:1018B000FFF7AEFF10BD00BF00ED00E008B5FFF779
:1018C00099FF08BD0138B0F1807F0BD24FF0E023C3
:1018D0005861054AF02182F8231000209861072200
:1018E0001A6170470120704700ED00E010B40368F2
:1018F000D9B210390A4AA2FB01421209094CA25C72
:10190000C2655F2907D96FF3090304338365806DCE
:101910005DF8044B70476FF309038365F7E700BF79
:10192000ABAAAAAA74670008836A826992B9012BDC
:101930000AD0022B02D00BB100207047C36A13F00B
:10194000807F28D100207047C36AB3F1C07F24D0C4
:1019500000207047B2F5005F09D0022B25D9032B78
:1019600025D1C36A13F0807F23D100207047032B59
:1019700003D8DFE803F01404140A00207047C36A98
:1019800013F0807F0DD100207047C36AB3F1C07F90
:1019900009D00020704701207047012070470120C6
:1019A00070470120704701207047012070470020D8
:1019B000704701207047000070B50446FFF700FF34
:1019C000002C5BD00546022384F83530002384F8D0
:1019D00034302268136823F00103136023681A6807
:1019E00012F0010F0AD0FFF7EBFE431B052BF5D9D0
:1019F00020236365032084F8350070BD1A682049F0
:101A000011406268A0680243E06802432069024313
:101A100060690243A0690243E0690243206A02430D
:101A20000A43616A04291ED01A602668756925F088
:101A30000705636A1D43042B07D1A36A1D43E36AAC
:101A40001BB12046FFF770FF90B975612046FFF784
:101A50004DFFE26D3F2393408360002060650123CA
:101A600084F83530C9E7E16A206B01430A43DBE7BC
:101A700040236365012084F83500BEE70120BCE700
:101A80003F8010F090F83530DBB2022B03D080237A
:101A9000436501207047052380F8353002681368DC
:101AA00023F001031360002070470000F0B583B0FD
:101AB000044600230193724B1D68724BA3FB05354E
:101AC000AD0A876D3E68C26D08239340334210D043
:101AD00003681A6812F0040F0BD01A6822F004028F
:101AE0001A60C26D08239340BB60436D43F001034D
:101AF0004365E26D01239340334209D02268526965
:101B000012F0800F04D0BB60636D43F00203636585
:101B1000E26D04239340334209D02268126812F028
:101B2000020F04D0BB60636D43F004036365E26D94
:101B300010239340334224D02268126812F0080F19
:101B40001FD0BB6023681A6812F4802F0DD01B6869
:101B500013F4002F04D1236C9BB12046984710E06A
:101B6000A36C73B1204698470BE01A6812F4807F8B
:101B700003D11A6822F008021A60236C0BB12046C8
:101B80009847E26D20239340334255D02268126873
:101B900012F0100F50D0BB6094F83530DBB2052B3B
:101BA0000ED023681A6812F4802F33D01B6813F408
:101BB000002F2AD1636C002B3ED0204698473BE093
:101BC0002268136823F0160313602268536923F018
:101BD00080035361236CA3B12268136823F00803C8
:101BE0001360E26D3F239340BB60012384F83530DE
:101BF000002384F83430236D002B3FD020469847D3
:101C00003CE0A36C002BE7D1EBE7E36BA3B12046EC
:101C1000984711E01A6812F4807F09D11A6822F0FF
:101C200010021A60012384F83530002384F8343020
:101C3000E36B0BB120469847636DFBB1636D13F006
:101C4000010F17D0052384F835302268136823F07C
:101C500001031360019B01330193AB4204D8236855
:101C60001B6813F0010FF5D1012384F835300023F0
:101C700084F83430E36C0BB12046984703B0F0BDD4
:101C800020000020B5814E1B00230F2B00F2E980BD
:101C900070B582B065E085684FEA430E032404FA0C
:101CA0000EF425EA0405CC6804FA0EF42C43846093
:101CB000446824EA02044A68C2F300129A402243AC
:101CC00042605CE0DC08083450F8242003F007058B
:101CD000AD004FF00F0E0EFA05FE22EA0E0E0A6955
:101CE000AA4042EA0E0240F824205CE0072200E00D
:101CF000002202FA0EF22A4302345A4D45F82420FB
:101D0000594A94686FEA0C0224EA0C054E6816F4EE
:101D1000801F01D04CEA0405534CA560E46802EA38
:101D200004054E6816F4001F01D04CEA04054E4C21
:101D3000E560646802EA04054E6816F4003F01D0CD
:101D40004CEA0405484C6560246822404D6815F44F
:101D5000803F01D04CEA0402434C226001330F2B38
:101D60007DD801229A400C6804EA020C32EA04048D
:101D7000F4D14C6804F00304013C012C8BD94A686F
:101D800002F00302032A09D0C4685D000322AA40BE
:101D900024EA02048A68AA402243C2604A6802F028
:101DA0000302022A8ED004684FEA430E032202FA8D
:101DB0000EF224EA02044A6802F0030202FA0EF26A
:101DC000224302604A6812F4403FC7D000220192C9
:101DD000264A546C44F480445464526C02F48042A9
:101DE0000192019A9C08A51C1E4A52F8255003F046
:101DF000030E4FEA8E0E0F2202FA0EF225EA0205BA
:101E00001B4A90423FF474AF02F5806290421AD0B0
:101E100002F58062904218D002F58062904216D09E
:101E200002F58062904214D002F58062904212D096
:101E300002F58062904210D002F5806290423FF439
:101E400055AF082255E7012253E7022251E703224A
:101E50004FE704224DE705224BE7062249E702B08F
:101E600070BD704700380140003C0140003802401E
:101E7000000002400369194201D001207047002090
:101E800070470AB1816170470904816170470000A1
:101E9000002800F0E08170B582B00446036813F0BA
:101EA000010F3BD09F4B9B6803F00C03042B2CD0FD
:101EB0009C4B9B6803F00C03082B21D06368B3F59F
:101EC000803F4FD0B3F5A02F52D0964B1A6822F422
:101ED00080321A601A6822F480221A606368002B2C
:101EE00050D0FFF76DFC05468E4B1B6813F4003F86
:101EF00014D1FFF765FC401B6428F5D90320B1E13C
:101F0000884B5B6813F4800FD8D0864B1B6813F4A2
:101F1000003F03D06368002B00F09F81236813F01B
:101F2000020F54D07F4B9B6813F00C0F3ED07D4BBB
:101F30009B6803F00C03082B33D0E368002B68D0B8
:101F4000794B01221A60FFF73BFC0546754B1B6875
:101F500013F0020F54D1FFF733FC401B0228F5D9D0
:101F600003207FE16F4A136843F480331360B5E7C1
:101F70006C4B1A6842F480221A601A6842F480326C
:101F80001A60ABE7FFF71CFC0546664B1B6813F4B1
:101F9000003FC3D0FFF714FC401B6428F5D9032091
:101FA00060E1604B5B6813F4800FC6D15D4B1B682A
:101FB00013F0020F03D0E368012B40F05081594A1F
:101FC000136823F0F803216943EAC103136023680F
:101FD00013F0080F42D063696BB3534B0122C3F86F
:101FE000802EFFF7EDFB05464E4B5B6F13F0020FA3
:101FF00034D1FFF7E5FB401B0228F5D9032031E17E
:10200000484A136823F0F803216943EAC1031360C7
:10201000DDE7454B00221A60FFF7D2FB0546414B36
:102020001B6813F0020FD2D0FFF7CAFB401B022837
:10203000F5D9032016E13C4B0022C3F8802EFFF7B0
:10204000BFFB0546374B5B6F13F0020F06D0FFF75F
:10205000B7FB401B0228F5D9032003E1236813F0E6
:10206000040F77D02F4B1B6C13F0805F33D100230C
:1020700001932C4B1A6C42F080521A641B6C03F0D3
:1020800080530193019B0125284B1B6813F4807F2B
:1020900023D0A368012B34D0052B38D0214B1A6FE5
:1020A00022F001021A671A6F22F004021A67A3686D
:1020B000002B3DD0FFF784FB06461A4B1B6F13F035
:1020C000020F46D1FFF77CFB801B41F28833984218
:1020D000F3D90320C6E00025D6E7144A136843F479
:1020E00080731360FFF76CFB0646104B1B6813F4FC
:1020F000807FCED1FFF764FB801B0228F5D9032037
:10210000B0E0084A136F43F001031367CFE7054BB4
:102110001A6F42F004021A671A6F42F001021A673E
:10212000C5E700BF00380240000047420070004091
:10213000FFF746FB0646524B1B6F13F0020F08D009
:10214000FFF73EFB801B41F288339842F3D903200E
:1021500088E0EDB9A369002B00F08380484A9268BB
:1021600002F00C02082A51D0022B17D0454B002256
:102170001A66FFF725FB0446414B1B6813F0007FEE
:1021800042D0FFF71DFB001B0228F5D9032069E0B0
:102190003B4A136C23F080531364DBE7394B002276
:1021A0001A66FFF70DFB0546354B1B6813F0007FE1
:1021B00006D0FFF705FB401B0228F5D9032051E0AC
:1021C000E369226A1343626A43EA8213A26A5208ED
:1021D000013A43EA0243E26A43EA0263284A53604F
:1021E000284B01221A66FFF7EBFA0446244B1B68C2
:1021F00013F0007F06D1FFF7E3FA001B0228F5D9A0
:1022000003202FE000202DE000202BE0012B2BD01D
:102210001B4B5B6803F48001E269914226D103F015
:102220003F02216A8A4223D1616A47F6C0721A408E
:10223000B2EB811F1ED103F44031A26A5208013A69
:10224000B1EB024F18D103F07063E26AB3EB026F97
:1022500014D1002006E001207047012002E0012097
:1022600000E0002002B070BD0120FBE70120F9E78B
:102270000120F7E70120F5E70120F3E70120F1E76E
:10228000003802400000474208B5264B9B6803F027
:102290000C03042B41D0082B41D1224B5A6802F089
:1022A0003F025B6813F4800F12D01E4B5968C1F3D4
:1022B00088111D480023A1FB0001FDF7B9FF194B50
:1022C0005B68C3F3014301335B00B0FBF3F008BD6F
:1022D000144B5868C0F388104FEA401CBCEB000C4C
:1022E0006EEB0E0E4FEA8E1343EA9C634FEA8C119D
:1022F000B1EB0C0163EB0E03DB0043EA5173C90041
:1023000011EB000C43F10003990200234FEA8C20EB
:1023100041EA9C51FDF78CFFD1E70348D7E703481A
:10232000D5E700BF0038024040787D010024F4006A
:10233000002800F09B8070B50D4604464F4B1B688B
:1023400003F007038B4208D2CBB24C4A13701368D8
:1023500003F007038B4240F08B80236813F0020FD9
:1023600017D013F0040F04D0454A936843F4E053A8
:102370009360236813F0080F04D0414A936843F434
:10238000604393603E4A936823F0F003A1680B43D7
:102390009360236813F0010F32D06368012B21D0C2
:1023A0009A1E012A25D9364A126812F0020F61D00E
:1023B00033498A6822F0030213438B60FFF700FA67
:1023C00006462F4B9B6803F00C036268B3EB820F49
:1023D00016D0FFF7F5F9801B41F288339842F0D907
:1023E000032042E0264A126812F4003FE0D10120A7
:1023F0003BE0234A126812F0007FD9D1012034E07B
:102400001E4B1B6803F00703AB4207D9EAB21B4B14
:102410001A701B6803F00703AB422DD1236813F039
:10242000040F06D0164A936823F4E053E1680B4387
:102430009360236813F0080F07D0114A936823F4C0
:102440006043216943EAC1039360FFF71DFF0C4B12
:102450009B68C3F303130B4AD35CD8400A4B186044
:102460000A4B1868FFF760F9002070BD0120704723
:102470000120FAE70120F8E70120F6E7003C0240DE
:1024800000380240206700082000002030000020B3
:1024900030B583B00446036813F0050F06D12368F6
:1024A00013F0020F2ED1002003B030BD4A4B0022A2
:1024B0009A66FFF785F90546484B1B6813F0006FD5
:1024C00006D0FFF77DF9431B022BF5D90320EBE77C
:1024D0006268A3681B0743EA8213404AC2F884304B
:1024E0003D4B01229A66FFF76BF905463B4B1B6893
:1024F00013F0006FD3D1FFF763F9431B022BF5D91B
:102500000320D1E700230193344B1A6C42F0805230
:102510001A641B6C03F080530193019B304A1368CB
:1025200043F480731360FFF74BF905462C4B1B688F
:1025300013F4807F06D1FFF743F9431B022BF5D933
:102540000320B1E7254B1B6F13F4407314D0E268EE
:1025500002F440729A420FD0204B1A6F22F440725C
:102560001D490120C1F8400E0020C1F8400E1A6735
:102570001B6F13F0010F13D1E36803F44072B2F53F
:10258000407F1ED0154A936823F4F81393601349D3
:102590000B6FE268C2F30B0213430B67002083E763
:1025A000FFF70EF905460D4B1B6F13F0020FE3D139
:1025B000FFF706F9401B41F288339842F3D9032014
:1025C00072E706498A6822F4F81223F0704323F474
:1025D000407313438B60DAE7000047420038024043
:1025E0000070004010B50446144B4FF400325A619D
:1025F00003689A6812F4805F03D0DA6812F4807F6F
:102600000BD123689A6812F4005F03D0DA6812F4E1
:10261000007F0AD10123637710BDDA68D2B262F479
:10262000C072DA60FDF7E8FEEBE7DA68D2B262F476
:102630002072DA60204600F086FAEBE7003C0140A9
:1026400038B5044603680A4ADA60FFF7B9F8054668
:102650002368DB6813F0200F07D1FFF7B1F8401BA8
:10266000B0F57A7FF4D9032000E0002038BD00BF28
:102670005F7F010070B50368DA6812F0400F02D086
:102680000025284670BD0446DA6842F08002DA6010
:10269000FFF796F8064600252368DB6813F0400F25
:1026A000EFD1002DEDD1FFF78BF8831BB3F57A7FC7
:1026B000F2D9042363770125EEE70268D36823F09B
:1026C0008003D36003689B6813F0200F01D00020C3
:1026D000704710B50446FFF7B3FF10B104236377CA
:1026E000012010BD00284AD010B50446437F53B1E5
:1026F000022363772368DA6812F0100F07D00020F6
:102700000123637710BD0377FEF7B4FBF0E7CA221D
:102710005A62236853225A622046FFF7ABFF28B162
:102720002368FF225A620028ECD1E9E72268936807
:1027300023F4E00323F04003936021688A68636810
:10274000206903436069034313438B602368E26895
:102750001A6122681369A16843EA014313612046A4
:10276000FFF7ABFF0028DBD12268136C23F4802332
:1027700013642268136CA1690B431364D0E7012032
:102780007047002302E001330A38C0B20928FAD8A2
:102790001B01DBB218437047037F012B5AD070B581
:1027A00004460E46012303770223437732BB0368B6
:1027B0009B6813F0400F01D10023CB703078FFF7F6
:1027C000E0FF05047078FFF7DCFF45EA0025B078EC
:1027D000FFF7D7FF0543F37845EA83552368CA22FC
:1027E0005A62236853225A622046FFF743FFB8B16A
:1027F0002368FF225A620023237770BD03689B6819
:1028000013F0400F01D10023CB70337875782D027F
:1028100045EA0345B3781D43F37845EA8355DDE780
:10282000236805F07F3525F0FE451D60226893681A
:1028300023F48023936021688B68F2683069024337
:1028400013438B602046FFF738FF0028D0D10123C7
:102850006377CDE702207047037F012B48D070B526
:1028600004460E460123037702234377CAB1CB788F
:102870004D782D0245EA03458B781D430B7845EAD8
:1028800043352368CA225A62236853225A6220467B
:10289000FFF7F0FEF0B12368FF225A62002323778E
:1028A00070BD4B7813F0100F03D003F0EF030A3321
:1028B0004B70F078FFF765FF05047078FFF761FF54
:1028C00045EA0025B078FFF75CFF0543337845EA19
:1028D0004335D6E7236825F07F4525F0C0055D60C8
:1028E0002046FFF7EAFE0028D5D101236377D2E71F
:1028F0000220704770B582B00D46694B1B6869496C
:10290000A1FB0313DB0A4FF47A7101FB03F301937C
:10291000037F012B00F0C2800446012303770223CA
:102920004377002A6DD103689B6813F0400F01D1F3
:102930000023EB702878FFF724FF06046878FFF780
:1029400020FF46EA0026A878FFF71BFF0643EB7836
:1029500046EA835695F82000FFF713FF46EA006227
:10296000EB691A436B691A436868AB6918432368BB
:10297000CA2159622368532159626B6AB3F5807F7B
:1029800059D021688B6823F400738B602168CB6871
:10299000DBB263F42073CB60414B1B684149A1FB60
:1029A0000313DB0A4FF47A7101FB03F30193019BDC
:1029B000013B0193019B002B68D02368D96811F07B
:1029C000020FF4D01A62236898642268936843F473
:1029D000007393602268936843F400539360324B12
:1029E0001A6842F400321A609A6842F400329A601F
:1029F0002368FF225A62012363770020207702B008
:102A000070BD03689B6813F0400F01D10023EB7089
:102A10002B786A78120242EA0342AB781A43EB78C9
:102A200042EA835295F8203042EA0362EB691A4386
:102A30006B691A4398E721688B6823F480738B6075
:102A40002168CB68DBB263F4C073CB60019B013BB0
:102A50000193019B93B12368D96811F0010FF5D060
:102A6000DA61236858642268936843F48073936042
:102A70002268936843F480539360B0E72368FF2291
:102A80005A620320607700232377B8E72368FF2288
:102A90005A620320607700232377B0E70220AEE775
:102AA00020000020D34D6210003C0140030903EBDD
:102AB000830300F00F0000EB4300C0B2704770B515
:102AC00003689B6A4B6003681B69C3F30E038B604A
:102AD00003681B68C3F305400870C3F306264E70F5
:102AE00003F07F058D70C3F38053CB705AB90C4649
:102AF000FFF7DCFF20703046FFF7D8FF60702846F4
:102B0000FFF7D4FFA070002070BD70B503685B684C
:102B1000C3F30740C870C3F304264E7003F03F05AB
:102B20008D70C3F342330B705AB90C46FFF7BEFFEA
:102B3000E0703046FFF7BAFF60702846FFF7B6FF37
:102B4000A070002070BD70472DE9F04782B00546A7
:102B5000884617461E46FEF733FE0A9B1B1A03EBF8
:102B60000609FEF72DFE8246284B1B68C3F3CB33C4
:102B700009FB03F301932B689C6838EA04040CBF3B
:102B800001230023BB423DD0B6F1FF3FF3D0FEF757
:102B900017FEA0EB0A00484507D2019A02B14A4647
:102BA000019B013B01939146E5E72A68536823F0B6
:102BB000E00353606B68B3F5827F0BD0AB6AB3F56B
:102BC000005F14D0012385F85130002385F8503080
:102BD000032018E0AB68B3F5004F02D0B3F5806F67
:102BE000ECD12A68136823F040031360E6E72A68F3
:102BF000136823F4005313602A68136843F40053E6
:102C00001360DFE7002002B0BDE8F087200000205D
:102C100070B584B004460D46164600920B4601225C
:102C20000221FFF791FFD0B9174B1B68174AA2FB8F
:102C300003235B0D4FF47A7202FB03F30393636883
:102C4000B3F5827F11D0039B3BB1039B013B039300
:102C500023689B6813F0800FF5D104B070BD636DDD
:102C600043F0200363650320F7E700962B4600221C
:102C700080212046FFF768FF0028EED0636D43F007
:102C8000200363650320E8E720000020819F5E1693
:102C900000285AD010B50446436A33B94368B3F5E7
:102CA000827F05D00023C36102E0002303614361FA
:102CB0000023A36294F85130002B40D0022384F803
:102CC00051302268136823F040031360636803F4F3
:102CD0008273A26802F404421343E26802F40062C1
:102CE0001343226902F002021343626902F00102F7
:102CF0001343A26902F400721343E26902F038023E
:102D00001343226A02F080021343A26A02F40052C3
:102D1000216813430B60638B03F00403626A02F0C3
:102D20001002216813434B602268D36923F40063C7
:102D3000D36100206065012384F8513010BD84F810
:102D400050302046FEF7E6F8B8E701207047000053
:102D5000002945D010B4002A44D090F85130DBB29D
:102D6000012B41D190F85030012B3FD0012380F846
:102D70005030032380F8513000234365016382867D
:102D8000C28683638387C3870364C368D3B1184B48
:102D900043648368B3F5004F17D003681A6812F0D4
:102DA000400F03D11A6842F040021A60002380F8F5
:102DB000503001684A6842F0A0024A6018465DF847
:102DC000044B70470B4B4364E3E70268136823F03E
:102DD000400313600268136843F480431360DCE728
:102DE000012070470120EAE70220E8E70220E6E739
:102DF000B12E0008892E000810B582B00446204B81
:102E00001B68204AA2FB03235B0A642202FB03F334
:102E10000193FEF7D5FC0246019B43B1019B013BA8
:102E2000019323689B6813F0020FF5D003E0636DF4
:102E300043F02003636521684B6823F0A0034B60D7
:102E400064212046FFF7E4FE18B1636D43F02003D0
:102E50006365A36833B900932368DA6800929B68BE
:102E60000093009B012384F85130636D23B1204609
:102E7000FEF724FC02B010BD2046FEF72DFCF9E75A
:102E800020000020F119760508B5026B036812785E
:102E90001A73036B01330363C38E9BB2013B9BB276
:102EA000C386C38E9BB203B108BDFFF7A5FFFBE746
:102EB00008B5026B03681288DA60036B02330363A0
:102EC000C38E9BB2013B9BB2C386C38E9BB203B140
:102ED00008BDFFF791FFFBE730B585B004460268F7
:102EE00051689368C3F3801013F0400F05D113F0BD
:102EF000010F02D011F0400F69D113F0020F02D080
:102F000011F0800F67D1C3F3401513F0200F03D1E8
:102F100010B913F4807F61D011F0200F5ED078B12A
:102F200094F85100C0B203285AD0606D40F00400FC
:102F3000606500200090D068009090680090009834
:102F400065B1606D40F001006065002002909068FE
:102F50000290106820F040001060029A13F4807F05
:102F600009D0636D43F0080363650023039323686E
:102F70009B680393039B636D002B2FD022685368DB
:102F800023F0E0035360012384F8513011F0030F64
:102F90002ED02268536823F003035360E36C4BB1D7
:102FA000154A1A65E06CFEF76DFD18B1636D43F0CC
:102FB00040036365A36C8BB10F4A1A65A06CFEF7E2
:102FC00061FD58B1636D43F04003636506E0236C17
:102FD0002046984702E0636C2046984705B030BD14
:102FE00000230193D368019393680193019BF5E754
:102FF0002046FEF763FBF1E7FD2F000808B5806B64
:103000000023C387C386FEF759FB08BD90F83D3007
:10301000DBB2012B37D1022380F83D300268D36840
:1030200043F00103D3600368194A934220D0B3F1FF
:10303000804F1DD0A2F57C42934219D002F58062E8
:10304000934215D002F58062934211D002F5784286
:1030500093420DD002F57052934209D0A2F59432FA
:10306000934205D01A6842F001021A6000207047AE
:103070009A6802F00702062A07D01A6842F0010295
:103080001A6000207047012070470020704700BF81
:1030900000000140704770477047704770B50446A4
:1030A0000368DE681D6915F0020F10D016F0020FDC
:1030B0000DD06FF002021A610123037703689B6948
:1030C00013F0030F5ED0FFF7E6FF0023237715F020
:1030D000040F12D016F0040F0FD023686FF0040213
:1030E0001A610223237723689B6913F4407F4FD032
:1030F0002046FFF7D0FF0023237715F0080F12D0EA
:1031000016F0080F0FD023686FF008021A6104232D
:1031100023772368DB6913F0030F40D02046FFF7C5
:10312000BAFF0023237715F0100F12D016F0100FFE
:103130000FD023686FF010021A61082323772368E9
:10314000DB6913F4407F31D02046FFF7A4FF002352
:10315000237715F0010F02D016F0010F2DD115F0D5
:10316000800F02D016F0800F2FD115F0400F02D043
:1031700016F0400F31D115F0200F02D016F0200FBD
:1031800033D170BDFFF786FF2046FFF785FF9CE730
:103190002046FFF77FFF2046FFF77EFFABE7204684
:1031A000FFF778FF2046FFF777FFBAE72046FFF7E3
:1031B00071FF2046FFF770FFC9E723686FF0010237
:1031C0001A612046FDF74CFFC9E723686FF08002C3
:1031D0001A61204600F0F1F8C7E723686FF040025B
:1031E0001A612046FFF759FFC5E723686FF02002F8
:1031F0001A61204600F0E0F8C3E700000368344A93
:10320000904212D0B0F1804F0FD0A2F57C42904294
:103210000BD002F58062904207D002F580629042A6
:1032200003D002F57842904203D123F070034A683C
:103230001343274A90422AD0B0F1804F27D0A2F5FD
:103240007C42904223D002F5806290421FD002F56A
:10325000806290421BD002F57842904217D002F56E
:103260007052904213D002F5806290420FD002F566
:10327000806290420BD0A2F59832904207D002F5BE
:103280008062904203D002F58062904203D123F421
:103290004073CA68134323F080034A6913430360F1
:1032A0008B68C3620B688362094B984203D003F5B5
:1032B0008063984201D10B69036301234361036971
:1032C00013F0010F03D0036923F00103036170477A
:1032D0000000014040B310B5044690F83D30F3B112
:1032E000022384F83D30214651F8040BFFF786FF96
:1032F000012384F8463084F83E3084F83F3084F867
:10330000403084F8413084F8423084F8433084F807
:10331000443084F8453084F83D30002010BD80F8FA
:103320003C30FDF70BFFDBE70120704790F83C20B5
:10333000012A3DD010B40346012280F83C2002222D
:1033400080F83D2002685068946820F0700C08688E
:1033500040EA0C0050601A68164882421AD0B2F156
:10336000804F17D0A0F57C40824213D000F58060DA
:1033700082420FD000F5806082420BD000F5784089
:10338000824207D000F57050824203D0A0F59430FD
:10339000824204D124F080044968214391600122D3
:1033A00083F83D20002083F83C005DF8044B704713
:1033B000022070470000014070477047DFF834D0AA
:1033C000FDF78AFE0C480D490D4A002302E0D4584F
:1033D000C4500433C4188C42F9D30A4A0A4C00235F
:1033E00001E013600432A242FBD300F01BF9FDF7A9
:1033F0005FFC7047000002200000002084000020D5
:10340000C0670008840000209C130020FEE7000035
:10341000024B0146186800F025B800BF34000020B8
:1034200070B50F4E0C463168054611B900F0E4F84E
:1034300030602146284600F0DFF8431C03D14FF0EE
:10344000FF34204670BDC41C24F00304A042F8D011
:10345000211A284600F0D0F80130F2D1EFE700BF82
:10346000541200202DE9F843CD1C25F00305083542
:103470000C2D38BF0C25002D064601DBA94204D9CE
:103480000C2333600020BDE8F883DFF8D48000F01F
:1034900069F8D8F800301C4644BB29463046FFF78F
:1034A000BFFF431C044658D1D8F800402746002FE0
:1034B00043D1002C4BD023683946304604EB030936
:1034C00000F09AF8814542D121686D1A29463046AC
:1034D000FFF7A6FF01303AD023682B442360D8F8C9
:1034E00000305A6862BBC8F800700FE02268521BB7
:1034F00020D40B2A17D96119A342256018BF59603F
:10350000636808BFC8F8001062514B60304600F095
:103510002FF804F10B00231D20F00700C21A1CBF76
:103520001B1AA350AFE76268A3420CBFC8F8002083
:103530005A60EBE723466468AEE73C467F68B6E72F
:103540001A465B68A342FBD100235360DEE70C23DD
:103550003360304600F00CF894E70560D6E700BF12
:1035600058120020014800F081B800BF98130020D5
:10357000014800F07CB800BF981300200CB430B5AF
:10358000184B0C1E1D689DB008DA8B232B604FF082
:10359000FF301DB0BDE8304002B070474FF40273F9
:1035A000ADF814304FF000031B9314BF04F1FF3348
:1035B0002346049307934FF6FF7302900690ADF8ED
:1035C0001630209A21AB02A92846019300F0F6F8A4
:1035D000431CBCBF8B232B60002CDAD0029B002243
:1035E0001A70D6E73400002002440346934200D10B
:1035F000704703F8011BF9E738B5064D0023044670
:1036000008462B60FDF744FD431C02D12B6803B133
:10361000236038BD94130020014B1868704700BF29
:103620003400002070B50D4D0D4C641BA410002615
:10363000A64209D10B4D0C4C00F004FD641BA410F4
:103640000026A64205D170BD55F8043B98470136C7
:10365000EEE755F8043B98470136F2E7B8670008F3
:10366000B8670008B8670008BC6700087047704773
:1036700038B50546002941D051F8043C0C1F002BF9
:10368000B8BFE418FFF76EFF1D4A136833B96360D3
:1036900014602846BDE83840FFF76ABFA34208D946
:1036A000206821188B4201BF19685B6809182160E6
:1036B000EDE71A465B680BB1A342FAD911685018BE
:1036C000A0420BD120680144501883421160E0D120
:1036D00018685B68536008441060DAE702D90C236D
:1036E0002B60D6E7206821188B4204BF19685B68FD
:1036F000636004BF091821605460CAE738BD00BF89
:10370000581200202DE9F0478E681F46BE420B6814
:1037100082460C4690462DD8B1F90C2012F4906FD9
:1037200026D06569096905EB4505A3EB010905EBA1
:10373000D5757B1C4B446D109D4238BF1D4653050B
:1037400027D52946FFF78EFE064660B321694A4613
:1037500000F0D6FAA38923F4906343F08003A38199
:10376000266165614E44A5EB09052660A5603E46CD
:10377000BE4200D93E4620683246414600F0A6FAD5
:10378000A3689B1BA3602368334423600020BDE82B
:10379000F0872A4600F0C2FA06460028E0D12169E7
:1037A0005046FFF765FF0C23CAF80030A38943F0A9
:1037B0004003A3814FF0FF30E9E700002DE9F04F0F
:1037C00098468B891B069DB007460D46144610D5BA
:1037D0000B6973B94021FFF745FE2860286130B9B5
:1037E0000C233B604FF0FF301DB0BDE8F08F40234D
:1037F0006B610023099320238DF82930CDF80C80CC
:103800003023DFF89C818DF82A304FF001092346E0
:103810009A4613F8012B0AB1252AF9D1BAEB040B09
:103820000BD05B46224629463846FFF76BFF013036
:1038300000F0A780099A5A4409929AF80030002BA8
:1038400000F09F8000234FF0FF32CDE905230AF1FD
:10385000010A049307938DF853301A9354460522B6
:1038600014F8011B4E48FCF793FC049AD8B9D00613
:1038700044BF20238DF85330110744BF2B238DF80C
:1038800053309AF800302A2B15D0079A544600205E
:103890004FF00A0C214611F8013B303B092B4BD964
:1038A000B0B1079214E0A0EB080309FA03F3134345
:1038B0000493A246D2E7039B191D1B680391002BBA
:1038C000BBBF5B4242F0020207930793B8BF04926A
:1038D00023782E2B0AD163782A2B32D1039B1A1D11
:1038E0001B68039243EAE37302340593DFF8C0A038
:1038F000217803225046FCF74BFC38B1049BA0EB27
:103900000A004022824013430134049314F8011B3F
:1039100024488DF828100622FCF73AFC002836D0FF
:10392000214B1BBB039B073323F00703083303938F
:10393000099B334409936AE70CFB02320C460120D1
:10394000A8E700230134059319464FF00A0C2046DE
:1039500010F8012B303A092A03D9002BC6D0059163
:10396000C4E70CFB012104460123F0E703AB0093FD
:103970002A460E4B04A93846AFF30080421C064687
:10398000D6D1AB895B063FF52DAF09982CE703AB89
:1039900000932A46054B04A9384600F079F8EDE774
:1039A0007C670008866700080000000005370008F3
:1039B000826700082DE9F047164698468A680B6929
:1039C000DDF820909342B8BF1346336091F843204E
:1039D00007460C460AB1013333602368990642BF9B
:1039E000336802333360256815F0060506D104F10B
:1039F000190AE36832689B1AAB4226DC94F843301C
:103A00002268003B18BF012392062BD404F1430225
:103A100041463846C84701301ED02368226903F06A
:103A20000603042B02BFE5683368ED1AA3680CBFD8
:103A300025EAE57500259342C4BF9B1AED180026C0
:103A40001A34B5421AD1002008E0012352464146FB
:103A50003846C847013003D14FF0FF30BDE8F0874A
:103A60000135C6E7E1185A1C302081F84300224492
:103A700094F8451082F843100233C7E70123224629
:103A800041463846C8470130E6D00136D9E7000044
:103A90002DE9FF470F7E0C9E782F914680460C46FD
:103AA0009A4601F1430207D8622F0AD8002F00F08E
:103AB000D180582F00F0B88004F1420684F842709B
:103AC0003AE0A7F16303152BF6D801A151F823F0D2
:103AD000293B00083D3B0008B93A0008B93A000804
:103AE000B93A0008B93A00083D3B0008B93A000865
:103AF000B93A0008B93A0008B93A00083B3C000856
:103B0000673B0008F53B0008B93A0008B93A0008DD
:103B10005D3C0008B93A0008673B0008B93A000864
:103B2000B93A0008FD3B000833681A1D1B68326073
:103B300004F1420684F8423001239CE03368206897
:103B4000191D3160060601D51D6803E04506FBD549
:103B5000B3F90050002D03DA2D236D4284F8433071
:103B600058480A2311E021683368080653F8045BBB
:103B700002D4490648BFADB26F2F5248336014BF1C
:103B80000A230823002184F843106668A660002EEB
:103B900005DB21682E4321F0040121604BD016463D
:103BA000B5FBF3F103FB1157C75D06F8017D2F4606
:103BB000BB420D46F4D9082B0BD12368DF0708D58B
:103BC000236961689942DEBF302306F8013C06F1A3
:103BD000FF36921B2261CDF800A04B4603AA214676
:103BE0004046FFF7E7FE01304AD14FF0FF3004B006
:103BF000BDE8F087236843F020032360324878272C
:103C000084F84570236831681F0651F8045B02D4BC
:103C10005F0648BFADB23160D90744BF43F020030F
:103C200023601DB11023ADE72648E9E7236823F0A0
:103C300020032360F6E71646BDE73368256861690F
:103C4000181D30602E061B6801D5196002E0680659
:103C5000FBD51980002323611646BCE733681A1D83
:103C600032601E68626800213046FCF791FA08B1A4
:103C7000801B606063682361002384F84330AAE7F7
:103C80002369324649464046D0470130ADD02368CB
:103C90009B0713D4E068039B9842B8BF1846A6E779
:103CA0000123324649464046D04701309DD0013578
:103CB000E36803995B1AAB42F2DCEBE7002504F101
:103CC0001906F5E78D6700089E670008884210B561
:103CD00001EB020402D98442234607D8431EA142C5
:103CE00008D011F8012B03F8012FF8E70244014630
:103CF0008A4200D110BD13F8014D02F8014DF7E7DB
:103D00000A44914200F1FF3300D1704710B511F819
:103D1000014B03F8014F9142F9D110BD2DE9F0415B
:103D2000074614460D4621B9BDE8F0411146FFF79C
:103D300099BB2AB9FFF79CFC25462846BDE8F081CF
:103D400000F01AF88442064602D8B4EB500FF4D8BB
:103D500021463846FFF786FB804608B94546ECE722
:103D6000B4422246294628BF3246FFF7C9FF2946FA
:103D70003846FFF77DFCF1E751F8043C181F002B93
:103D8000BCBF0B58C01870472DE9F047089D0E4680
:103D900004460F46002B4AD194468C45B2FA82F273
:103DA00060D942B1C2F12003974020FA03F30CFA24
:103DB00002FC1F4394404FEA1C4E1FFA8CF6B7FBDF
:103DC000FEF1230C0EFB117743EA074301FB06F0DB
:103DD00098420AD91CEB030301F1FF3780F01581EB
:103DE000984240F21281023963441B1AA4B2B3FB19
:103DF000FEF00EFB103344EA034400FB06F6A64235
:103E00000AD91CEB040400F1FF3380F00081A642C4
:103E100040F2FD806444023840EA0140A41B0021C6
:103E20001DB1D4400023C5E90043BDE8F0878B42B3
:103E300005D90DB1C5E9000100210846F5E7B3FA3F
:103E400083F1002946D1B34202D3824200F2F580C9
:103E5000841A66EB030201201746002DE5D0C5E960
:103E60000047E2E7002A40F09380A1EB0C034FEA01
:103E70001C471FFA8CFE0121B3FBF7F607FB163037
:103E8000230C43EA00430EFB06F0984208D91CEBD2
:103E9000030306F1FF3802D2984200F2D080464672
:103EA0001B1AA4B2B3FBF7F007FB103344EA034438
:103EB0000EFB00FEA64508D91CEB040400F1FF33FD
:103EC00002D2A64500F2B6801846A4EB0E0440EAE2
:103ED0000640A5E7C1F120078B4022FA07FC4CEA17
:103EE000030C06FA01FE20FA07F426FA07F344EA67
:103EF0000E0400FA01F84FEA1C404FEA1449B3FBE4
:103F0000F0FE1FFA8CF600FB1E3349EA03430EFB5A
:103F100006F9994502FA01F20BD91CEB03030EF1E5
:103F2000FF3A80F08580994540F28280AEF1020E22
:103F30006344A3EB0909A4B2B9FBF0F300FB1399A6
:103F400044EA094403FB06F6A64208D91CEB040424
:103F500003F1FF3068D2A64266D9023B644443EACB
:103F60000E40A41BA0FB02E6B4427346B14652D3F6
:103F70004FD05DB1B8EB030264EB090404FA07F714
:103F800022FA01F31F43CC40C5E9007400214CE73D
:103F9000C2F1200120FA01F30CFA02FC26FA01F129
:103FA000964033434FEA1C471FFA8CFEB1FBF7F0F3
:103FB00007FB1016190C41EA064100FB0EF68E4273
:103FC00004FA02F408D91CEB010100F1FF382DD2EC
:103FD0008E422BD902386144891B9BB2B1FBF7F6A4
:103FE00007FB161143EA014306FB0EF1994208D97B
:103FF0001CEB030306F1FF3814D2994212D9023E9A
:1040000063445B1A46EA004136E73946EDE6184656
:1040100002E7F045ADD2BEEB020366EB0C060138B9
:10402000B146A6E74646ECE7034698E74046D3E7A5
:10403000D6467EE76444023847E708460DE7023E6D
:1040400063442DE7F8B500BFF8BC08BC9E46704736
:0C405000F8B500BFF8BC08BC9E467047E5
:10405C00253032643A25303264000000414C415224
:10406C004D2100005365742074696D653A000000A1
:10407C0053657420616C61726D3A000000000000A1
:10408C000000000000000000000000000000000024
:10409C0000000000000000000000000000000C0008
:1040AC000C000C000C000C000C000C000C000000B0
:1040BC000C000000000000000000000000000000E8
:1040CC001DC01DC008800880088000000000000092
:1040DC0000000000000000000000000000000D8047
:1040EC000D800D800D803FC01B003FC01B001B00CE
:1040FC001B001B00000000000000000004001F80DB
:10410C003180318038001E000F00038031803180F7
:10411C003F00040004000000000000000000180034
:10412C002400240018C007801E0031800240024089
:10413C0001800000000000000000000000000000F2
:10414C000F001800180018000C001D8037003300F9
:10415C001D800000000000000000000000000000B6
:10416C00070007000200020002000000000000002F
:10417C000000000000000000000000000000030030
:10418C00030006000E000C000C000C000C000E00CE
:10419C0006000300030000000000000000001800EF
:1041AC0018000C00060006000600060006000600BB
:1041BC000C001C00180000000000000000000600AD
:1041CC0006003FC03FC00F001F8019800000000098
:1041DC0000000000000000000000000000000000D3
:1041EC0000000400040004003F80040004000400EC
:1041FC0000000000000000000000000000000000B3
:10420C00000000000000000000000000000006009C
:10421C0004000C0008000800000000000000000072
:10422C0000000000000000003F80000000000000C3
:10423C000000000000000000000000000000000072
:10424C0000000000000000000000000000000C0056
:10425C000C000000000000000000000000C000C0C6
:10426C00018001800300030006000C000C00180004
:10427C0018003000300000000000000000000E00AC
:10428C001B003180318031803180318031801B00C6
:10429C000E000000000000000000000000000600FE
:1042AC003E0006000600060006000600060006009A
:1042BC003FC00000000000000000000000000F00E4
:1042CC00198031803180030006000C00180030008A
:1042DC003F800000000000000000000000003F00D4
:1042EC006180018003001F000380018001806180D8
:1042FC003F0000000000000000000000000007006C
:10430C0007000F000B001B00130033003F8003005D
:10431C000F800000000000000000000000001F8063
:10432C001800180018001F001180018001802180E6
:10433C001F000000000000000000000000000780CB
:10434C001C00180030003700398031803180198012
:10435C000F000000000000000000000000007F00C3
:10436C004300030006000600060006000C000C00CB
:10437C000C000000000000000000000000001F0006
:10438C003180318031801F0031803180318031802B
:10439C001F000000000000000000000000001E00D4
:1043AC0033003180318033801D8001800300070091
:1043BC003C000000000000000000000000000000B5
:1043CC00000000000C000C000000000000000C00BD
:1043DC000C000000000000000000000000000000C5
:1043EC0000000000030003000000000000000600B5
:1043FC00040008000800000000000000000000009D
:10440C0000C0030004001800600018000400030042
:10441C0000C00000000000000000000000000000D0
:10442C000000000000007FC000007FC00000000002
:10443C000000000000000000000000000000000070
:10444C00600018000400030000C003000400180002
:10445C0060000000000000000000000000000000F0
:10446C001F0031803180018007000C000C0000001F
:10447C000C000000000000000000000000000E0016
:10448C00110021002100270029002900270020000D
:10449C0011000E00000000000000000000000000F1
:1044AC003F000F000900198019801F8030C030C0F8
:1044BC0079E0000000000000000000000000000097
:1044CC007F003180318031803F00318031803180FC
:1044DC007F00000000000000000000000000000051
:1044EC001F4030C060406000600060006040308061
:1044FC001F00000000000000000000000000000091
:10450C007F00318030C030C030C030C030C031800E
:10451C007F00000000000000000000000000000010
:10452C007F803080308032003E003200308030801E
:10453C007F80000000000000000000000000000070
:10454C007FC03040304032003E003200300030003E
:10455C007C000000000000000000000000000000D3
:10456C001E80318060806000600067C06180318097
:10457C001F00000000000000000000000000000010
:10458C007BC03180318031803F80318031803180FF
:10459C007BC00000000000000000000000000000D4
:1045AC003FC00600060006000600060006000600D6
:1045BC003FC00000000000000000000000000000F0
:1045CC001FC00300030003000300630063006300CB
:1045DC003E00000000000000000000000000000091
:1045EC007BC03180330036003C003E00330031800C
:1045FC0079C0000000000000000000000000000076
:10460C007E001800180018001800184018401840B8
:10461C007FC000000000000000000000000000004F
:10462C00E0E060C071C07BC06AC06EC064C060C096
:10463C00FBE0000000000000000000000000000093
:10464C0073C0318039803D80358037803380318034
:10465C007980000000000000000000000000000055
:10466C001F00318060C060C060C060C060C031801D
:10467C001F0000000000000000000000000000000F
:10468C007F0031803180318031803F00300030003C
:10469C007E00000000000000000000000000000090
:1046AC001F00318060C060C060C060C060C03180DD
:1046BC001F000CC01F800000000000000000000064
:1046CC007F003180318031803E0033003180318079
:1046DC007CE0000000000000000000000000000072
:1046EC001F803180318038001F0003803180318081
:1046FC003F0000000000000000000000000000006F
:10470C007F804C804C804C800C000C000C000C000A
:10471C003F0000000000000000000000000000004E
:10472C007BC031803180318031803180318031806B
:10473C001F0000000000000000000000000000004E
:10474C007BC0318031801B001B001B000A000E0057
:10475C000E0000000000000000000000000000003F
:10476C00FBE060C064C06EC06EC02A803B803B80A2
:10477C00318000000000000000000000000000007C
:10478C007BC031801B000E000E000E001B00318020
:10479C007BC00000000000000000000000000000D2
:1047AC0079E030C019800F000600060006000600F4
:1047BC001F8000000000000000000000000000004E
:1047CC003F8021802300060004000C0018803080FC
:1047DC003F80000000000000000000000000078087
:1047EC00060006000600060006000600060006008D
:1047FC0006000600078000000000000030003000BA
:10480C00180018000C000C000600030003000180C7
:10481C00018000C000C000000000000000001E006D
:10482C00060006000600060006000600060006004C
:10483C00060006001E0000000000000004000A0034
:10484C000A00110020802080000000000000000001
:10485C00000000000000000000000000000000004C
:10486C00000000000000000000000000000000003C
:10487C0000000000000000000000FFE00800040041
:10488C00020000000000000000000000000000001A
:10489C00000000000000000000000000000000000C
:1048AC00000000001F00018001801F8031803380D8
:1048BC001DC000000000000000000000000070009F
:1048CC00300030003700398030C030C030C0398003
:1048DC007700000000000000000000000000000055
:1048EC00000000001E80318060806000608031809C
:1048FC001F0000000000000000000000000003800A
:10490C00018001801D8033806180618061803380F3
:10491C001DC00000000000000000000000000000AE
:10492C00000000001F00318060C07FC0600030C0FC
:10493C001F8000000000000000000000000007E0E5
:10494C000C000C003F800C000C000C000C000C0048
:10495C003F8000000000000000000000000000008C
:10496C00000000001DC03380618061806180338055
:10497C001D80018001801F000000000000007000FD
:10498C003000300037003980318031803180318007
:10499C007BC00000000000000000000000000600CA
:1049AC00060000001E0006000600060006000600B9
:1049BC003FC00000000000000000000000000600E6
:1049CC00060000003F000300030003000300030087
:1049DC000300030003003E00000000000000700014
:1049EC0030003000378036003C003C00360033008D
:1049FC0077C00000000000000000000000001E0056
:104A0C00060006000600060006000600060006006A
:104A1C003FC000000000000000000000000000008B
:104A2C00000000007F8036C036C036C036C036C0AD
:104A3C0076E0000000000000000000000000000014
:104A4C000000000077003980318031803180318066
:104A5C007BC000000000000000000000000000000F
:104A6C00000000001F00318060C060C060C0318059
:104A7C001F0000000000000000000000000000000B
:104A8C00000000007700398030C030C030C0398061
:104A9C003700300030007C000000000000000000F7
:104AAC00000000001DC03380618061806180338014
:104ABC001D800180018007C0000000000000000084
:104ACC00000000007B801CC01800180018001800A3
:104ADC007F0000000000000000000000000000004B
:104AEC00000000001F8031803C001F0003803180DB
:104AFC003F00000000000000000000000000180053
:104B0C00180018007F0018001800180018001880F2
:104B1C000F0000000000000000000000000000007A
:104B2C00000000007380318031803180318033800F
:104B3C001DC000000000000000000000000000008C
:104B4C00000000007BC0318031801B001B000E0078
:104B5C000E0000000000000000000000000000003B
:104B6C0000000000F1E060C064C06EC03B803B8080
:104B7C003180000000000000000000000000000078
:104B8C00000000007BC01B000E000E000E001B007E
:104B9C007BC00000000000000000000000000000CE
:104BAC000000000079E030C0198019800B000F0064
:104BBC00060006000C003E00000000000000000093
:104BCC00000000003F80218003000E0018003080A0
:104BDC003F80000000000000000000000000060004
:104BEC000C000C000C000C000C0018000C000C004D
:104BFC000C000C0006000000000000000000060085
:104C0C000600060006000600060006000600060068
:104C1C0006000600060000000000000000000C006A
:104C2C00060006000600060006000300060006004B
:104C3C00060006000C000000000000000000000050
:104C4C000000000000001800248003000000000099
:104C5C000000000000000000000000000000000048
:104C6C000000000000000000000000000000000038
:104C7C000000000000000000000000000000000028
:104C8C000000000000000000000000000000000018
:104C9C000000000000000000000000000000000008
:104CAC0000000000000000000000038000038000F2
:104CBC000380000380000380000380000380000356
:104CCC0080000380000100000100000000000000D3
:104CDC0000038000038000000000000000000000C2
:104CEC0000000000000000000000000000000000B8
:104CFC0000000000000E70000E70000E700004200A
:104D0C00000420000420000420000000000000002B
:104D1C000000000000000000000000000000000087
:104D2C000000000000000000000000000000000077
:104D3C00000000000000000000000660000660009B
:104D4C000660000660000660003FF8003FF80006B1
:104D5C0060000CC0003FF8003FF8000CC0000CC015
:104D6C00000CC0000CC0000CC000000000000000D3
:104D7C000000000000000000000000000000000126
:104D8C00800001800007B0000FF000187000187050
:104D9C00001C00000F800007E00000F0001830003D
:104DAC001C30001C70001FE0001BC00001800001C3
:104DBC008000018000018000000000000000000065
:104DCC00000000000000000000000780000FC00081
:104DDC001CE0001860001860001CE0000FF80007D1
:104DEC00E0001FF00007380006180006180007380E
:104DFC000003F00001E000000000000000000000D3
:104E0C000000000000000000000000000000000096
:104E1C00000000000000000003F00007F0000C6030
:104E2C00000C00000C00000600000700000F9C00A6
:104E3C001DFC0018F0001870000FFC0007DC0000CF
:104E4C000000000000000000000000000000000056
:104E5C0000000000000000000000000000038000C3
:104E6C00038000038000010000010000010000012C
:104E7C000000000000000000000000000000000026
:104E8C000000000000000000000000000000000016
:104E9C000000000000000000000000000000000006
:104EAC00000000180000380000700000F00000E066
:104EBC000000E00001C00001C00001C00001C00002
:104ECC0001C00001C00000E00000E0000070000024
:104EDC007000003800001800000000000000000006
:104EEC00000000000000000000001800001C000082
:104EFC000E00000E000007000007000003800003F6
:104F0C008000038000038000038000038000070002
:104F1C00000700000F00000E00001C00001800002D
:104F2C000000000000000000000000000000000075
:104F3C0000000180000180000180001DB8001FF8F6
:104F4C000007E00003C00003C0000660000660001C
:104F5C000000000000000000000000000000000045
:104F6C000000000000000000000000000000000035
:104F7C000000000000000000000000000000000025
:104F8C000180000180000180000180000180003F51
:104F9C00FC003FFC000180000180000180000180CA
:104FAC000001800000000000000000000000000074
:104FBC0000000000000000000000000000000000E5
:104FCC0000000000000000000000000000000000D5
:104FDC0000000000000000000000000000000000C5
:104FEC0000000000000000E00000C00001C0000153
:104FFC00800001800003000003000000000000009E
:10500C000000000000000000000000000000000094
:10501C000000000000000000000000000000001F65
:10502C00F8001FF800000000000000000000000065
:10503C000000000000000000000000000000000064
:10504C000000000000000000000000000000000054
:10505C000000000000000000000000000000000044
:10506C000000000000000000000000000000000034
:10507C0000000000000003C00003C00003C00000DB
:10508C000000000000000000000000000000000014
:10509C00000000000018000018000038000030006C
:1050AC0000700000600000600000C00000C0000143
:1050BC0080000180000300000300000600000600D1
:1050CC00000E00000C00001C00001800001800006E
:1050DC0000000000000000000000000000000000C4
:1050EC00000003C00007E0000C30000C3000181862
:1050FC0000181800181800181800181800181800B4
:10510C001818000C30000C300007E00003C0000041
:10511C000000000000000000000000000000000083
:10512C00000000000000000000000080000780006C
:10513C001F80001D800001800001800001800001A3
:10514C00800001800001800001800001800001804E
:10515C00001FF8001FF80000000000000000000015
:10516C000000000000000000000000000000000033
:10517C00000007C0001FF000383000301800301855
:10518C000000180000300000600001C00003800027
:10519C000600000C00001800003FF8003FF800006B
:1051AC0000000000000000000000000000000000F3
:1051BC000000000000000000000003C0000FE00031
:1051CC000C700000300000300000600003C00003D1
:1051DC00E0000070000018000018000018001838DB
:1051EC00001FF0000FC000000000000000000000D5
:1051FC0000000000000000000000000000000000A3
:10520C00000000E00001E00001E000036000066027
:10521C00000660000C60000C60001860003060003C
:10522C003FF8003FF80000600003F80003F80000AE
:10523C000000000000000000000000000000000062
:10524C00000000000000000000001FF0001FF00034
:10525C001800001800001800001BC0001FF0001CF4
:10526C003000001800001800001800001800303042
:10527C00003FF0000FC00000000000000000000024
:10528C000000000000000000000000000000000012
:10529C00000000F80003F8000700000E00000C00EE
:1052AC00001800001BC0001FF0001C300018180074
:1052BC001818001818000C38000FF00003E000005C
:1052CC0000000000000000000000000000000000D2
:1052DC00000000000000000000001FF8001FF80094
:1052EC001818001838000030000030000070000062
:1052FC00600000600000E00000C00000C00001C0C1
:10530C00000180000180000000000000000000008F
:10531C000000000000000000000000000000000081
:10532C00000007E0000FF0001C38001818001818D7
:10533C00000C300007E00007E0000C3000181800EB
:10534C001818001818001C38000FF00007E00000B7
:10535C000000000000000000000000000000000041
:10536C000000000000000000000007C0000FF0006B
:10537C001C30001818001818001818000C38000FF2
:10538C00F80003D80000180000300000700000E0A6
:10539C00001FC0001F000000000000000000000003
:1053AC0000000000000000000000000000000000F1
:1053BC00000000000000000000000000000003C01E
:1053CC000003C00003C0000000000000000000004B
:1053DC0000000000000003C00003C00003C0000078
:1053EC0000000000000000000000000000000000B1
:1053FC0000000000000000000000000000000000A1
:10540C0000000000000000F00000F00000F00000C0
:10541C00000000000000000000000000E00001C0DF
:10542C000001800001800003000002000000000069
:10543C000000000000000000000000000000000060
:10544C000000000000000000001C00003C0000F008
:10545C000003C0000F00003C0000F000003C000006
:10546C000F000003C00000F000003C00001C000016
:10547C000000000000000000000000000000000020
:10548C000000000000000000000000000000000010
:10549C000000000000000000007FFC007FFC00000A
:1054AC0000000000007FFC007FFC000000000000FA
:1054BC0000000000000000000000000000000000E0
:1054CC0000000000000000000000000000000000D0
:1054DC0000000000000000007000007800001E00BA
:1054EC000007800001E000007800001E000078003A
:1054FC0001E0000780001E00007800007000000032
:10550C00000000000000000000000000000000008F
:10551C000000000000000000000000000007C000B8
:10552C000FE00018700018300018300000700000F8
:10553C00E00003C000038000030000000000000036
:10554C000007000007000000000000000000000041
:10555C00000000000000000000000000000000003F
:10556C00000003E00007F0000E38000C180018785B
:10557C000018F80019D8001998001998001998000B
:10558C0018F8001878001800000C00000E1800071E
:10559C00F80003E000000000000000000000000024
:1055AC00000000000000000000000000001F800050
:1055BC001FC00001C000036000036000063000063D
:1055CC0030000C30000FF8001FF800180C00300CE5
:1055DC0000FC7F00FC7F00000000000000000000C9
:1055EC0000000000000000000000000000000000AF
:1055FC0000000000007FE0007FF000183800181851
:10560C00001818001838001FF0001FF800181C00B4
:10561C00180C00180C00180C007FF8007FF000002C
:10562C00000000000000000000000000000000006E
:10563C000000000000000000000000000003EC006F
:10564C000FFC001C1C00180C00300C00300000304B
:10565C000000300000300000300000180C001C1C52
:10566C00000FF80003F00000000000000000000034
:10567C00000000000000000000000000000000001E
:10568C0000000000007FC0007FF0001838001818E0
:10569C0000180C00180C00180C00180C00180C004A
:1056AC00180C001818001838007FF0007FE000007C
:1056BC0000000000000000000000000000000000DE
:1056CC00000000000000000000000000007FF80057
:1056DC007FF8001818001818001998001980001F7E
:1056EC0080001F80001980001998001818001818E5
:1056FC00007FF8007FF800000000000000000000B0
:10570C00000000000000000000000000000000008D
:10571C0000000000003FFC003FFC000C0C000C0CD7
:10572C00000CCC000CC0000FC0000FC0000CC0005F
:10573C000CC0000C00000C00003FC0003FC000007B
:10574C00000000000000000000000000000000004D
:10575C000000000000000000000000000003EC004E
:10576C000FFC001C1C00180C00300C00300000302A
:10577C00000030FE0030FE00300C00380C001C1C09
:10578C00000FFC0003F0000000000000000000000F
:10579C0000000000000000000000000000000000FD
:1057AC0000000000007E7E007E7E00181800181895
:1057BC00001818001818001FF8001FF8001818001F
:1057CC001818001818001818007E7E007E7E000045
:1057DC0000000000000000000000000000000000BD
:1057EC00000000000000000000000000001FF80096
:1057FC001FF8000180000180000180000180000181
:10580C008000018000018000018000018000018087
:10581C00001FF8001FF8000000000000000000004E
:10582C00000000000000000000000000000000006C
:10583C00000000000007FE0007FE000030000030F2
:10584C0000003000003000003000303000303000FC
:10585C003030003030003060003FE0000F8000003E
:10586C00000000000000000000000000000000002C
:10587C00000000000000000000000000007F3E005F
:10588C007F3E0018300018600018C0001980001B03
:10589C0080001FC0001CE000187000183000183881
:1058AC00007F1F007F1F00000000000000000000B0
:1058BC0000000000000000000000000000000000DC
:1058CC0000000000007F80007F80000C00000C00B6
:1058DC00000C00000C00000C00000C00000C0C0074
:1058EC000C0C000C0C000C0C007FFC007FFC00006E
:1058FC00000000000000000000000000000000009C
:10590C0000000000000000000000000000F00F008C
:10591C00F81F00381C003C3C003C3C00366C003648
:10592C006C0033CC0033CC00318C00300C00300CCC
:10593C0000FE7F00FE7F0000000000000000000061
:10594C00000000000000000000000000000000004B
:10595C00000000000078FE0078FE001C18001E18E5
:10596C00001F18001B18001B980019D80018D8002D
:10597C0018F8001878001838007F18007F180000FD
:10598C00000000000000000000000000000000000B
:10599C000000000000000000000000000003C00038
:1059AC000FF0001C3800181800381C00300C0030A8
:1059BC000C00300C00300C00381C001818001C387F
:1059CC00000FF00003C00000000000000000000009
:1059DC0000000000000000000000000000000000BB
:1059EC0000000000003FF0003FF8000C1C000C0C05
:1059FC00000C0C000C0C000C18000FF8000FE00051
:105A0C000C00000C00000C00003FC0003FC0000068
:105A1C00000000000000000000000000000000007A
:105A2C000000000000000000000000000003C000A7
:105A3C000FF0001C3800181800381C00300C003017
:105A4C000C00300C00300C00381C001818001C38EE
:105A5C00000FF00007C00007CC000FFC000C380052
:105A6C00000000000000000000000000000000002A
:105A7C0000000000007FE0007FF0001838001818CC
:105A8C00001818001838001FF0001FC00018E000A4
:105A9C001870001830001838007F1E007F0E0000B0
:105AAC0000000000000000000000000000000000EA
:105ABC000000000000000000000000000007D800FB
:105ACC000FF8001C38001818001818001E00000FE2
