:020000040800F2
:100000000000022071280008610D0008630D00083F
:10001000650D0008670D0008690D0008000000006C
:100020000000000000000000000000006B0D000850
:100030006D0D0008000000006F0D0008710D000834
:10004000C1280008C1280008C1280008C1280008EC
:10005000C1280008C1280008C1280008C1280008DC
:10006000C1280008C1280008C1280008C1280008CC
:10007000C1280008C1280008C1280008C1280008BC
:10008000C1280008C1280008C1280008C1280008AC
:10009000C1280008C1280008C1280008C12800089C
:1000A000C1280008C1280008C1280008C12800088C
:1000B000C1280008C1280008C1280008C12800087C
:1000C000C1280008C1280008C1280008790D0008CF
:1000D000C1280008C1280008C1280008C12800085C
:1000E000C1280008890D0008C1280008C12800089F
:1000F000C1280008C1280008C1280008C12800083C
:10010000C1280008C1280008C1280008C12800082B
:10011000C1280008C1280008990D0008C12800085E
:10012000C1280008C1280008C1280008A90D00083E
:10013000C1280008C1280008C1280008C1280008FB
:10014000C1280008C1280008C1280008C1280008EB
:10015000C1280008C1280008C1280008C1280008DB
:10016000C1280008C1280008C1280008C1280008CB
:10017000C1280008C1280008C128000800000000AC
:08018000C1280008C128000895
:1001880053B94AB9002908BF00281CBF4FF0FF31F6
:100198004FF0FF3000F00CB8ADF1080C6DE904CE5B
:1001A80002F086FCDDF804E0DDE9022304B07047C4
:1001B800704700BF10B5054C237833B9044B13B111
:1001C8000448AFF300800123237010BD64000020B1
:1001D80000000000742D000808B5034B1BB103494B
:1001E8000348AFF3008008BD00000000680000204D
:1001F800742D000810B50B4B4FF0000C1C6884F8E8
:1002080000C01C6860801B6899801A8101229A725C
:1002180083F80BC0A3F80CC04021034801F0EFF9A4
:1002280010BD00BF000000200000024008B5214BAF
:100238001B681A78012A37D1D97A0131C9B2D97223
:100248009A89013292B29A81B3F802C09888400024
:100258009CFBF0F0D880B3F808E00EFB0CFC62457C
:1002680017DA884225D39A7AB2FA82F252094021E3
:10027800114801F0C4F90F4B1B68D97ADA8891420A
:1002880017D19A7AB2FA82F252099A720022DA7275
:100298000FE001224021084801F0B1F9054B1B6825
:1002A80000229A811A7004E001224021024801F0DC
:1002B800A6F908BD0000002000000240044B1B689E
:1002C80000229A81DA7201229A721A70704700BF6E
:1002D80000000020034B1B6800229A81DA729A7290
:1002E8001A7070470000002008B5064B1870597046
:1002F8009A700022DA601A6101221946024801F058
:1003080009FE08BDBC000020F800002008B50C4B11
:10031800187059709A7000225A60DA601A614FF0AA
:10032800004159619A61DA61012283F820204FF473
:10033800807159621946034801F09AFE08BD00BF52
:1003480090000020F8000020014B01221A8070471D
:100358008E0000200346421CD0B202F00F02092A88
:1003680001D90733D8B2884200D90020704700006D
:1003780008B52DED028BDFED0E8A9FED0E8AF0EEAB
:10038800680AB0EE480A00F02BFA0B4B1860F0EE42
:10039800680AB0EE480A00F023FA084B18600A22EF
:1003A80005216420FFF726FFBDEC028B08BD00BFC6
:1003B8000000C8420AD7233CEC000020F0000020CF
:1003C80038B51D4B1D681D4C1021204601F010F951
:1003D800B0FA80F14909284600F015FA184B187050
:1003E800184B1D680821204601F002F9B0FA80F187
:1003F8004909284600F007FA134B187000F022FB51
:10040800124D2A78124B1A70124C2278124B1A701D
:1004180000F05CFB287000F061FB20700F4C01229B
:100428000F49204601F009FF01220E49204601F03C
:100438002AFFFFF7FBFE38BDEC0000200010024049
:10044800F5000020F0000020F4000020E900002062
:10045800E7000020E8000020E6000020F800002067
:10046800BC000020B800002038B5824B1C682378F7
:10047800032B51D8DFE813F00400270056000E01C3
:100488007D4B1B882BB17C4B00221A8001232370E3
:1004980042E07A4B1B78022B0AD0794B1B78022B4F
:1004A8003AD1784B1B78022B36D00323237033E0E4
:1004B800754B1B78022BF0D0714B1B78022BECD0BC
:1004C8000223237028E06378ABB16C4B1B78012BB7
:1004D8001AD06B4A1278012A16D0022B10D0022AA1
:1004E8001BD06A4B1B681B78B3B9624A11684B7002
:1004F8001268137010E001236370FFF7DFFEE4E772
:10050800614B1B78022BEAD05A4A116800230B7002
:1005180012685370FFF7DEFE38BD5A4B1B78022B6A
:10052800F2D1DEE7A37833B9594B1A7822715B7898
:1005380063710123A370514B1B78022B21D0012B2F
:1005480037D04F4B1B78012B3BD04C4B1B78022BE1
:100558003FD0022B46D02BB9464B1B6800221A729B
:100568005A819A73464B1B78022B5AD0022B61D0C2
:10057800002BD1D13F4B1B6800225A729A81DA7343
:10058800CAE73F4A1278022AD9D13A4D2B6800248B
:100598001C702B68224659791879FFF7A5FE2B683D
:1005A8009C702B681C725C725C819C819C73DC73F0
:1005B800B2E7304B1C6823212079FFF7CBFE20716E
:1005C800BFE72C4B1C6859216079FFF7C3FE6071A7
:1005D800BBE72D4A1278022ABBD0264B1B680122A2
:1005E8001A72BFE7284A1278022AB4D1214A14683D
:1005F800227A002AAFD06389092B02D8013363819C
:10060800B0E7A37B0133DBB2A373092BAAD923215B
:100618002079FFF79FFE2071164B1B6800229A7302
:10062800A0E7184A1278022AA0D0124B1B680122B0
:100638005A7271E7134A1278022A99D10D4A14683E
:10064800627A002A94D0A389092B02D80133A381A6
:1006580062E7E37B0133DBB2E373092B7FF65CAF20
:1006680059216079FFF776FE6071024B1B68002202
:10067800DA7351E7040000208E000020E900002012
:10068800E8000020E6000020E7000020000000202D
:10069800BC0000204D4B1B78022B22D0012B35D0FB
:1006A8004B4B1B78012B37D0484B1B78022B3BD088
:1006B800022B42D02BB9474B1B6800221A725A8171
:1006C8009A73434B1B78022B56D0022B5DD0002B1C
:1006D8007FF422AF3F4B1B6800225A729A81DA736B
:1006E8001AE73B4A1278022AD8D100252570394CDE
:1006F80023682A46D9799879FFF708FE23681D727E
:100708005D725D819D819D73DD7305E72321A0796D
:10071800FFF720FEA071C3E72E4B1C685921E07932
:10072800FFF718FEE071BFE72B4A1278022ABFD004
:10073800284B1B6801221A72C3E7274A1278022A3B
:10074800B8D1244A1468227A002AB3D06389092BC5
:1007580002D801336381B4E7A37B0133DBB2A3730F
:10076800092BAED92321A079FFF7F4FDA071194B0D
:100778001B6800229A73A4E7184A1278022AA4D0A8
:10078800144B1B6801225A72C6E6144A1278022AD0
:100798009DD1104A1468627A002A98D0A389092B3F
:1007A80002D80133A381B7E6E37B0133DBB2E373FD
:1007B800092B7FF6B1AE5921E079FFF7CBFDE07147
:1007C800044B1B680022DA73A6E600BFE90000208C
:1007D800E800002004000020E7000020E6000020D8
:1007E80008B52DED028BB0EE408AF0EE608A0C2041
:1007F80002F064F828EE288ABCEEC88A80ED008AE8
:10080800BDEC028B08BD41B943680BB1013B4360A5
:1008180043684BB9836080687047436802689342B5
:10082800F6D201334360F3E702689342F3D301231E
:1008380083604260EFE7000000B583B000210191BA
:10084800094B1A6B42F480021A631B6B03F4800392
:100858000193019B0A463B2000F0DEFB3B2000F0A1
:10086800EBFB03B05DF804FB003802402DE9F041D2
:100878008AB0002405940694079408940994009477
:10088800354B1A6B42F010021A631A6B02F0100211
:100898000092009A01941A6B42F004021A631A6BD0
:1008A80002F004020192019A02941A6B42F080024B
:1008B8001A631A6B02F080020292029A03941A6B6E
:1008C80042F001021A631A6B02F001020392039AC2
:1008D80004941A6B42F002021A631B6B03F00203C2
:1008E8000493049BDFF8808022464021404600F0B4
:1008F80086FE1A4F22463021384600F080FE184EF8
:1009080022460121304600F07AFE1823059306940A
:100918000125079505A9134800F074FD40230593A8
:1009280006950794089405A9404600F06BFD30230E
:10093800059306950794089405A9384600F062FDCA
:10094800059506950794089405A9304600F05AFDC8
:100958000AB0BDE8F08100BF00380240000802403C
:1009680000040240001002400000024072B6FEE798
:1009780000B595B03022002108A802F055F80023F0
:10098800039304930593069307930193204A116CEC
:1009980041F080511164126C02F080520192019A68
:1009A80002931C4A116841F480411160126802F4F4
:1009B80080420292029A0622089201220A920B921F
:1009C80010220C9202220E920F9308231093A82350
:1009D800119312920423139308A800F017FE98B9F4
:1009E8000F23039302230493002305934FF4A0538A
:1009F80006934FF480530793052103A801F056F896
:100A080020B915B05DF804FBFFF7B0FFFFF7AEFFA4
:100A1800003802400070004008B500F07DFAFFF78A
:100A2800A7FFFFF723FFFFF707FF00F05FF800F0CD
:100A380005FA00F0F3F8024801F03EFDFEE700BFBA
:100A4800D80100201B4B1B78012B1CD01A4B1B888C
:100A5800013B9BB24E2B02D8184B01221A70164B41
:100A680000221A80164B1B78012B17D0154B1B88B8
:100A7800013B9BB24E2B02D8134B01221A70114B2B
:100A880000221A8070470C4A138801339BB21380E6
:100A98004F2BE7D9094B02221A70E3E7094A13885A
:100AA80001339BB213804F2BECD9074B02221A70EB
:100AB800704700BFF5000020E4000020E10000209E
:100AC800F4000020E2000020E0000020024B18782B
:100AD80000221A70704700BFE1000020024B18780E
:100AE80000221A70704700BFE000002010B590B0D7
:100AF80000240B940C940D940E940F940A942822BD
:100B08002146684601F090FF2C482D4B0360446055
:100B18007F238360FF23C36004614461846101F023
:100B28009FF900283ED117238DF82C3010238DF81B
:100B38002D3000238DF82E300E930F9301220BA930
:100B48001E4801F0E7F980BB02238DF828301023F6
:100B58008DF8293008238DF82A3024238DF82B307E
:100B680001220AA9154801F035FA08BB00238DF8BF
:100B780000308DF801308DF802300193039304930F
:100B88004FF0004205920693079301228DF820202A
:100B98004FF4807309936946084801F069FA50B91F
:100BA80010B010BDFFF7E2FEBDE7FFF7DFFECBE7B1
:100BB800FFF7DCFEDAE7FFF7D9FEF1E7F8000020DF
:100BC8000028004000B585B00023009301930293EC
:100BD800039302680F4B9A4202D005B05DF804FBFC
:100BE800022300934FF480730393684601F00EF8D4
:100BF80060B9094B0122C3F83C2E00221146292076
:100C080000F00AFA292000F017FAE6E7FFF7AEFE2F
:100C1800EFE700BF002800400000474208B50F4832
:100C28000F4B03604FF4827343604FF400438360BB
:100C38000023C360036143614FF480228261102264
:100C4800C2610362436283620A23C36201F03AFB12
:100C580000B908BDFFF78AFEFBE700BF7801002056
:100C68000030014030B589B0002303930493059305
:100C7800069307930268264B9A4201D009B030BD0B
:100C880004460025019503F584335A6C42F48052DA
:100C98005A645A6C02F480520192019A02951A6BB6
:100CA80042F001021A631B6B03F001030293029BDB
:100CB800B023039302230493032306930523079386
:100CC80003A9144800F09EFB1348144B03604FF02F
:100CD800C063436040238360C5604FF48063036151
:100CE80045618561C5610562456200F023FA58B91E
:100CF800094BA3649C6300221146232000F08CF961
:100D0800232000F099F9B9E7FFF730FEF0E700BFBC
:100D180000300140000002401801002058640240E1
:100D280082B0002100910B4B5A6C42F480425A6405
:100D38005A6C02F480420092009A01911A6C42F0B7
:100D480080521A641B6C03F080530193019B02B01C
:100D5800704700BF00380240FEE7FEE7FEE7FEE707
:100D6800FEE770477047704708B500F0EFF808BD18
:100D780008B5024801F006FB08BD00BF7801002055
:100D880008B5024800F0ECFF08BD00BFF8000020DD
:100D980008B5024801F0D8FB08BD00BFD801002003
:100DA80008B5024800F040FA08BD00BF180100204D
:100DB80008B50268084B9A4200D008BD074B1B785B
:100DC80023B1FFF7FDFAFFF74FFBF6E7FFF7D0FA7D
:100DD800024B01221A70F4E700100040D0010020F5
:100DE80010B503460C4A0D490D48006840B10C483F
:100DF80000680344521A934206D8094A136010BD8A
:100E08000748084C0460F2E701F026FE0C23036053
:100E18004FF0FF30F3E700BF00000220000400009D
:100E2800D401002070030020034AD2F8883043F42C
:100E38007003C2F88830704700ED00E000B583B059
:100E48000023009301930F480F4A026041F26702A2
:100E580042608360C722C260836101F091FC50B98F
:100E68000023009301936946064801F0B5FC28B9B0
:100E780003B05DF804FBFFF779FDF1E7FFF776FDB6
:100E8800F6E700BFD80100200010004002680E4BB2
:100E98009A4200D0704700B583B00021019103F554
:100EA8000A331A6C42F010021A641B6C03F0100328
:100EB8000193019B0A46362000F0AEF8362000F078
:100EC800BBF803B05DF804FB0010004010B5044601
:100ED8000E4B1A784FF47A73B3FBF2F30C4A10688E
:100EE800B0FBF3F000F0ACF868B90F2C01D9012081
:100EF8000AE0002221464FF0FF3000F08DF8054B44
:100F08001C60002000E0012010BD00BF0C00002084
:100F1800080000201000002008B50B4B1A6842F4A6
:100F280000721A601A6842F480621A601A6842F401
:100F380080721A60032000F05DF80F20FFF7C6FFEB
:100F4800FFF7EEFE002008BD003C0240034A11688E
:100F5800034B1B780B441360704700BF200200202E
:100F68000C000020014B1868704700BF20020020C9
:100F7800002807DB00F01F02400901239340024AC2
:100F880042F82030704700BF00E100E0002808DB8D
:100F98000901C9B200F1604000F5614080F8001312
:100FA800704700F00F000901C9B2014B195470478E
:100FB80014ED00E000B500F00700C0F1070CBCF12B
:100FC800040F28BF4FF0040C031D062B0FD9C31EB6
:100FD8004FF0FF3E0EFA0CF021EA000199400EFA9C
:100FE80003FE22EA0E0241EA02005DF804FB002338
:100FF800EEE70000074AD36823F4E0631B041B0CE8
:10100800000200F4E060034343F0BF6343F400339D
:10101800D360704700ED00E010B50446054BD86872
:10102800C0F30220FFF7C6FF01462046FFF7AEFFD8
:1010380010BD00BF00ED00E008B5FFF799FF08BD3F
:101048000138B0F1807F0BD24FF0E0235861054A98
:10105800F02182F823100020986107221A61704756
:101068000120704700ED00E010B40368D9B21039D0
:101078000A4AA2FB01421209094CA25CC2655F2917
:1010880007D96FF3090304338365806D5DF8044B5A
:1010980070476FF309038365F7E700BFABAAAAAAF5
:1010A8009C2D0008836A826992B9012B0AD0022B11
:1010B80002D00BB100207047C36A13F0807F28D19B
:1010C80000207047C36AB3F1C07F24D00020704766
:1010D800B2F5005F09D0022B25D9032B25D1C36AAD
:1010E80013F0807F23D100207047032B03D8DFE85B
:1010F80003F01404140A00207047C36A13F0807FB9
:101108000DD100207047C36AB3F1C07F09D0002019
:101118007047012070470120704701207047012067
:101128007047012070470120704700207047012058
:101138007047000070B50446FFF714FF002C5BD021
:101148000546022384F83530002384F834302268B9
:10115800136823F00103136023681A6812F0010F63
:101168000AD0FFF7FFFE431B052BF5D92023636543
:10117800032084F8350070BD1A6820491140626860
:10118800A0680243E06802432069024360690243A1
:10119800A0690243E0690243206A02430A43616A84
:1011A80004291ED01A602668756925F00705636A48
:1011B8001D43042B07D1A36A1D43E36A1BB12046D4
:1011C800FFF770FF90B975612046FFF74DFFE26D9C
:1011D8003F239340836000206065012384F8353005
:1011E800C9E7E16A206B01430A43DBE740236365F3
:1011F800012084F83500BEE70120BCE73F8010F0ED
:1012080090F83530DBB2022B03D0802343650120F0
:101218007047052380F835300268136823F001030E
:101228001360002070470000F0B583B00446002327
:101238000193724B1D68724BA3FB0535AD0A876D90
:101248003E68C26D08239340334210D003681A6881
:1012580012F0040F0BD01A6822F004021A60C26D53
:1012680008239340BB60436D43F001034365E26D7F
:1012780001239340334209D02268526912F0800F4B
:1012880004D0BB60636D43F002036365E26D042321
:101298009340334209D02268126812F0020F04D03A
:1012A800BB60636D43F004036365E26D10239340F4
:1012B800334224D02268126812F0080F1FD0BB6096
:1012C80023681A6812F4802F0DD01B6813F4002FBE
:1012D80004D1236C9BB12046984710E0A36C73B1EE
:1012E800204698470BE01A6812F4807F03D11A68E9
:1012F80022F008021A60236C0BB120469847E26D71
:1013080020239340334255D02268126812F0100F00
:1013180050D0BB6094F83530DBB2052B0ED0236873
:101328001A6812F4802F33D01B6813F4002F2AD1C7
:10133800636C002B3ED0204698473BE02268136838
:1013480023F0160313602268536923F08003536166
:10135800236CA3B12268136823F008031360E26DBD
:101368003F239340BB60012384F83530002384F881
:101378003430236D002B3FD0204698473CE0A36CC7
:10138800002BE7D1EBE7E36BA3B12046984711E0C8
:101398001A6812F4807F09D11A6822F010021A60C4
:1013A800012384F83530002384F83430E36B0BB123
:1013B80020469847636DFBB1636D13F0010F17D09A
:1013C800052384F835302268136823F0010313607D
:1013D800019B01330193AB4204D823681B6813F0C7
:1013E800010FF5D1012384F83530002384F8343017
:1013F800E36C0BB12046984703B0F0BD080000200D
:10140800B5814E1B00230F2B00F2E98070B582B026
:1014180065E085684FEA430E032404FA0EF425EAD2
:101428000405CC6804FA0EF42C438460446824EA6A
:1014380002044A68C2F300129A40224342605CE008
:10144800DC08083450F8242003F00705AD004FF0FD
:101458000F0E0EFA05FE22EA0E0E0A69AA4042EAAB
:101468000E0240F824205CE0072200E0002202FA85
:101478000EF22A4302345A4D45F82420594A9468FA
:101488006FEA0C0224EA0C054E6816F4801F01D09E
:101498004CEA0405534CA560E46802EA04054E686A
:1014A80016F4001F01D04CEA04054E4CE560646850
:1014B80002EA04054E6816F4003F01D04CEA040520
:1014C800484C6560246822404D6815F4803F01D07F
:1014D8004CEA0402434C226001330F2B7DD80122D1
:1014E8009A400C6804EA020C32EA0404F4D14C680D
:1014F80004F00304013C012C8BD94A6802F0030272
:10150800032A09D0C4685D000322AA4024EA020421
:101518008A68AA402243C2604A6802F00302022A8B
:101528008ED004684FEA430E032202FA0EF224EA30
:1015380002044A6802F0030202FA0EF22243026031
:101548004A6812F4403FC7D000220192264A546CE0
:1015580044F480445464526C02F480420192019A2B
:101568009C08A51C1E4A52F8255003F0030E4FEAAA
:101578008E0E0F2202FA0EF225EA02051B4A90424D
:101588003FF474AF02F5806290421AD002F580628F
:10159800904218D002F58062904216D002F580621F
:1015A800904214D002F58062904212D002F5806217
:1015B800904210D002F5806290423FF455AF082265
:1015C80055E7012253E7022251E703224FE704229D
:1015D8004DE705224BE7062249E702B070BD704788
:1015E80000380140003C0140003802400000024041
:1015F8000369194201D001207047002070470AB1E1
:10160800816170470904816170470000002800F07B
:10161800E08170B582B00446036813F0010F3BD037
:101628009F4B9B6803F00C03042B2CD09C4B9B68AE
:1016380003F00C03082B21D06368B3F5803F4FD02B
:10164800B3F5A02F52D0964B1A6822F480321A6054
:101658001A6822F480221A606368002B50D0FFF7C2
:1016680081FC05468E4B1B6813F4003F14D1FFF72D
:1016780079FC401B6428F5D90320B1E1884B5B68ED
:1016880013F4800FD8D0864B1B6813F4003F03D0A7
:101698006368002B00F09F81236813F0020F54D079
:1016A8007F4B9B6813F00C0F3ED07D4B9B6803F07B
:1016B8000C03082B33D0E368002B68D0794B012248
:1016C8001A60FFF74FFC0546754B1B6813F0020FB5
:1016D80054D1FFF747FC401B0228F5D903207FE1CE
:1016E8006F4A136843F480331360B5E76C4B1A688C
:1016F80042F480221A601A6842F480321A60ABE71A
:10170800FFF730FC0546664B1B6813F4003FC3D057
:10171800FFF728FC401B6428F5D9032060E1604BE3
:101728005B6813F4800FC6D15D4B1B6813F0020F82
:1017380003D0E368012B40F05081594A136823F025
:10174800F803216943EAC1031360236813F0080F03
:1017580042D063696BB3534B0122C3F8802EFFF765
:1017680001FC05464E4B5B6F13F0020F34D1FFF7B7
:10177800F9FB401B0228F5D9032031E1484A1368D8
:1017880023F0F803216943EAC1031360DDE7454B01
:1017980000221A60FFF7E6FB0546414B1B6813F071
:1017A800020FD2D0FFF7DEFB401B0228F5D9032039
:1017B80016E13C4B0022C3F8802EFFF7D3FB054609
:1017C800374B5B6F13F0020F06D0FFF7CBFB401BC4
:1017D8000228F5D9032003E1236813F0040F77D01A
:1017E8002F4B1B6C13F0805F33D1002301932C4BDC
:1017F8001A6C42F080521A641B6C03F080530193F8
:10180800019B0125284B1B6813F4807F23D0A36814
:10181800012B34D0052B38D0214B1A6F22F001024E
:101828001A671A6F22F004021A67A368002B3DD0CA
:10183800FFF798FB06461A4B1B6F13F0020F46D1B1
:10184800FFF790FB801B41F288339842F3D90320BD
:10185800C6E00025D6E7144A136843F48073136082
:10186800FFF780FB0646104B1B6813F4807FCED130
:10187800FFF778FB801B0228F5D90320B0E0084A5F
:10188800136F43F001031367CFE7054B1A6F42F05C
:1018980004021A671A6F42F001021A67C5E700BF0F
:1018A800003802400000474200700040FFF75AFB32
:1018B8000646524B1B6F13F0020F08D0FFF752FB7E
:1018C800801B41F288339842F3D9032088E0EDB9B0
:1018D800A369002B00F08380484A926802F00C024A
:1018E800082A51D0022B17D0454B00221A66FFF761
:1018F80039FB0446414B1B6813F0007F42D0FFF7C9
:1019080031FB001B0228F5D9032069E03B4A136C20
:1019180023F080531364DBE7394B00221A66FFF784
:1019280021FB0546354B1B6813F0007F06D0FFF7F7
:1019380019FB401B0228F5D9032051E0E369226A0C
:101948001343626A43EA8213A26A5208013A43EADD
:101958000243E26A43EA0263284A5360284B0122A1
:101968001A66FFF7FFFA0446244B1B6813F0007F42
:1019780006D1FFF7F7FA001B0228F5D903202FE05C
:1019880000202DE000202BE0012B2BD01B4B5B68A7
:1019980003F48001E269914226D103F03F02216AF3
:1019A8008A4223D1616A47F6C0721A40B2EB811F9E
:1019B8001ED103F44031A26A5208013AB1EB024F3A
:1019C80018D103F07063E26AB3EB026F14D1002000
:1019D80006E001207047012002E0012000E000201D
:1019E80002B070BD0120FBE70120F9E70120F7E70D
:1019F8000120F5E70120F3E70120F1E70038024074
:101A08000000474208B5264B9B6803F00C03042BE3
:101A180041D0082B41D1224B5A6802F03F025B6843
:101A280013F4800F12D01E4B5968C1F388111D485A
:101A38000023A1FB0001FEF7A3FB194B5B68C3F36E
:101A4800014301335B00B0FBF3F008BD144B586849
:101A5800C0F388104FEA401CBCEB000C6EEB0E0E76
:101A68004FEA8E1343EA9C634FEA8C11B1EB0C01E9
:101A780063EB0E03DB0043EA5173C90011EB000C62
:101A880043F10003990200234FEA8C2041EA9C515C
:101A9800FEF776FBD1E70348D7E70348D5E700BF51
:101AA8000038024040787D010024F400002800F04E
:101AB8009B8070B50D4604464F4B1B6803F0070327
:101AC8008B4208D2CBB24C4A1370136803F0070359
:101AD8008B4240F08B80236813F0020F17D013F06D
:101AE800040F04D0454A936843F4E0539360236895
:101AF80013F0080F04D0414A936843F4604393609D
:101B08003E4A936823F0F003A1680B43936023686F
:101B180013F0010F32D06368012B21D09A1E012ADD
:101B280025D9364A126812F0020F61D033498A6803
:101B380022F0030213438B60FFF714FA06462F4B7B
:101B48009B6803F00C036268B3EB820F16D0FFF7B3
:101B580009FA801B41F288339842F0D9032042E009
:101B6800264A126812F4003FE0D101203BE0234AE4
:101B7800126812F0007FD9D1012034E01E4B1B6897
:101B880003F00703AB4207D9EAB21B4B1A701B6874
:101B980003F00703AB422DD1236813F0040F06D0DE
:101BA800164A936823F4E053E1680B439360236873
:101BB80013F0080F07D0114A936823F46043216992
:101BC80043EAC1039360FFF71DFF0C4B9B68C3F307
:101BD80003130B4AD35CD8400A4B18600A4B1868A9
:101BE800FFF774F9002070BD012070470120FAE763
:101BF8000120F8E70120F6E7003C024000380240E7
:101C08008C2D0008080000201000002030B583B09B
:101C18000446036813F0050F06D1236813F0020F7A
:101C28002ED1002003B030BD4A4B00229A66FFF740
:101C380099F90546484B1B6813F0006F06D0FFF76B
:101C480091F9431B022BF5D90320EBE76268A368DF
:101C58001B0743EA8213404AC2F884303D4B0122F5
:101C68009A66FFF77FF905463B4B1B6813F0006F38
:101C7800D3D1FFF777F9431B022BF5D90320D1E71E
:101C880000230193344B1A6C42F080521A641B6C87
:101C980003F080530193019B304A136843F4807327
:101CA8001360FFF75FF905462C4B1B6813F4807F20
:101CB80006D1FFF757F9431B022BF5D90320B1E7EB
:101CC800254B1B6F13F4407314D0E26802F4407282
:101CD8009A420FD0204B1A6F22F440721D490120FE
:101CE800C1F8400E0020C1F8400E1A671B6F13F0B0
:101CF800010F13D1E36803F44072B2F5407F1ED0A0
:101D0800154A936823F4F813936013490B6FE2683C
:101D1800C2F30B0213430B67002083E7FFF722F996
:101D280005460D4B1B6F13F0020FE3D1FFF71AF9AD
:101D3800401B41F288339842F3D9032072E70649E1
:101D48008A6822F4F81223F0704323F44073134393
:101D58008B60DAE70000474200380240007000401C
:101D680010B50446144B4FF400325A6103689A6860
:101D780012F4805F03D0DA6812F4807F0BD12368F5
:101D88009A6812F4005F03D0DA6812F4007F0AD16F
:101D98000123637710BDDA68D2B262F4C072DA60E8
:101DA800FEF7D2FAEBE7DA68D2B262F42072DA60B0
:101DB800204600F086FAEBE7003C014038B50446BF
:101DC80003680A4ADA60FFF7CDF805462368DB683E
:101DD80013F0200F07D1FFF7C5F8401BB0F57A7F45
:101DE800F4D9032000E0002038BD00BF5F7F010068
:101DF80070B50368DA6812F0400F02D00025284653
:101E080070BD0446DA6842F08002DA60FFF7AAF88B
:101E1800064600252368DB6813F0400FEFD1002D3C
:101E2800EDD1FFF79FF8831BB3F57A7FF2D904232E
:101E380063770125EEE70268D36823F08003D36057
:101E480003689B6813F0200F01D00020704710B57D
:101E58000446FFF7B3FF10B104236377012010BDD8
:101E680000284AD010B50446437F53B10223637754
:101E78002368DA6812F0100F07D000200123637777
:101E880010BD0377FEF79EFEF0E7CA225A62236868
:101E980053225A622046FFF7ABFF28B12368FF227E
:101EA8005A620028ECD1E9E72268936823F4E0033A
:101EB80023F04003936021688A68636820690343BC
:101EC8006069034313438B602368E2681A612268E0
:101ED8001369A16843EA014313612046FFF7ABFF8A
:101EE8000028DBD12268136C23F480231364226852
:101EF800136CA1690B431364D0E7012070470023DA
:101F080002E001330A38C0B20928FAD81B01DBB253
:101F180018437047037F012B5AD070B504460E460C
:101F2800012303770223437732BB03689B6813F0CE
:101F3800400F01D10023CB703078FFF7E0FF050494
:101F48007078FFF7DCFF45EA0025B078FFF7D7FF88
:101F58000543F37845EA83552368CA225A62236801
:101F680053225A622046FFF743FFB8B12368FF2285
:101F78005A620023237770BD03689B6813F0400FF3
:101F880001D10023CB70337875782D0245EA0345DB
:101F9800B3781D43F37845EA8355DDE7236805F0F8
:101FA8007F3525F0FE451D602268936823F4802361
:101FB800936021688B68F2683069024313438B6031
:101FC8002046FFF738FF0028D0D101236377CDE7FB
:101FD80002207047037F012B48D070B504460E4697
:101FE8000123037702234377CAB1CB784D782D02BA
:101FF80045EA03458B781D430B7845EA433523684A
:10200800CA225A62236853225A622046FFF7F0FE1A
:10201800F0B12368FF225A620023237770BD4B7802
:1020280013F0100F03D003F0EF030A334B70F0786E
:10203800FFF765FF05047078FFF761FF45EA0025A3
:10204800B078FFF75CFF0543337845EA4335D6E7B8
:10205800236825F07F4525F0C0055D602046FFF721
:10206800EAFE0028D5D101236377D2E70220704722
:1020780070B582B00D46694B1B686949A1FB031313
:10208800DB0A4FF47A7101FB03F30193037F012B01
:1020980000F0C28004460123037702234377002A15
:1020A8006DD103689B6813F0400F01D10023EB70DA
:1020B8002878FFF724FF06046878FFF720FF46EA30
:1020C8000026A878FFF71BFF0643EB7846EA8356FD
:1020D80095F82000FFF713FF46EA0062EB691A4300
:1020E8006B691A436868AB6918432368CA21596247
:1020F8002368532159626B6AB3F5807F59D02168F0
:102108008B6823F400738B602168CB68DBB263F4BF
:102118002073CB60414B1B684149A1FB0313DB0AC9
:102128004FF47A7101FB03F30193019B013B019387
:10213800019B002B68D02368D96811F0020FF4D0F6
:102148001A62236898642268936843F40073936062
:102158002268936843F400539360324B1A6842F440
:1021680000321A609A6842F400329A602368FF22AB
:102178005A62012363770020207702B070BD03689C
:102188009B6813F0400F01D10023EB702B786A781D
:10219800120242EA0342AB781A43EB7842EA8352CE
:1021A80095F8203042EA0362EB691A436B691A43D7
:1021B80098E721688B6823F480738B602168CB686B
:1021C800DBB263F4C073CB60019B013B0193019BBD
:1021D80093B12368D96811F0010FF5D0DA6123684B
:1021E80058642268936843F4807393602268936804
:1021F80043F480539360B0E72368FF225A620320B8
:10220800607700232377B8E72368FF225A62032008
:10221800607700232377B0E70220AEE708000020AC
:10222800D34D6210003C0140030903EB830300F027
:102238000F0000EB4300C0B2704770B503689B6A9B
:102248004B6003681B69C3F30E038B6003681B684C
:10225800C3F305400870C3F306264E7003F07F05EC
:102268008D70C3F38053CB705AB90C46FFF7DCFF6F
:1022780020703046FFF7D8FF60702846FFF7D4FF7C
:10228800A070002070BD70B503685B68C3F3074099
:10229800C870C3F304264E7003F03F058D70C3F376
:1022A80042330B705AB90C46FFF7BEFFE070304658
:1022B800FFF7BAFF60702846FFF7B6FFA07000204E
:1022C80070BD704700285AD010B50446436A33B928
:1022D8004368B3F5827F05D00023C36102E0002381
:1022E800036143610023A36294F85130002B40D06E
:1022F800022384F851302268136823F040031360E6
:10230800636803F48273A26802F404421343E26828
:1023180002F400621343226902F002021343626965
:1023280002F001021343A26902F400721343E26946
:1023380002F038021343226A02F080021343A26AB1
:1023480002F40052216813430B60638B03F004030B
:10235800626A02F01002216813434B602268D36955
:1023680023F40063D36100206065012384F85130B1
:1023780010BD84F850302046FEF774FCB8E7012001
:102388007047704730B585B0044602685168936855
:10239800C3F3801013F0400F05D113F0010F02D0E2
:1023A80011F0400F69D113F0020F02D011F0800F25
:1023B80067D1C3F3401513F0200F03D110B913F4FC
:1023C800807F61D011F0200F5ED078B194F8510071
:1023D800C0B203285AD0606D40F004006065002048
:1023E8000090D068009090680090009865B1606D8A
:1023F80040F001006065002002909068029010682B
:1024080020F040001060029A13F4807F09D0636DB9
:1024180043F0080363650023039323689B680393D1
:10242800039B636D002B2FD02268536823F0E003D1
:102438005360012384F8513011F0030F2ED0226825
:10244800536823F003035360E36C4BB1154A1A65D4
:10245800E06CFEF7D5FE18B1636D43F04003636589
:10246800A36C8BB10F4A1A65A06CFEF7C9FE58B170
:10247800636D43F04003636506E0236C204698478C
:1024880002E0636C2046984705B030BD00230193F5
:10249800D368019393680193019BF5E72046FFF702
:1024A80070FFF1E7B124000808B5806B0023C387EB
:1024B800C386FFF766FF08BD90F83D30DBB2012BFD
:1024C80037D1022380F83D300268D36843F0010316
:1024D800D3600368194A934220D0B3F1804F1DD0CE
:1024E800A2F57C42934219D002F58062934215D03E
:1024F80002F58062934211D002F5784293420DD0E2
:1025080002F57052934209D0A2F59432934205D055
:102518001A6842F001021A60002070479A6802F0B7
:102528000702062A07D01A6842F001021A60002042
:102538007047012070470020704700BF000001402D
:10254800704770477047704770B504460368DE6887
:102558001D6915F0020F10D016F0020F0DD06FF0A4
:1025680002021A610123037703689B6913F0030FC2
:102578005ED0FFF7E6FF0023237715F0040F12D093
:1025880016F0040F0FD023686FF004021A610223BB
:10259800237723689B6913F4407F4FD02046FFF7C9
:1025A800D0FF0023237715F0080F12D016F0080F7C
:1025B8000FD023686FF008021A6104232377236879
:1025C800DB6913F0030F40D02046FFF7BAFF002362
:1025D800237715F0100F12D016F0100F0FD02368C4
:1025E8006FF010021A61082323772368DB6913F45C
:1025F800407F31D02046FFF7A4FF0023237715F052
:10260800010F02D016F0010F2DD115F0800F02D066
:1026180016F0800F2FD115F0400F02D016F0400FA2
:1026280031D115F0200F02D016F0200F33D170BD34
:10263800FFF786FF2046FFF785FF9CE72046FFF758
:102648007FFF2046FFF77EFFABE72046FFF778FFC6
:102658002046FFF777FFBAE72046FFF771FF2046CD
:10266800FFF770FFC9E723686FF001021A6120467F
:10267800FEF79EFBC9E723686FF080021A612046C7
:1026880000F0F1F8C7E723686FF040021A612046AE
:10269800FFF759FFC5E723686FF020021A6120464B
:1026A80000F0E0F8C3E700000368344A904212D013
:1026B800B0F1804F0FD0A2F57C4290420BD002F5CA
:1026C8008062904207D002F58062904203D002F502
:1026D8007842904203D123F070034A681343274A93
:1026E80090422AD0B0F1804F27D0A2F57C42904288
:1026F80023D002F5806290421FD002F5806290429A
:102708001BD002F57842904217D002F570529042E1
:1027180013D002F5806290420FD002F58062904299
:102728000BD0A2F59832904207D002F58062904211
:1027380003D002F58062904203D123F44073CA6843
:10274800134323F080034A69134303608B68C36211
:102758000B688362094B984203D003F58063984263
:1027680001D10B69036301234361036913F0010F6E
:1027780003D0036923F0010303617047000001409F
:1027880040B310B5044690F83D30F3B1022384F805
:102798003D30214651F8040BFFF786FF012384F8EA
:1027A800463084F83E3084F83F3084F8403084F86E
:1027B800413084F8423084F8433084F8443084F857
:1027C800453084F83D30002010BD80F83C30FEF7DD
:1027D8005DFBDBE70120704790F83C20012A3DD0E3
:1027E80010B40346012280F83C20022280F83D20E4
:1027F80002685068946820F0700C086840EA0C0081
:1028080050601A68164882421AD0B2F1804F17D029
:10281800A0F57C40824213D000F5806082420FD040
:1028280000F5806082420BD000F57840824207D0E4
:1028380000F57050824203D0A0F59430824204D152
:1028480024F08004496821439160012283F83D20E7
:10285800002083F83C005DF8044B70470220704765
:102868000000014070477047DFF834D0FEF7DCFA0B
:102878000C480D490D4A002302E0D458C4500433D3
:10288800C4188C42F9D30A4A0A4C002301E01360A9
:102898000432A242FBD300F0E5F8FEF7BDF870471A
:1028A800000002200000002064000020B42D000871
:1028B800640000206C030020FEE70000024B014684
:1028C800186800F025B800BF1400002070B50F4E3E
:1028D8000C463168054611B900F0AEF83060214663
:1028E800284600F0A9F8431C03D14FF0FF342046D6
:1028F80070BDC41C24F00304A042F8D0211A284655
:1029080000F09AF80130F2D1EFE700BF240200206E
:102918002DE9F843CD1C25F0030508350C2D38BFEB
:102928000C25002D064601DBA94204D90C2333608F
:102938000020BDE8F883DFF8D48000F069F8D8F803
:1029480000301C4644BB29463046FFF7BFFF431CF6
:10295800044658D1D8F800402746002F43D1002C10
:102968004BD023683946304604EB030900F064F87D
:10297800814542D121686D1A29463046FFF7A6FFE6
:1029880001303AD023682B442360D8F800305A68C5
:1029980062BBC8F800700FE02268521B20D40B2AD3
:1029A80017D96119A342256018BF5960636808BF29
:1029B800C8F8001062514B60304600F02FF804F15F
:1029C8000B00231D20F00700C21A1CBF1B1AA350BE
:1029D800AFE76268A3420CBFC8F800205A60EBE773
:1029E80023466468AEE73C467F68B6E71A465B68EC
:1029F800A342FBD100235360DEE70C23336030464B
:102A080000F00CF894E70560D6E700BF2802002024
:102A1800014800F04BB800BF68030020014800F0EF
:102A280046B800BF6803002002440346934200D121
:102A3800704703F8011BF9E738B5064D0023044633
:102A480008462B60FEF7CCF9431C02D12B6803B172
:102A5800236038BD64030020014B1868704700BF2D
:102A68001400002070B50D4D0D4C641BA4100026F9
:102A7800A64209D10B4D0C4C00F078F9641BA41048
:102A88000026A64205D170BD55F8043B984701368B
:102A9800EEE755F8043B98470136F2E7AC2D0008FD
:102AA800AC2D0008AC2D0008B02D00087047704709
:102AB8002DE9F047089D0E4604460F46002B4AD1E3
:102AC80094468C45B2FA82F260D942B1C2F1200331
:102AD800974020FA03F30CFA02FC1F4394404FEA94
:102AE8001C4E1FFA8CF6B7FBFEF1230C0EFB117778
:102AF80043EA074301FB06F098420AD91CEB03039B
:102B080001F1FF3780F01581984240F212810239B5
:102B180063441B1AA4B2B3FBFEF00EFB103344EA65
:102B2800034400FB06F6A6420AD91CEB040400F194
:102B3800FF3380F00081A64240F2FD8064440238F1
:102B480040EA0140A41B00211DB1D4400023C5E97F
:102B58000043BDE8F0878B4205D90DB1C5E90001F6
:102B680000210846F5E7B3FA83F1002946D1B342BC
:102B780002D3824200F2F580841A66EB0302012038
:102B88001746002DE5D0C5E90047E2E7002A40F0E6
:102B98009380A1EB0C034FEA1C471FFA8CFE01211E
:102BA800B3FBF7F607FB1630230C43EA00430EFB92
:102BB80006F0984208D91CEB030306F1FF3802D24D
:102BC800984200F2D08046461B1AA4B2B3FBF7F035
:102BD80007FB103344EA03440EFB00FEA64508D960
:102BE8001CEB040400F1FF3302D2A64500F2B680C4
:102BF8001846A4EB0E0440EA0640A5E7C1F12007F9
:102C08008B4022FA07FC4CEA030C06FA01FE20FA74
:102C180007F426FA07F344EA0E0400FA01F84FEA2B
:102C28001C404FEA1449B3FBF0FE1FFA8CF600FB78
:102C38001E3349EA03430EFB06F9994502FA01F2ED
:102C48000BD91CEB03030EF1FF3A80F08580994500
:102C580040F28280AEF1020E6344A3EB0909A4B2EC
:102C6800B9FBF0F300FB139944EA094403FB06F6A9
:102C7800A64208D91CEB040403F1FF3068D2A6422F
:102C880066D9023B644443EA0E40A41BA0FB02E65B
:102C9800B4427346B14652D34FD05DB1B8EB03028C
:102CA80064EB090404FA07F722FA01F31F43CC4046
:102CB800C5E9007400214CE7C2F1200120FA01F3B4
:102CC8000CFA02FC26FA01F1964033434FEA1C47FE
:102CD8001FFA8CFEB1FBF7F007FB1016190C41EA3E
:102CE800064100FB0EF68E4204FA02F408D91CEBEA
:102CF800010100F1FF382DD28E422BD902386144F0
:102D0800891B9BB2B1FBF7F607FB161143EA014397
:102D180006FB0EF1994208D91CEB030306F1FF38B4
:102D280014D2994212D9023E63445B1A46EA004122
:102D380036E73946EDE6184602E7F045ADD2BEEB78
:102D4800020366EB0C060138B146A6E74646ECE7F7
:102D5800034698E74046D3E7D6467EE76444023800
:102D680047E708460DE7023E63442DE7F8B500BF84
:102D7800F8BC08BC9E467047F8B500BFF8BC08BC54
:042D88009E467047AC
:102D8C00000000000000000001020304060708090F
:082D9C000006101600061016D7
:082DA40014FDFF7F0100000097
:042DAC00E101000839
:042DB000BD01000859
:102DB40080000020D00000200024F4000100000066
:102DC4001000000018000020000000002C02002069
:102DD40094020020FC02002000000000000000001B
:102DE40000000000000000000000000000000000DF
:102DF40000000000000000000000000000000000CF
:102E040000000000000000000000000000000000BE
:042E140000000000BA
:040000050800287156
:00000001FF
