:020000040800F2
:10000000400700205D020008312A00081928000876
:100010002D2A000881060008DD2E000800000000DF
:10002000000000000000000000000000E92B0008B4
:100030008506000800000000A12A0008412C0008E5
:1000400077020008770200087702000877020008AC
:10005000770200087702000877020008770200089C
:10006000770200087702000877020008770200088C
:10007000770200087702000877020008770200087C
:10008000770200087702000877020008770200086C
:10009000770200087702000877020008770200085C
:1000A000770200087702000877020008770200084C
:1000B000770200087702000877020008770200083C
:1000C000770200087702000877020008770200082C
:1000D000770200087702000877020008770200081C
:1000E00077020008A52A00087702000877020008B6
:1000F00077020008770200087702000877020008FC
:1001000077020008770200087702000877020008EB
:1001100077020008770200081D2D0008770200080A
:1001200077020008770200087702000877020008CB
:1001300077020008770200087702000877020008BB
:1001400077020008770200087702000877020008AB
:10015000770200087702000877020008770200089B
:10016000770200087702000877020008770200088B
:1001700077020008770200087702000800000000FC
:10018000770200087702000800F002F800F056F845
:1001900014A696E8000CB244B344DA4501D100F04D
:1001A0004DF8BAE80F000FA696E83000A5EB04055D
:1001B00004EB0607AAEB0704A7F101074FEA1515A0
:1001C0004FEA3414A4F10104AC4201D300F036F834
:1001D00013F0010F18BFFB1A43F0010300F001F800
:1001E000DBE71847602F0000802F0000103A24BF83
:1001F00078C878C1FAD8520724BF30C830C144BF8C
:1002000004680C6070470000704700000023002461
:1002100000250026103A28BF78C1FBD8520728BF16
:1002200030C148BF0B6070471FB502F075FF9DE8F5
:10023000030000F021F91FBD10B510BD00F09EF9BC
:100240001146FFF7F1FF02F051FF00F0BCF903B4D3
:10025000FFF7F2FF03BC00F0EDF90000094880470A
:1002600009480047FEE7FEE7FEE7FEE7FEE7FEE798
:10027000FEE7FEE7FEE7FEE704480549054A064BB0
:1002800070470000092D0008890100084001002086
:1002900040070020400300204003002070B50646C0
:1002A00000F0CEF8056806F10B0020F00704B44218
:1002B0009CBF002070BD2B466A68BAB11068A0428E
:1002C00010D304F1080188423CBF5068586007D33E
:1002D0005168101941601168091B01605860146071
:1002E000101D70BD13465268002AE7D121462846EA
:1002F00000F0AEF80028DED170BD53EA020C00F029
:1003000069802DE9F04B4FF00006002B1FBFB3FAB8
:1003100083F503FA05F424FA05F65E4012BF16438E
:10032000B2FA82F502FA05F4C5F120051EBF22FAE1
:1003300005FC44EA0C04203556EA044C4FEA144408
:1003400018BF641C4FF000084FF00009904271EB99
:10035000030C39D3002919BFB1FA81F701FA07F666
:10036000B0FA80F700FA07F6C7F120071EBF20FA9F
:1003700007FC46EA0C062037B6FBF4FCA7EB0507A2
:10038000103F07F01F0BCBF120062CFA06F60CFAF3
:100390000BFB44BFB3460026202FA4BF5E464FF0A0
:1003A000000B5BEA060C08BF4FF0010B19EB0B09C1
:1003B00048EB0608ABFB027C06FB02CC0BFB03CC34
:1003C000C01B71EB0C01C1E70B4602464146484693
:1003D000BDE8F08B13B5084318BF4FF0FF3001465E
:1003E000AFF30080BDE81C4070474FF0000200B53D
:1003F000134694469646203922BFA0E80C50A0E848
:100400000C50B1F12001BFF4F7AF090728BFA0E8F5
:100410000C5048BF0CC05DF804EB890028BF40F8C1
:10042000042B08BF704748BF20F8022B11F0804F03
:1004300018BF00F8012B70477047704770470000E5
:100440000048704718000020704770477047704799
:1004500038B504460A4600206946AFF300800028FC
:1004600008BF38BD02460099204600F065F801201B
:1004700038BD012000F07AB8F8B5AFF3008005462A
:1004800000200C460C2000BF0646A819A0420DD93A
:10049000324669460020AFF30080070008BF00F035
:1004A00065F80098A04218BF0546C419FFF7C8FFB9
:1004B00005600746F01D20F007004619284600F0A9
:1004C0000AF8B44208BFF8BDA21B31463868BDE83F
:1004D000F84000F031B800210160416070470C2005
:1004E000704770B50446051FFFF7AAFF0068002C8F
:1004F00014BF446870BD002C18BFAC423CBF2046FE
:100500006468F8D301680A18AA4218BF456003D18D
:100510002A6805461144016028684119A1421CBFA0
:100520006C6070BD6168696021680844286070BDB6
:100530000048704710000020034640688C460028A1
:1005400018BF88423CBF03464068F8D31868184477
:10055000884207D00CF1030020F00700001D411A6B
:10056000521A0146081D0A60FFF7BBBF10B500F024
:1005700039F8BDE8104000F02FB870477546FFF716
:10058000D7FFAE4605006946534620F00700854672
:1005900018B020B5FFF770FEBDE820404FF0000610
:1005A0004FF000074FF000084FF0000BAC46ACE8EE
:1005B000C009ACE8C009ACE8C009ACE8C00921F04A
:1005C00007018D46704710B50446AFF30080204602
:1005D000BDE81040FFF73BBE002801D000F02AB86C
:1005E0007047000010B5012805D0002103A000F0DD
:1005F00027F8012010BD09A1F8E700005349475230
:10060000544D454D3A204F7574206F6620686561E2
:1006100070206D656D6F7279000000003A204865AA
:100620006170206D656D6F727920636F7272757085
:100630007465640001491820ABBEFEE72600020085
:1006400070B505460C460A2000E06D1C00F011F85C
:1006500035B128780028F8D102E0641C00F009F8D0
:1006600014B120780028F8D1BDE870400A20AFF31B
:10067000008008B569468DF800000320ABBE08BDB8
:10068000FFE7FEE77047000072B6FFE7FEE70000F5
:100690008EB00D900C9100200A90099008900B905C
:1006A000FFE70B980F2800F2CC81FFE70B990120A0
:1006B00088400A900C9800680A99084009900998A7
:1006C0000A99884240F0B881FFE70C98406800F032
:1006D0000300012807D0FFE70C98406800F00300F2
:1006E00002282FD1FFE70D98806808900B984100F1
:1006F000032000FA01F10898884308900C98C0681C
:100700000B99490000FA01F10898084308900898ED
:100710000D9988600D98406808900B99012000FAA7
:1007200001F10898884308900C984068C0F30010C5
:100730000B9900FA01F108980843089008980D9960
:100740004860FFE70C98406800F00300032818D0C9
:10075000FFE70D98C06808900B984100032000FA4D
:1007600001F10898884308900C9880680B9949001B
:1007700000FA01F108980843089008980D99C8609C
:10078000FFE70C98406800F00300022826D1FFE73D
:100790000D980B996FF0030202EA51010844006AB8
:1007A00008900B9800F0070081000F2000FA01F17B
:1007B0000898884308900C9800690B9901F007018C
:1007C000890000FA01F108980843089008980D99EB
:1007D0000B9B02EA530211440862FFE70D98006880
:1007E00008900B984100032000FA01F10898884313
:1007F00008900C98406800F003000B99490000FA3B
:1008000001F108980843089008980D9908600C9821
:1008100080798007002800F00E81FFE7FFE70020C5
:10082000079043F64400C4F20200016841F480419D
:100830000160006800F4804007900798FFE70B987C
:1008400020F0030043F60801C4F20101405808906B
:100850000B9800F0030081000F2000FA01F10898C6
:10086000884308900D980021C4F20201884203D108
:10087000FFE7002006905EE00D9840F20041C4F2D0
:100880000201884203D1FFE70120059050E00D9856
:1008900040F60001C4F20201884203D1FFE70220C2
:1008A000049042E00D9840F60041C4F202018842F3
:1008B00003D1FFE70320039034E00D9841F20001DB
:1008C000C4F20201884203D1FFE70420029026E02F
:1008D0000D9841F20041C4F20201884203D1FFE7C2
:1008E0000520019018E00D9841F60001C4F20201C4
:1008F000884203D1FFE7062000900AE00D9941F6F7
:100900000042C4F202020820914208BF0720009072
:10091000FFE700980190FFE701980290FFE7029837
:100920000390FFE703980490FFE704980590FFE722
:1009300005980690FFE70698C0B20B9901F00301F5
:10094000890000FA01F108980843089008980B996B
:1009500021F0030143F60802C4F20102885043F675
:100960000840C4F20100006808900999089888437B
:1009700008900C988079C006002805D5FFE70999F2
:10098000089808430890FFE7089843F60841C4F226
:100990000101086043F60C40C4F2010000680890B1
:1009A00009990898884308900C9880798006002857
:1009B00005D5FFE70999089808430890FFE70898CC
:1009C00043F60C41C4F20101086043F60440C4F24E
:1009D00001000068089009990898884308900C98CD
:1009E00080798007002805D5FFE709990898084312
:1009F0000890FFE7089843F60441C4F2010108603B
:100A000043F60040C4F20100006808900999089874
:100A1000884308900C988079C00728B1FFE70999AE
:100A2000089808430890FFE7089843F60041C4F28D
:100A300001010860FFE7FFE7FFE70B9801300B902B
:100A40002FE60EB07047000082B00190ADF80210A2
:100A500001980069BDF80210084204D0FFE70120A8
:100A60008DF8010003E000208DF80100FFE79DF8FC
:100A7000010002B07047000040F23810C2F20000DE
:100A80000068704740F20400C2F20000027840F2B1
:100A90003811C2F200010868104408607047000075
:100AA00080B543F60041C4F20201086840F40070CA
:100AB0000860086840F480600860086840F480704E
:100AC0000860032000F08AF80F2000F005F800F01D
:100AD0003BF8002080BD000080B582B0009040F25D
:100AE0000000C2F20000006840F20401C2F20001FE
:100AF0000A784FF47A71B1FBF2F1B0FBF1F001F03A
:100B000017FB20B1FFE701208DF8070018E00098DF
:100B10000F280DD8FFE700994FF0FF30002200F0BA
:100B200043F8009840F20801C2F20001086003E0B7
:100B300001208DF8070003E000208DF80700FFE793
:100B40009DF8070002B080BD82B0FFE70020019051
:100B500043F64400C4F20200016841F480410160A0
:100B6000006800F4804001900198FFE7FFE7002053
:100B7000009043F64000C4F20200016841F0805149
:100B80000160006800F0805000900098FFE702B01C
:100B90007047000080B582B08DF807009DF907000E
:100BA00002F09EF902B080BD80B586B08DF81700C6
:100BB000049103920020029002F0AAF902909DF99C
:100BC0001700019002980499039A01F033FF01463F
:100BD000019802F0A5F906B080BD000080B582B092
:100BE0000190019802F0BEF902B080BD80B586B0D8
:100BF00004900020039002900498006800F0010027
:100C0000012806D0FFE704980078400700284ED559
:100C1000FFE76821C4F2472100200860FFF72CFF9E
:100C20000390FFE743F60000C4F20200006800F002
:100C300000610020B0EBD16F0CD0FFE7FFF71CFF85
:100C40000399401A032804D3FFE703208DF8170007
:100C5000E4E0E7E7049948688968800140EA0170A8
:100C600043F68401C4F2020108606821C4F24721FE
:100C700001200860FFF700FF0390FFE743F6000044
:100C8000C4F20200006800F000610020B0EBD16FF8
:100C90000CD1FFE7FFF7F0FE0399401A032804D3B5
:100CA000FFE703208DF81700B8E0E7E7FFE70498B7
:100CB00000788007002840F1AD80FFE7FFE70020C3
:100CC000019043F64000C4F20200016841F08051F7
:100CD0000160006800F0805001900198FFE747F242
:100CE0000001C4F20001086840F480700860FFF75A
:100CF000C3FE0390FFE747F20000C4F20000006863
:100D0000C00500280CD4FFE7FFF7B6FE0399401A90
:100D1000032804D3FFE703208DF817007EE0EAE7FD
:100D200043F67000C4F20200006800F440700290C4
:100D3000029800283ED0FFE702980499C96801F4A0
:100D40004071884236D0FFE743F67000C4F20200DB
:100D5000016821F44071029140F64062C4F24722DA
:100D60000121116000211160029901600068C00733
:100D7000F8B1FFE7FFF780FE0390FFE743F670004E
:100D8000C4F20200006800F002010020B0EB510F35
:100D90000ED1FFE7FFF770FE0399401A41F2893147
:100DA000884204D3FFE703208DF8170036E0E5E71B
:100DB000FFE7FFE7FFE70498C06800F44070B0F574
:100DC000407F11D1FFE743F60801C4F20201086831
:100DD00020F4F810049AD2684FF6FF43C0F6FF7370
:100DE0001A401043086008E043F60801C4F202010B
:100DF000086820F4F8100860FFE70498C2686FF3F1
:100E00001F3243F67001C4F2020108681043086003
:100E1000FFE7FFE700208DF81700FFE79DF81700B8
:100E200006B080BD80B584B002900191029820B9CF
:100E3000FFE701208DF80F0021E1019843F6004102
:100E4000C4F20201096801F00701884212D9FFE7E4
:100E5000019943F60040C4F202000170006800F0FE
:100E600007000199884204D0FFE701208DF80F00A8
:100E700005E1FFE702980078800700282AD5FFE700
:100E8000029800784007002809D5FFE743F60801DB
:100E9000C4F20201086840F4E0500860FFE70298DD
:100EA00000780007002809D5FFE743F60801C4F2DF
:100EB0000201086840F460400860FFE743F608015B
:100EC000C4F20201086820F0F000029A9268104310
:100ED0000860FFE702980078C00700286ED0FFE79F
:100EE00002984068012811D1FFE743F60000C4F2E0
:100EF0000200006800F400310020B0EB514F04D133
:100F0000FFE701208DF80F00B9E02CE0029840685F
:100F1000022805D0FFE702984068032811D1FFE7B7
:100F200043F60000C4F20200006800F000710020E7
:100F3000B0EB516F04D1FFE701208DF80F009EE068
:100F400010E043F60000C4F20200006800F0020165
:100F50000020B0EB510F04D1FFE701208DF80F0006
:100F60008DE0FFE7FFE743F60801C4F202010868DD
:100F700020F00300029A526810430860FFF77CFDDE
:100F80000090FFE743F60800C4F20200006800F09A
:100F90000C0002994968B0EB810F0ED0FFE7FFF714
:100FA0006BFD0099401A41F28931884204D3FFE772
:100FB00003208DF80F0062E0E4E7FFE7019843F6B5
:100FC0000041C4F20201096801F00701884212D20F
:100FD000FFE7019943F60040C4F202000170006887
:100FE00000F007000199884204D0FFE701208DF846
:100FF0000F0044E0FFE702980078400700280CD576
:10100000FFE743F60801C4F20201086820F4E0504B
:10101000029AD26810430860FFE702980078000740
:1010200000280DD5FFE743F60801C4F20201086865
:1010300020F46040029A126940EAC2000860FFE7AB
:1010400000F022F843F60801C4F202010968C9B2AF
:101050000A0943F23211C0F60001895CC84040F22F
:101060000001C2F20001086040F20800C2F2000074
:101070000068FFF731FD00208DF80F00FFE79DF8B5
:101080000F0004B080BD000080B586B00020059040
:1010900004900390029043F60800C4F20200006836
:1010A00000F00C000146019140B1FFE701980428CF
:1010B0000AD0FFE7019808280CD04FE042F2004028
:1010C000C0F2F40002904FE047F64000C0F27D10FD
:1010D000029049E043F60400C4F20200016801F006
:1010E0003F01059100684002002813D5FFE743F651
:1010F0000400C4F202000068C0F3881047F6400103
:10110000C0F27D11A0FB0101059A0023FFF7F5F85D
:10111000049012E043F60400C4F202000068C0F339
:10112000881042F20041C0F2F401A0FB0101059ACF
:101130000023FFF7E2F80490FFE743F60400C4F24F
:101140000200006800F44031022000EBD13003902F
:1011500004980399B0FBF1F0029005E042F20040E0
:10116000C0F2F4000290FFE7029806B080BD0000D4
:1011700080B586B00490049820B9FFE701208DF86F
:10118000170050E304980078C007002800F0A580FD
:10119000FFE743F60800C4F20200006800F00C000C
:1011A000042813D0FFE743F60800C4F202000068E9
:1011B00000F00C0008281ED1FFE743F60400C4F23B
:1011C000020000684002002815D5FFE743F6000042
:1011D000C4F20200006800F400310020B0EB514F6F
:1011E00008D0FFE70498406820B9FFE701208DF898
:1011F000170018E370E0FFE704984068B0F5803FFF
:1012000009D1FFE743F60001C4F20201086840F487
:101210008030086020E004984068B0F5A02F0DD120
:10122000FFE743F60001C4F20201086840F48020A1
:101230000860086840F4803008600CE043F6000164
:10124000C4F20201086820F480300860086820F4C5
:1012500080200860FFE7FFE7FFE704984068E8B1F7
:10126000FFE7FFF709FC0390FFE743F60000C4F235
:101270000200006800F400310020B0EB514F0CD1A7
:10128000FFE7FFF7F9FB0399401A652804D3FFE74E
:1012900003208DF81700C6E2E7E71CE0FFF7ECFB40
:1012A0000390FFE743F60000C4F20200006800F478
:1012B00000310020B0EB514F0CD0FFE7FFF7DCFB13
:1012C0000399401A652804D3FFE703208DF817001F
:1012D000A9E2E7E7FFE7FFE7FFE704980078800768
:1012E000002840F19680FFE743F60800C4F20200B0
:1012F000006810F00C0F13D0FFE743F60800C4F2AB
:101300000200006800F00C0008282CD1FFE743F62B
:101310000400C4F2020000684002002823D4FFE762
:1013200043F60000C4F20200006800F00201002051
:10133000B0EB510F09D0FFE70498C068012804D032
:10134000FFE701208DF817006DE243F60001C4F2BB
:101350000201086820F0F800049A126940EAC2000D
:101360000860FFE754E00498C06870B3FFE700210D
:10137000C4F2472101200860FFF77EFB0390FFE7DE
:1013800043F60000C4F20200006800F002010020F1
:10139000B0EB510F0CD1FFE7FFF76EFB0399401A3A
:1013A000032804D3FFE703208DF817003BE2E7E7AB
:1013B00043F60001C4F20201086820F0F800049A24
:1013C000126940EAC200086021E00021C4F247210E
:1013D00000200860FFF750FB0390FFE743F6000092
:1013E000C4F20200006800F002010020B0EB510FCF
:1013F0000CD0FFE7FFF740FB0399401A032804D302
:10140000FFE703208DF817000DE2E7E7FFE7FFE7AE
:10141000FFE704980078000700284BD5FFE7049801
:10142000406918B3FFE740F68061C4F2472101200C
:101430000860FFF721FB0390FFE743F67400C4F256
:101440000200006800F002010020B0EB510F0CD147
:10145000FFE7FFF711FB0399401A032804D3FFE7C6
:1014600003208DF81700DEE1E7E722E040F6806117
:10147000C4F2472100200860FFF7FEFA0390FFE75F
:1014800043F67400C4F20200006800F0020100207C
:10149000B0EB510F0CD0FFE7FFF7EEFA0399401ABB
:1014A000032804D3FFE703208DF81700BBE1E7E72B
:1014B000FFE7FFE7049800784007002840F1CE805E
:1014C000FFE700208DF8070043F64000C4F2020059
:1014D0000068C000002815D4FFE7FFE70020009057
:1014E00043F64000C4F20200016841F080510160FF
:1014F000006800F0805000900098FFE701208DF810
:101500000700FFE747F20000C4F200000068C005D2
:10151000002822D4FFE747F20001C4F20001086866
:1015200040F480700860FFF7A7FA0390FFE747F2E6
:101530000000C4F200000068C00500280CD4FFE7DA
:10154000FFF79AFA0399401A032804D3FFE7032010
:101550008DF8170067E1EAE7FFE7FFE70498806886
:10156000012809D1FFE743F67001C4F202010868BF
:1015700040F0010008601FE00498806805280DD144
:10158000FFE743F67001C4F20201086840F004006E
:101590000860086840F0010008600CE043F6700144
:1015A000C4F20201086820F001000860086820F019
:1015B00004000860FFE7FFE7FFE704988068F8B1E0
:1015C000FFE7FFF759FA0390FFE743F67000C4F214
:1015D0000200006800F002010020B0EB510F0ED1B4
:1015E000FFE7FFF749FA0399401A41F2893188422F
:1015F00004D3FFE703208DF8170014E1E5E71EE0B0
:10160000FFF73AFA0390FFE743F67000C4F20200D6
:10161000006800F002010020B0EB510F0ED0FFE790
:10162000FFF72AFA0399401A41F28931884204D31C
:10163000FFE703208DF81700F5E0E5E7FFE79DF8E9
:101640000700012809D1FFE743F64001C4F2020177
:10165000086820F080500860FFE7FFE70498806981
:10166000002800F0DC80FFE743F60800C4F2020027
:10167000006800F00C00082800F08580FFE704985F
:10168000806902285CD1FFE76021C4F24721002075
:101690000860FFF7F1F90390FFE743F60000C4F29A
:1016A0000200006800F000710020B0EB516F0CD018
:1016B000FFE7FFF7E1F90399401A032804D3FFE796
:1016C00003208DF81700AEE0E7E70499C869D1F868
:1016D00020C04B6A8A6A40EA0C0040EA8310D203B9
:1016E0004FF6FF739A43A2F580321043C96A40EA6D
:1016F000016043F60401C4F2020108606021C4F2F3
:10170000472101200860FFF7B7F90390FFE743F690
:101710000000C4F20200006800F000710020B0EB8D
:10172000516F0CD1FFE7FFF7A7F90399401A03287F
:1017300004D3FFE703208DF8170074E0E7E721E00A
:101740006021C4F2472100200860FFF795F903905B
:10175000FFE743F60000C4F20200006800F00071E9
:101760000020B0EB516F0CD0FFE7FFF785F903992C
:10177000401A032804D3FFE703208DF8170052E036
:10178000E7E7FFE74AE004988069012804D1FFE712
:1017900001208DF8170046E043F60400C4F2020071
:1017A0000068029004988069012831D0FFE7029810
:1017B00000F480000499C969884229D1FFE70298A2
:1017C00000F03F000499096A884221D1FFE702989E
:1017D00047F6C07108400499496AB0EB811F17D1E0
:1017E000FFE7029800F440300499896AC9034FF674
:1017F000FF729143A1F58031884209D1FFE7029839
:1018000000F070600499C96AB0EB016F04D0FFE783
:1018100001208DF8170006E0FFE7FFE7FFE7002053
:101820008DF81700FFE79DF8170006B080BD000097
:1018300081B0009001B0704781B0009040F27C010F
:10184000C2F2000108880130088001B07047000032
:1018500080B582B0019043F61441C4F201014FF407
:101860000030086001980068806800F48051002012
:10187000B0EB113F19D0FFE701980068C06800F491
:1018800080710020B0EB112F0ED0FFE701980068A7
:10189000C06860F4C07020F4807001990968C86065
:1018A0000198FFF7C9FFFFE7FFE70198006880682C
:1018B00000F400510020B0EB513F19D0FFE7019830
:1018C0000068C06800F400710020B0EB512F0ED00A
:1018D000FFE701980068C06860F4207020F4007091
:1018E00001990968C8600198FFF7A2FFFFE7FFE7C9
:1018F00001990120487702B080BD000080B584B016
:1019000003900291019200200090039800684068C3
:101910004FF63F71C0F2FF0108400090BDF8020091
:101920000299C8700098C0F304200299487000988A
:1019300000F03F0002998870BDF80000400B02994A
:101940000870019898B9FFE70298C07801F0B2F8E2
:101950000299C8700298407801F0ACF8029948707A
:101960000298807801F0A6F802998870FFE70020BD
:1019700004B080BD80B584B0039002910192002034
:10198000009003980068806A029948600398006894
:1019900000696FF3DF30029988600398006800687F
:1019A00047F67F71C0F27F01084000900098C0F3B5
:1019B0000540029908700098C0F30620029948700B
:1019C000009800F07F00029988700098C0F3805062
:1019D0000299C870019898B9FFE70298007801F061
:1019E00069F8029908700298407801F063F802994A
:1019F00048700298807801F05DF802998870FFE7DE
:101A0000002004B080BD000080B584B002900120A9
:101A10008DF80700029820B9FFE701208DF80F002C
:101A200077E00298407F38B9FFE7029900200877F5
:101A3000029800F073F8FFE70299022048770298B5
:101A40000068C06800F010010020B0EB111F4FD1FA
:101A5000FFE7FFE702980168CA2048620298016820
:101A600053204862FFE7029801F058F88DF807000C
:101A70009DF8070020BBFFE70298016888684FF6D1
:101A8000BF72CFF68F7210408860029A116850685A
:101A900013695269184302438868104388600298AA
:101AA0000168C0680861029801688268086940EAB4
:101AB00002400861029801F073F88DF80700FFE713
:101AC0009DF8070068B9FFE702980168086C20F4E8
:101AD00080200864029801688269086C10430864D9
:101AE000FFE7FFE702980168FF204862FFE703E095
:101AF00000208DF80700FFE79DF8070020B9FFE7F9
:101B0000029901204877FFE79DF807008DF80F0044
:101B1000FFE79DF80F0004B080BD000080B586B0DF
:101B200005900020049003900290019005980068B1
:101B300042F60001C4F2000188421DD1FFE70220F5
:101B400001904FF48070049001A8FFF74FF818B18E
:101B5000FFE7FEF799FDFFE740F63C61C4F247213D
:101B6000012008602920009000221146FFF71CF890
:101B70000098FFF70FF8FFE706B080BD80B58AB088
:101B800008900791069240F20000C2F2000000683F
:101B9000400949F27531C0F21841A0FB011000095B
:101BA0004FF47A7148430590002004900390FFE7BA
:101BB0000898007F012804D1FFE702208DF8270054
:101BC00045E1089901200877FFE7FFE7089902201F
:101BD00048770698E0BBFFE70898006880684006F1
:101BE000002801D5FFE703E007990020C870FFE750
:101BF0000798C06908B9FFE700E0FFE70798007899
:101C000000F06EFF000400900798407800F068FF35
:101C10000146009840EA012001900798807800F082
:101C20005FFF0146019801440798C27890F82000B0
:101C300041EA8251029100F053FF0146029840EAC6
:101C40000160079A5169D26910430843049027E064
:101C50000898006880684006002801D5FFE703E087
:101C600007990020C870FFE70798C06908B9FFE727
:101C700000E0FFE70799087891F801C08B78CA78EF
:101C8000000440EA0C20184440EA825091F82020D9
:101C900040EA0260CA691043496908430490FFE7BB
:101CA00007994868896908430390FFE70898016825
:101CB000CA2048620898016853204862FFE70798E5
:101CC000406AB0F5807F46D1FFE7089801688868D0
:101CD00020F48070886008980068C06860F4C07064
:101CE00020F4807008990968C860FFE705980138FA
:101CF0000590059890B9FFE7FFE708980168FF2075
:101D00004862FFE7089903204877FFE70899002019
:101D10000877FFE703208DF8270098E0FFE7089891
:101D20000068C068C0070028E0D0FFE70498089961
:101D30000968C861039808990968486408980168A7
:101D4000886840F48070886008980168886840F46A
:101D50008050886059E008980168886820F4007015
:101D6000886008980068C06860F4207020F40070F3
:101D700008990968C86040F20000C2F200000068DB
:101D8000400949F27531C0F21841A0FB0110000969
:101D90004FF47A7148430590FFE7059801380590A4
:101DA000059890B9FFE7FFE708980168FF204862AF
:101DB000FFE7089903204877FFE708990020087794
:101DC000FFE703208DF8270041E0FFE7089800684F
:101DD000C06800F002010020B0EB510FDDD0FFE73A
:101DE0000498089909680862039808990968886442
:101DF00008980168886840F4007088600898016855
:101E0000886840F400508860FFE743F60041C4F260
:101E10000101086840F40030086043F60841C4F24C
:101E20000101086840F400300860FFE70898016885
:101E3000FF204862FFE7089901204877FFE70899EB
:101E400000200877FFE700208DF82700FFE79DF8C6
:101E500027000AB080BD000080B588B006900591CB
:101E6000049200200390FFE70698007F012804D128
:101E7000FFE702208DF81F007DE00699012008771A
:101E8000FFE7FFE7069902204877049868B9FFE763
:101E900005984078C006002807D5FFE705994878DF
:101EA00000F0EF000A304870FFE70498E0B9FFE760
:101EB0000598C07800F014FE000400900598407862
:101EC00000F00EFE0146009840EA012001900598BE
:101ED000807800F005FE01460198084405990978CC
:101EE00040EA413003900CE005980178437882780D
:101EF000C078000440EA0320104440EA41300390D7
:101F0000FFE7FFE706980168CA2048620698016863
:101F100053204862FFE7069800F000FE8DF80B00A2
:101F20009DF80B0078B9FFE703984FF63F71C0F2B8
:101F3000FF010840069909684860069800F030FEE5
:101F40008DF80B00FFE79DF80B0020B9FFE706991D
:101F500001204877FFE7FFE706980168FF20486205
:101F6000FFE7FFE7069900200877FFE79DF80B00E1
:101F70008DF81F00FFE79DF81F0008B080BD00002E
:101F800080B588B006900591049200200390FFE789
:101F90000698007F012804D1FFE702208DF81F007A
:101FA00095E0069901200877FFE7FFE706990220F0
:101FB0004877049840BBFFE70698006880684006B1
:101FC000002801D5FFE703E005990020C870FFE76E
:101FD0000598007800F084FD000400900598407892
:101FE00000F07EFD0146009840EA0120019005982E
:101FF000807800F075FD0146019808440599C9787C
:1020000040EA8150039018E0069800688068400616
:10201000002801D5FFE703E005990020C870FFE71D
:10202000059908784B788A78C978000440EA03203B
:10203000104440EA81500390FFE7FFE706980168EB
:10204000CA2048620698016853204862FFE7069854
:1020500000F064FD8DF80B009DF80B00F8B9FFE768
:10206000039847F67F71C0F27F010840069909681E
:10207000086006980168886820F4802088600599C7
:10208000C868096940EA0102069801688868104337
:102090008860069800F084FD8DF80B00FFE79DF83E
:1020A0000B0020B9FFE7069901204877FFE7FFE71B
:1020B00006980168FF204862FFE7FFE706990020C5
:1020C0000877FFE79DF80B008DF81F00FFE79DF8EC
:1020D0001F0008B080BD000080B584B002900020D1
:1020E00001900298016847F65F70C0F20100C86075
:1020F000FEF7C2FC0190FFE702980068C068800606
:1021000000280DD4FFE7FEF7B7FC0199401AB0F59F
:102110007A7F04D9FFE703208DF80F0004E0EBE796
:1021200000208DF80F00FFE79DF80F0004B080BD80
:1021300080B582B00190019800F058FD02B080BDDA
:1021400081B0009001B0704781B0009001B070473D
:1021500085B003900291FFE7039890F83C000128B6
:1021600004D1FFE702208DF813007EE003990120DF
:1021700081F83C00FFE7FFE70399022081F83D006A
:102180000398006840680190039800688068009098
:10219000019820F0700001900298016801980843AE
:1021A000019001980399096848600398006800212C
:1021B000C4F2010188423CD0FFE703980068B0F107
:1021C000804F36D0FFE70398006840F20041C4F228
:1021D000000188422DD0FFE70398006840F6000117
:1021E000C4F20001884224D0FFE70398006840F65B
:1021F0000041C4F2000188421BD0FFE70398006849
:1022000040F20041C4F20101884212D0FFE7039876
:10221000006844F20001C4F20101884209D0FFE7DE
:102220000398006841F60001C4F2000188420ED113
:10223000FFE7009820F08000009002984168009825
:10224000084300900098039909688860FFE70399A4
:10225000012081F83D00FFE70399002081F83C0050
:10226000FFE700208DF81300FFE79DF8130005B08D
:102270007047000080B582B00090009820B9FFE759
:1022800001208DF807003FE0009890F83D0040B92C
:10229000FFE70099002081F83C00009800F038F832
:1022A000FFE70099022081F83D00009951F8040BE6
:1022B00000F03CFD0099012081F84600FFE70099FD
:1022C000012081F83E00009981F83F00009981F8D3
:1022D0004000009981F84100FFE7FFE700990120E5
:1022E00081F84200009981F84300009981F8440088
:1022F000009981F84500FFE70099012081F83D0031
:1023000000208DF80700FFE79DF8070002B080BDB0
:1023100080B584B003900398006841F20001C4F2D4
:10232000000188421BD1FFE7FFE70020029043F63F
:102330004000C4F20200016841F010010160006831
:1023400000F0100002900298FFE736200190002272
:102350001146FEF729FC0198FEF71CFCFFE704B0CC
:1023600080BD000083B00190019890F83D000128E5
:1023700004D0FFE701208DF80B006AE001990220EC
:1023800081F83D0001980168C86840F00100C8600C
:10239000019800680021C4F2010188423CD0FFE7A7
:1023A00001980068B0F1804F36D0FFE701980068CF
:1023B00040F20041C4F2000188422DD0FFE70198AD
:1023C000006840F60001C4F20001884224D0FFE713
:1023D0000198006840F60041C4F2000188421BD019
:1023E000FFE70198006840F20041C4F20101884211
:1023F00012D0FFE70198006844F20001C4F2010125
:10240000884209D0FFE70198006841F60001C4F254
:102410000001884212D1FFE701980068806800F04F
:10242000070000900098062807D0FFE70198016890
:10243000086840F001000860FFE706E001980168C5
:10244000086840F001000860FFE700208DF80B00ED
:10245000FFE79DF80B0003B07047000081B00090CB
:1024600001B0704780B584B0039003980068C068DD
:10247000029003980068006901909DF804008007AD
:10248000002824D5FFE79DF80800800700281DD507
:10249000FFE7039801686FF00200086103990120CB
:1024A0000877039800688069800720B1FFE70398E8
:1024B000FFF7D4FF06E0039800F0E2F8039800F07D
:1024C000E3F8FFE7039900200877FFE7FFE79DF8AF
:1024D00004004007002825D5FFE79DF808004007C5
:1024E00000281ED5FFE7039801686FF0040008611B
:1024F00003990220087703980068806910F4407FF0
:1025000004D0FFE70398FFF7A9FF06E0039800F067
:10251000B7F8039800F0B8F8FFE7039900200877B0
:10252000FFE7FFE79DF804000007002824D5FFE738
:102530009DF80800000700281DD5FFE703980168F3
:102540006FF0080008610399042008770398006879
:10255000C069800720B1FFE70398FFF77FFF06E01F
:10256000039800F08DF8039800F08EF8FFE70399C8
:1025700000200877FFE7FFE79DF80400C006002869
:1025800025D5FFE79DF80800C00600281ED5FFE707
:10259000039801686FF0100008610399082008771C
:1025A00003980068C06910F4407F04D0FFE70398E7
:1025B000FFF754FF06E0039800F062F8039800F07C
:1025C00063F8FFE7039900200877FFE7FFE79DF82E
:1025D0000400C00778B1FFE79DF80800C00748B1C4
:1025E000FFE7039801686FF001000861039800F0AD
:1025F0004FF8FFE7FFE79DF804000006002810D51C
:10260000FFE79DF808000006002809D5FFE70398BA
:1026100001686FF0800008610398FFF791FDFFE704
:10262000FFE79DF804004006002810D5FFE79DF85D
:1026300008004006002809D5FFE7039801686FF0FD
:1026400040000861039800F0E3F8FFE7FFE79DF81A
:1026500004008006002810D5FFE79DF808008006DA
:10266000002809D5FFE7039801686FF02000086192
:102670000398FFF769FDFFE7FFE704B080BD0000A6
:1026800081B0009001B0704781B0009001B07047F8
:1026900080B588B007900798006841F20001C4F245
:1026A0000001884240F0AE80FFE740F2F400C2F241
:1026B0000000007808BBFFE79FED530A8DED050A87
:1026C000DFED520ACDED060A00F0C0FC9DED050AD3
:1026D000DDED060A40F28401C2F20001086000F05C
:1026E000B5FC40F28801C2F20001086040F2F4013A
:1026F000C2F2000101200870FFE740F28400C2F23C
:1027000000000068009041F20000C4F20200019055
:102710001021FEF799F901460098B1FA81F14909B3
:1027200000F0ACFC0146019840F27002C2F20002D7
:10273000116040F28801C2F200010968029108218B
:10274000FEF782F901460298B1FA81F1490900F0D9
:1027500095FC40F27401C2F20001086040F28C0066
:10276000C2F20000049040F22411C2F200010122E2
:102770000392FFF7FFF8039A049840F22011C2F287
:102780000001FFF7BBF840F28200C2F200000078BF
:10279000C0B1FFE740F27E00C2F20000007840F2D4
:1027A0007F01C2F20001097840F28002C2F2000209
:1027B000127800F025FC40F28201C2F200010020F4
:1027C0000870FFE740F28100C2F200000078C0B15B
:1027D000FFE740F27800C2F20000007840F2790191
:1027E000C2F20001097840F27A02C2F200021278C5
:1027F00000F0D6FB40F28101C2F200010020087017
:10280000FFE7FFE708B080BD0AD7233C0000C842BD
:1028100081B0009001B07047FFE7FEE780B58AB055
:10282000002009900890079006900590FFE700208F
:10283000049043F63000C4F20200016841F0100138
:102840000160006800F0100004900498FFE7FFE7C3
:102850000020039043F63000C4F20200016841F00A
:1028600004010160006800F0040003900398FFE792
:10287000FFE70020029043F63000C4F20200016836
:1028800041F080010160006800F080000290029831
:10289000FFE7FFE70020019043F63000C4F202009A
:1028A000016841F001010160006800F00100019041
:1028B0000198FFE71820059000200690012007905E
:1028C00041F20000C4F2020005A9FDF7E1FE0AB0E2
:1028D00080BD000080B594B000200290139012904B
:1028E000119010900F900E9004A82821FDF77DFD07
:1028F000029940F28C00C2F20000039042F60002FE
:10290000C4F20002026041607F228260FF22C26046
:10291000016141618161FFF777F818B1FFE7FDF7C9
:10292000B3FEFFE717208DF83C0010208DF83D0026
:1029300000208DF83E001290139040F28C00C2F2FD
:1029400000000FA90122FFF71BFB18B1FFE7FDF7FD
:102950009BFEFFE702208DF8380010208DF839002B
:1029600008208DF83A0024208DF83B0040F28C00BE
:10297000C2F200000EA90122FFF76EFA18B1FFE7BC
:10298000FDF782FEFFE7002001908DF810008DF822
:1029900011008DF812000590079008904FF000414B
:1029A00009910A900B9001228DF830204FF480702D
:1029B0000D9040F28C00C2F2000004A9FFF7DEF88F
:1029C00018B1FFE7FDF760FEFFE714B080BD00001F
:1029D00080B582B000210191009140F2AC00C2F2BA
:1029E000000041F20002C4F20002026041F26702FC
:1029F00042608160C722C2608161FFF73BFC18B171
:102A0000FFE7FDF741FEFFE700200090019040F254
:102A1000AC00C2F200006946FFF79AFB18B1FFE76D
:102A2000FDF732FEFFE702B080BD0000FFE7FEE7E2
:102A3000FFE7FEE788B0079006910592079800F03F
:102A4000070004900498C0F10700052803D3FFE7AE
:102A50000420019004E00498C0F107000190FFE712
:102A60000198039004980430062803D8FFE700205B
:102A7000009003E0049803380090FFE7009802906C
:102A800006980399012202FA01F101390840029BDC
:102A9000984005999A40013A1140084308B07047A0
:102AA0007047000080B540F28C00C2F20000FEF7D3
:102AB000CFFE80BD82B08DF80700002000909DF809
:102AC0000700000900EB80004000009000989DF88E
:102AD000071001F00F010844C0B202B070470000B7
:102AE00082B08DF8070000200090FFE79DF80700F6
:102AF0000A2809D3FFE70098013000909DF80700ED
:102B00000A388DF80700F1E7009800F00F019DF8F2
:102B1000070040EA011002B07047000080B584B0A1
:102B20000390002002908DF8070003980068C068A9
:102B3000400600282FD4FFE703980168C86840F0DA
:102B40008000C860FDF798FF0290FFE703980068D7
:102B5000C168002049060029009007D4FFE79DF8CE
:102B60000700013818BF01200090FFE70098C00758
:102B700080B1FFE7FDF780FF0299401AB0F57A7F38
:102B800007D9FFE703990420487701208DF8070053
:102B9000FFE7DBE7FFE79DF8070004B080BD00001A
:102BA00080B582B0019000208DF803000198016883
:102BB000C86820F08000C8600198006880688006BE
:102BC00000280DD4FFE70198FFF786FA38B1FFE738
:102BD00001990420487701208DF80300FFE7FFE703
:102BE0009DF8030002B080BD7047000080B582B040
:102BF000009000980138B0F1807F03D3FFE70120F7
:102C0000019019E0009801384EF21401CEF2000153
:102C100008604FF0FF300F2100F082F94EF21801EA
:102C2000CEF20001002008604EF21002CEF2000247
:102C3000072111600190FFE7019802B080BD0000FC
:102C400080B5FDF71FFF80BD80B594B008A8302186
:102C5000FDF7CBFB002007900690059004900390B1
:102C6000FFE70020029043F64000C4F20200016832
:102C700041F080510160006800F08050029002989D
:102C8000FFE7FFE70020019047F20000C4F20000D8
:102C9000016841F480410160006800F480400190C7
:102CA0000198FFE70620089001200A900B90102061
:102CB0000C9002200E9000210F9108211091A82164
:102CC000119112900420139008A8FEF751FA18B140
:102CD000FFE7FDF7D9FCFFE70F20039002200490E7
:102CE000002005904FF4A05006904FF480500790BC
:102CF00003A80521FEF796F818B1FFE7FDF7C4FC1D
:102D0000FFE714B080BD00004EF68851CEF20001FE
:102D1000086840F4700008607047000080B540F219
:102D2000AC00C2F20000FFF79DFB80BD83B00290B3
:102D3000019102980068009002980021C4F20101FC
:102D4000884225D0FFE70298B0F1804F20D0FFE7FE
:102D5000029840F20041C4F20001884218D0FFE717
:102D6000029840F60001C4F20001884210D0FFE74B
:102D7000029840F60041C4F20001884208D0FFE703
:102D8000029840F20041C4F2010188420AD1FFE7F3
:102D9000009820F070000090019841680098084366
:102DA0000090FFE702980021C4F20101884255D04B
:102DB000FFE70298B0F1804F50D0FFE7029840F251
:102DC0000041C4F20001884248D0FFE7029840F673
:102DD0000001C4F20001884240D0FFE7029840F6AB
:102DE0000041C4F20001884238D0FFE7029840F267
:102DF0000041C4F20101884230D0FFE7029844F25A
:102E00000001C4F20101884228D0FFE7029844F291
:102E10000041C4F20101884220D0FFE7029844F645
:102E20000001C4F20101884218D0FFE7029841F680
:102E30000001C4F20001884210D0FFE7029841F679
:102E40000041C4F20001884208D0FFE7029842F234
:102E50000001C4F2000188420AD1FFE7009820F483
:102E6000407000900198C168009808430090FFE707
:102E7000009820F08000019949690843009000986B
:102E800002990860019880680299C86201980068F8
:102E90000299886202980021C4F20101884208D098
:102EA000FFE7029840F20041C4F20101884205D1D7
:102EB000FFE70198006902990863FFE70299012082
:102EC000486102980069C00730B1FFE702990869BC
:102ED00020F001000861FFE703B07047FFE7FEE75D
:102EE00081B08DF803009DF9030000280ED4FFE7A0
:102EF0009DF9031001F01F02012090404A094EF293
:102F00000011CEF2000141F82200FFE701B0704746
:102F10004EF60C50CEF200000068C0F3022070475D
:102F200082B08DF8070000919DF9070000280AD4AF
:102F3000FFE7009800019DF907104EF20042CEF223
:102F4000000288540BE0009800019DF8071001F082
:102F50000F014EF61452CEF200028854FFE702B081
:102F60007047000083B00290029800F007000090C4
:102F70004EF60C51CEF200010868019001984FF610
:102F8000FF02104001900198009A40EA02200022BE
:102F9000C0F2FA52104301900198086003B07047E4
:102FA00080B582B08DF807008DF806108DF80520E9
:102FB0009DF8070040F2F801C2F2000108709DF888
:102FC000060048709DF80500887000204860C860C1
:102FD00008614FF000424A618861C861012281F8AE
:102FE00020204FF48070486240F28C00C2F2000052
:102FF000FEF7C4FD8DF804009DF8040002B080BD0A
:1030000080B582B08DF807008DF806108DF8052088
:103010009DF8070040F22411C2F2000108709DF8EB
:10302000060048709DF8050088700020C86008619F
:1030300040F28C00C2F200000122FEF7A1FF8DF8E1
:1030400004009DF8040002B080BD000080B584B08B
:103050008DED030ACDED020A0C20FDF71FF901905A
:103060009DED030A9DED021A20EE010A0198BCEEC7
:10307000C00A80ED000A019804B080BD82B00190C2
:103080008DF803109DF8030050B9FFE701984068E0
:1030900028B1FFE70199486801384860FFE70BE075
:1030A000019801684068884205D2FFE701994868A5
:1030B00001304860FFE7FFE70198406820B9FFE76B
:1030C0000199002088600DE00198016840688842FD
:1030D00007D3FFE7019901208860019908684860DB
:1030E000FFE7FFE70198806802B0704780B582B0C3
:1030F00000200190FDF7D4FCFFF7A6FDFFF78EFB43
:10310000FFF7E8FBFFF764FC40F2AC00C2F20000FE
:10311000FFF728F9FFE7FEE7F1EE100A4FF6FF711F
:10312000C0F2C03120EA010040F04070E1EE100A28
:1031300070470000000000000000010203040607C1
:10314000080900006831000800000020100000009D
:10315000EC01000878310008100000203007000062
:103160000C020008000000000024F4000100000030
:08317000100000000000000047
:040000050800018965
:00000001FF
