:020000040800F2
:1000000028070020550200080D1A0008951800085E
:10001000091A00084D040008BD1C0008000000007B
:10002000000000000000000000000000211A00088D
:100030005104000800000000111A0008251A0008E9
:100040006F0200086F0200086F0200086F020008CC
:100050006F0200086F0200086F0200086F020008BC
:100060006F0200086F0200086F0200086F020008AC
:100070006F0200086F0200086F0200086F0200089C
:100080006F0200086F0200086F0200086F0200088C
:100090006F0200086F0200086F0200086F0200087C
:1000A0006F0200086F0200086F0200086F0200086C
:1000B0006F0200086F0200086F0200086F0200085C
:1000C0006F0200086F0200086F0200086F0200084C
:1000D0006F0200086F0200086F0200086F0200083C
:1000E0006F020008151A00086F0200086F0200086E
:1000F0006F0200086F0200086F0200086F0200081C
:100100006F0200086F0200086F0200086F0200080B
:100110006F0200086F020008E91A00086F02000869
:100120006F0200086F0200086F0200086F020008EB
:100130006F0200086F0200086F0200086F020008DB
:100140006F0200086F0200086F0200086F020008CB
:100150006F0200086F0200086F0200086F020008BB
:100160006F0200086F0200086F0200086F020008AB
:100170006F0200086F0200086F0200080000000014
:100180006F0200086F02000800F002F800F052F859
:1001900014A696E8000CB244B344DA4501D100F04D
:1001A00049F8BAE80F000FA696E83000A5EB040561
:1001B00004EB0607AAEB0704A7F101074FEA1515A0
:1001C0004FEA3414A4F10104AC4201D300F032F838
:1001D00013F0010F18BFFB1A43F0010300F001F800
:1001E000DBE71847281B0000481B0000103A24BF1B
:1001F00078C878C1FAD8520724BF30C830C144BF8C
:1002000004680C6070470000704700000023002461
:1002100000250026103A28BF78C1FBD8520728BF16
:1002200030C148BF0B6070471FB501F05AFD1FBDBC
:1002300010B510BD00F0D0F81146FFF7F5FF01F042
:100240003FFD00F0EEF803B4FFF7F2FF03BC00F04F
:10025000F5F800000948804709480047FEE7FEE737
:10026000FEE7FEE7FEE7FEE7FEE7FEE7FEE7FEE766
:1002700004480549054A064B70470000D51A000896
:1002800089010008280100202807002028030020F9
:100290002803002053EA020C00F069802DE9F04B9E
:1002A0004FF00006002B1FBFB3FA83F503FA05F4E5
:1002B00024FA05F65E4012BF1643B2FA82F502FA3E
:1002C00005F4C5F120051EBF22FA05FC44EA0C0422
:1002D000203556EA044C4FEA144418BF641C4FF012
:1002E00000084FF00009904271EB030C39D300294C
:1002F00019BFB1FA81F701FA07F6B0FA80F700FAF0
:1003000007F6C7F120071EBF20FA07FC46EA0C06D5
:100310002037B6FBF4FCA7EB0507103F07F01F0BD7
:10032000CBF120062CFA06F60CFA0BFB44BFB346C1
:100330000026202FA4BF5E464FF0000B5BEA060CA0
:1003400008BF4FF0010B19EB0B0948EB0608ABFB9C
:10035000027C06FB02CC0BFB03CCC01B71EB0C0137
:10036000C1E70B46024641464846BDE8F08B13B54F
:10037000084318BF4FF0FF300146AFF30080BDE8DF
:100380001C4070474FF0000200B513469446964655
:10039000203922BFA0E80C50A0E80C50B1F1200198
:1003A000BFF4F7AF090728BFA0E80C5048BF0CC046
:1003B0005DF804EB890028BF40F8042B08BF7047A4
:1003C00048BF20F8022B11F0804F18BF00F8012B16
:1003D0007047704770477047754600F02BF8AE467F
:1003E00005006946534620F00700854618B020B541
:1003F000FFF73EFFBDE820404FF000064FF000073A
:100400004FF000084FF0000BAC46ACE8C009ACE878
:10041000C009ACE8C009ACE8C00921F007018D466D
:10042000704710B50446AFF300802046BDE8104089
:10043000FFF709BF0048704710000020014918204D
:10044000ABBEFEE72600020070470000FEE700009A
:100450007047000072B600BFFEE7000040F22010B7
:10046000C2F200000068704740F2000040F2201124
:10047000C2F20000C2F2000100780A68104408606D
:100480007047000080B543F60040C4F202000168E6
:1004900041F400710160016841F48061016001680C
:1004A00041F480710160032000F086F80F2000F015
:1004B00005F800F027F8002080BD000070B540F27C
:1004C0000006C2F2000640F208013278C2F20001D2
:1004D0004FF47A730968B3FBF2F20446B1FBF2F110
:1004E000084601F005F80F2C4FF0010508D838B97F
:1004F0004FF0FF3021460022002500F031F87460F3
:10050000284670BD82B0002043F640010190C4F23D
:1005100002014A6842F480424A604A6802F480421A
:100520000192019A0090086840F0805008600868C5
:1005300000F080500090009802B07047002848BF3B
:10054000704700F01F01012202FA01F11C2202EAA9
:10055000D0004EF20012CEF200028150704700002F
:1005600010B54EF60C5CCEF2000CDCF80030C3F394
:10057000022E8EF00704042C28BF0424BEF10303CE
:100580004FF0FF3E0EFA04F438BF0023A143994018
:100590000EFA03F39A43114300F00F0200F1604397
:1005A0000901043A03F564436244002848BF02F19C
:1005B0000C03197010BD00004EF60C51CEF2000174
:1005C0000A684FF6FF031A4060F30A2242F0806087
:1005D00040F0FD7008607047F0B581B004460068D7
:1005E00010F0050F2DD06827C4F2472743F6700698
:1005F0000020C4F202063860FFF730FF054600BF56
:1006000056F8700C000105D5FFF728FF401B0228A3
:10061000F6D93FE0D4E90101090741EA8010706191
:1006200001203860FFF71AFF054600BF56F8700C2E
:10063000000105D4FFF712FF401B0228F6D929E07C
:10064000206880074FF0000058D543F67006C4F2CA
:100650000206009056F8300C47F2000740F0805038
:1006600046F8300C56F8300CC4F2000700F0805009
:1006700000900098386840F480703860FFF7EEFE14
:10068000054600BF3868C00508D4FFF7E7FE401BE9
:100690000228F7D9032001B0F0BD00BF306810F484
:1006A000407013D0E16801F4407188420ED0306888
:1006B00040F64061C4F24721012220F440700A60F4
:1006C00000220A6030603068C00719D1E06856F82F
:1006D000681C4FF6FF4300F4407221F4F811C0F695
:1006E000FF730340B2F5407F08BF194346F8681C0A
:1006F00031686FF31F3008433060002001B0F0BD57
:10070000FFF7ACFE054641F2883700BF306880072E
:10071000DCD4FFF7A3FE401BB8424FF00300F5D92D
:10072000ECE70000002804BF012070472DE9F041EC
:1007300043F60808C4F202080446D8F8F8030D4648
:1007400000F00700884207D288F8F853D8F8F80379
:1007500000F00700A84277D12068810717D541072C
:1007600005D5D8F8001041F4E051C8F80010010791
:1007700005D5D8F8001041F46041C8F80010D8F849
:100780000010A26821F0F0011143C8F80010C00762
:1007900040D1D8F8F80300F00700A84207D988F83C
:1007A000F853D8F8F80300F00700A8424CD12068AD
:1007B000410707D5D8F80010E26821F4E051114351
:1007C000C8F80010000708D5D8F80000216920F407
:1007D000604040EAC100C8F8000000F055F8D8F8C1
:1007E000001041F6FC42C1F30311C0F60002515C57
:1007F00040F2080220FA01F140F20400C2F20000C7
:100800000068C2F200021160FFF758FE0020BDE848
:10081000F08100BF6068811E022907D258F8081CC9
:1008200089015CBF0120BDE8F08111E0012807D1FA
:1008300058F8081C89035CBF0120BDE8F08107E07F
:1008400058F8081C890703D40120BDE8F08100BFD7
:10085000D8F8001021F003010843C8F80000FFF7A2
:10086000FDFD064641F28837D8F80000616800F0C7
:100870000C00B0EB810F8CD0FFF7F0FD801BB8426D
:10088000F2D90320BDE8F08110B543F60404C4F2A8
:100890000204606800F00C0008280BD0042819BF7F
:1008A00042F20040C0F2F40047F64000C0F27D1072
:1008B00010BD00BF206821682368490247F6400147
:1008C000C0F27D1100F03F02C3F388105CBF42F21A
:1008D0000041C0F2F401A1FB00010023FFF7DAFCA4
:1008E00021680222C1F3014102EB4101B0FBF1F0AA
:1008F00010BD0000002804BF012070472DE9F04121
:1009000082B00446007843F60006C007C4F202062F
:100910000CD0B06800F00C00042840F081803068F2
:10092000800303D56068002800F068812078800784
:100930001BD5B06810F00C0F09D0B06800F00C00A7
:10094000082840F087807068400200F1838030689A
:10095000800703D5E068012840F0508130682169A4
:1009600020F0F80040EAC10030602078000713D47E
:10097000207840072AD4A569002D00F03A81B0689C
:1009800000F00C00082840F0A580012D40F00E81F9
:10099000012002B0BDE8F0816069002800F082808B
:1009A0000020C4F247200121C0F8801EFFF756FD49
:1009B000054600BF706F8007DAD4FFF74FFD401B7C
:1009C0000228F7D9032002B0BDE8F081306C5FEA5D
:1009D000C0080AD400200190306C40F08050306490
:1009E000306C00F080500190019847F20007C4F28B
:1009F00000073868C00547D4386840F48070386014
:100A0000FFF72CFD054600BF3868C0053CD4FFF752
:100A100025FD401B0228F7D9032002B0BDE8F08174
:100A2000B06800F00C00082803D1706840023FF560
:100A300076AF61683068B1F5803F07D0B1F5A02F7F
:100A400040F09A8040F480203060306840F480307C
:100A500030609AE0E068002840F20000C4F24720CD
:100A60005CD001210160FFF7F9FC05463068800782
:100A70003FF574AFFFF7F2FC401B0228F6D90320C4
:100A800002B0BDE8F08100BFA168306F012905D038
:100A9000052955D140F004003067306F40F0010067
:100AA000306756E00020C4F247200021C0F8801EC5
:100AB000FFF7D4FC054600BF706F80077FF558AF85
:100AC000FFF7CCFC401B0228F6D9032002B0BDE89A
:100AD000F08100BF0027C4F2472700203866FFF7E7
:100AE000BDFC022D05460DD13068800140F18A80A1
:100AF000FFF7B4FC401B02284FF00300F4D902B00A
:100B0000BDE8F0813068800173D5FFF7A7FC401B7A
:100B100002284FF00300F5D9F1E700BF0021016082
:100B2000FFF79CFC054600BF306880077FF51DAFCE
:100B3000FFF794FC401B02284FF00300F4D9DEE7D6
:100B400020F001003067306F002920F0040030678A
:100B50007AD0FFF783FC054641F28837306F800773
:100B600000F18480FFF77AFC401BB842F6D90320DD
:100B700002B0BDE8F08100BF20F480303060306802
:100B8000002920F4802030607AD0FFF767FC05460A
:100B9000306880033FF5CAAEFFF760FC401B642855
:100BA000F6D9032002B0BDE8F08100BF7068E169AA
:100BB00000F480028A4221D1216A00F03F028A4279
:100BC0001CD147F6C071626A0140B1EB821F15D19A
:100BD000A16A4FF6FF73C903994300F44032A1F5AF
:100BE00080318A420AD1E16A00F07060B0EB016F97
:100BF00004D1002002B0BDE8F08100BF012002B0A6
:100C0000BDE8F08104F11C052FCD084340EA8210B5
:100C1000D9034FF6FF729143A1F5803140EA056098
:100C20000843706001203866FFF718FC044600BFD7
:100C300030688001DDD4FFF711FC001B02284FF063
:100C40000300F5D95BE700BFFFF708FC054641F25A
:100C5000883700BF306F800708D5FFF7FFFB401BC8
:100C6000B8424FF00300F5D949E700BFB8F1000FD3
:100C70003FF581AE306C20F0805030647BE600BFE1
:100C8000FFF7ECFB054600BF306880037FF54EAEF2
:100C9000FFF7E4FB401B64284FF00300F4D92EE774
:100CA0007047000040F28C00C2F200000188013160
:100CB0000180704710B5044643F61440C4F20100A9
:100CC0004FF40031016020688168C90444BFC168E5
:100CD0005FEAC1510AD48168890444BFC1685FEAF0
:100CE00081510FD40120607710BD00BFC16861F44D
:100CF000C07121F48071C1602046FFF7D3FF2068E6
:100D0000E9E700BFC16861F4207121F40071C1609E
:100D10002046FFF7C5FF0120607710BD10B50068C1
:100D200040684FEA1043C0F3042E00F03F0CC0F3BC
:100D30004234CB7081F801E081F802C00C700AB136
:100D4000002010BDDCB2240904EB840403F00F037F
:100D500003EB4403020ACB704FEA1E1343EA8303FA
:100D600002F00F0202EB43024A704FEA1C1242EA01
:100D7000820200F00F0000EB42008870002010BDDE
:100D800010B50068836A4B6003696FF3DF338B60D3
:100D90000068C0F30543C0F3062E00F07F0CC0F3DB
:100DA00080540B7081F801E081F802C0CC700AB168
:100DB000002010BD020C1B0943EA830302F00F025E
:100DC00002EB4302040A0A704FEA1E1202EB82028F
:100DD00004F00F0303EB42024A704FEA1C1202EBCD
:100DE000820200F00F0000EB42008870002010BD6E
:100DF000002804BF01207047B0B50446407F20B9E9
:100E000000202077204600F071F8022060772168EA
:100E1000C868C0065ED4CA20486253204862C868C9
:100E2000400615D4C86840F08000C860FFF716FB84
:100E30002168CA6852060BD4054600BFFFF70EFBB7
:100E4000401BB0F57A7F49D82168C8684006F5D5BF
:100E500088684FF6BF72CFF68F7210408860D4E971
:100E6000010CD4E90335626928438D681043284397
:100E700088600B61086940EA0C400861C86820F08E
:100E80008000C860886880061AD447F65F70C0F298
:100E90000100C860FFF7E2FA054600BF2168C86894
:100EA00080060DD4FFF7DAFA401BB0F57A7FF5D94A
:100EB000042060772068FF2141620120B0BD00BF9F
:100EC000086C20F480200864A0690A6C1043086450
:100ED000FF204862012060770020B0BD04206077C9
:100EE0002068C168FF2141620120B0BD80B584B097
:100EF000006842F60002C4F2000200219042029112
:100F0000019101D004B080BD022000904FF48070A8
:100F100003906846FFF760FB002818BFFFF79AFAB6
:100F200040F63C60C4F247200121016029200021E5
:100F30000022FFF715FB2920FFF700FB04B080BD5E
:100F40002DE9F04781B040F20803C2F200031B68AC
:100F500044F6D356C1F26206A3FB0636F30A4FF4F9
:100F60007A7603FB06FACDF800A0037F012B4FF041
:100F7000020300F033814377D0F800C0DCF808307A
:100F800022B15A060AD40022CA7009E05A0619D4BE
:100F90004FF0000E81F803E017E000BFCA78920519
:100FA0004F780B788E783F0247EA03433344CF698A
:100FB0001A4391F820304E693A4342EA036242EA0A
:100FC000060E60E0CA784FEA825E0D784FF0CD08D9
:100FD000A5F10A03DFB207FB08F7FF0A07EB870456
:100FE0004A785FFA85F9A3EB44038E7803EB071385
:100FF000B9F1090F88BF03F110055FFA85F9A2F175
:101000000A05EFB207FB08F7D4B2FF0A07EB870324
:10101000092CA6F10A04A5EB4303E5B205FB08F58C
:101020004FEAD52503EB071305EB8507A4EB47042F
:1010300088BF03F11002F3B204EB0514092B88BF3B
:1010400004F1100691F82040F3B2A4F10A05EEB2C3
:10105000D2B206FB08F61202F60A42EA094206EB91
:1010600086071A44E3B2A5EB470505EB0615092BE5
:1010700088BF05F11004CB694D6943EA0E032B4389
:101080001A4342EA046E4B688A694C6ACA21CCF85A
:1010900024105321CCF82410DCF80810B4F5807F1C
:1010A0003CD121F48071CCF80810DCF80C1061F40C
:1010B000C07121F48071CCF80C10009901390091B5
:1010C0000099002900F08280DCF80C10C9071DD1BE
:1010D0000099013900910099002977D0DCF80C10B3
:1010E000C90713D1009901390091009900296DD0E9
:1010F000DCF80C10C90709D1009901390091009959
:10110000002963D0DCF80C10C907D6D04FF4805109
:101110004FF4807444251C2639E000BF21F400718F
:10112000CCF80810DCF80C1061F4207121F4007187
:10113000CCF80C10CDF800A000990139009100996D
:10114000002943D0DCF80C1089071AD40099013922
:1011500000910099D1B3DCF80C10890711D40099E3
:1011600001390091009989B3DCF80C10890708D483
:10117000009901390091009941B3DCF80C108907FE
:10118000DAD54FF400514FF40074482520261A4355
:101190004CF806E04CF80520DCF808200023224338
:1011A000CCF80820DCF808201143CCF8081043F6EE
:1011B0000041C4F201010A6842F400320A608A6800
:1011C00042F400328A60012102E000BF03210323C0
:1011D000FF22CCF82420417700210177184601B086
:1011E000BDE8F0872DE9F0410446007F01284FF06B
:1011F000020008BFBDE8F0810123237760773AB190
:101200004878CA788E78000240EA024846E000BF7B
:1012100048784FF0CD0CC20642BF00F0EF000A3014
:101220004870CA788E78A2F10A07FDB205FB0CF56A
:10123000ED0A05EB8503A7EB4303A0F10A0703EBD7
:101240000513FDB25FFA82FE05FB0CF5BEF1090F36
:1012500088BF03F11002ED0A5FFA82FE05EB8502FA
:10126000A7EB4202C3B202EB0512092B88BF02F1C1
:101270001000A6F10A02D3B203FB0CF3C0B2DB0AE2
:10128000000203EB830740EA0E48F0B2A2EB4702EC
:1012900002EB0312092888BF02F110060F782168BB
:1012A000CA20486253204862C868400614D4C868FF
:1012B00040F08000C860FFF7D1F82168CA68520684
:1012C0000AD40546FFF7CAF8401BB0F57A7F35D837
:1012D0002168C8684006F5D5F0B240EA08007A03F4
:1012E00020F0C00010434860C86820F08000C8604B
:1012F0008868800618D447F65F70C0F20100C860A5
:10130000FFF7ACF8054600BF2168C86880060BD41B
:10131000FFF7A4F8401BB0F57A7FF5D90420607779
:101320002168012003E000BF012060770020FF2238
:101330004A6200212177BDE8F08100BF0420607778
:101340002168C8680120F2E72DE9F0470446007FD4
:1013500001284FF0020008BFBDE8F0870D460121CB
:10136000217760772168886832B140060CD44FF04D
:10137000000885F803800AE0400611D44FF0000809
:1013800085F803800FE000BFE8784FEA80586A785C
:10139000287895F802A0120242EA004945E000BF11
:1013A000E8784FEA805828784FF0CD0EA0F10A0671
:1013B000F3B203FB0EF36A78DB0A03EB8307A6EBB9
:1013C0004706A2F10A0706EB0313FEB25FFA80FCA0
:1013D00006FB0EF695F802A0BCF1090F88BF03F1D9
:1013E0001000F60A5FFA80FC06EB8600D3B2A7EB8A
:1013F000400000EB0610092B88BF00F11002D0B2AC
:10140000AAF10A02D3B203FB0EF3DB0A000203EBDC
:10141000830740EA0C495FFA8AF0A2EB470202EB2D
:101420000312092888BF02F1100ACA20486253201B
:101430004862C868400615D4C86840F08000C8609B
:10144000FFF70CF82168CA6852060BD4064600BFA5
:10145000FFF704F8801BB0F57A7F43D82168C8688D
:101460004006F5D55FFA8AF040EA090047F67F7238
:1014700040EA0800C0F27F0210400860886820F44B
:1014800080208860D5E903028B6810431843886088
:10149000C86820F08000C8608868800618D447F6C5
:1014A0005F70C0F20100C860FEF7D8FF054600BFBC
:1014B0002168C86880060BD4FEF7D0FF401BB0F54A
:1014C0007A7FF5D9042060772168012003E000BF0E
:1014D000012060770020FF224A6200212177BDE8C9
:1014E000F08700BF042060772168C8680120F2E718
:1014F000411E0020B0EB116F1CBF012070474EF25F
:101500001002CEF2000251604EF62351CEF20001DD
:10151000F0230B7007219060116070477047000046
:101520007047000090F83C20012A4FF0020254D08E
:1015300010B580F83D200268D2F804E0D2F808C067
:101540000C682EF07003234341F2FF74C4F20004D0
:10155000A24253600EDC40F2FF73C4F200039A42D1
:1015600016DCB2F1804F2BD040F20043C4F20003EE
:1015700024E000BF40F2FF33C4F201039A4213DCBF
:1015800041F60003C4F200039A4219D0002313E08D
:1015900040F60003C4F200039A4211D040F6004323
:1015A000C4F200030AE000BF44F20003C4F20103E6
:1015B0009A4205D040F20043C4F201039A4204D19A
:1015C00049682CF08003194391600121002280F8C2
:1015D0003D1080F83C20BDE81040104670470000E8
:1015E000002804BF0120704710B5044690F83D0064
:1015F00028B9002084F83C00204600F01FF80220A3
:1016000084F83D002068211D00F0B6FA012084F81E
:10161000460084F83E0084F83F0084F8400084F8D7
:10162000410084F8420084F8430084F8440084F8C0
:10163000450084F83D00002010BD0000006841F224
:101640000001C4F20001884218BF704780B582B023
:101650000020019043F64000C4F20200016800221D
:1016600041F0100101600068002100F010000190BD
:1016700001983620FEF774FF362002B0BDE88040A6
:10168000FEF75CBF90F83D1001291CBF0120704798
:10169000022180F83D10006841F2FF72C168C4F277
:1016A0000002904241F00101C1600DDC40F2FF7187
:1016B000C4F20001884215DCB0F1804F2AD040F21C
:1016C0000041C4F2000123E040F2FF31C4F2010105
:1016D000884213DC41F60001C4F20001884219D0AF
:1016E000002113E040F60001C4F20001884211D04D
:1016F00040F60041C4F200010AE000BF44F20001DC
:10170000C4F20101884205D040F20041C4F2010157
:10171000884206D1816801F00701062904BF002034
:101720007047016841F0010101600020704700002E
:101730007047000070B504460068C5680669B107C7
:1017400016D515F0020113D06FF0020101610121DD
:1017500021778069800703D02046FFF7E9FF05E085
:10176000204600F08FF8204600F08EF80020207709
:10177000700719D515F0040016D020686FF0040129
:10178000016102212177806910F4407F04D0204656
:10179000FFF7CEFF06E000BF204600F073F82046BA
:1017A00000F072F800202077300717D515F00800F8
:1017B00014D020686FF00801016104212177C0690D
:1017C000800703D02046FFF7B3FF05E0204600F076
:1017D00059F8204600F058F800202077F00619D577
:1017E00015F0100016D020686FF01001016108217B
:1017F0002177C06910F4407F04D02046FFF798FF9E
:1018000006E000BF204600F03DF8204600F03CF81E
:1018100000202077F00718BF15F0010002D1300634
:1018200009D412E020686FF001010161204600F048
:101830002DF8300609D515F0800006D020686FF02D
:10184000800101612046FFF769FE700609D515F099
:10185000400006D020686FF040010161204600F092
:1018600017F8B00658BF70BD15F0200008D02168E9
:101870006FF0200220460A61BDE87040FFF750BEBD
:1018800070BD000070470000704700007047000006
:1018900070470000FEE7000083B0002043F63001EF
:1018A0000290C4F202010A6842F004020A600A6867
:1018B00002F004020292029A01900A6842F0800249
:1018C0000A600A6802F080020192019A009008689A
:1018D00040F001000860086800F0010000900098E6
:1018E00003B0704710B590B0002468462821CDE9B8
:1018F0000C44CDE90A44FEF745FD40F2900042F663
:101900000001C2F20000C4F200017F22C0E900140D
:1019100000F10801FF231CC1C0E90544FFF768FA84
:10192000002818BFFEF796FD41F21700ADF82C0015
:1019300040F29000C2F200000BA901228DF82E4067
:10194000CDE90E44FFF700FD002818BFFEF782FD29
:1019500041F20200C2F208400A9040F29000C2F246
:1019600000000AA901220124FFF73CFC002818BF4F
:10197000FEF770FD00204FF00041ADF800008DF83B
:1019800002000190CDE90300CDE9051007904FF466
:101990008070099040F29000C2F200006946012276
:1019A0008DF82040FFF7CCFA002818BFFEF752FD53
:1019B00010B010BD80B582B040F2B00041F200021C
:1019C0000021C2F20000C4F2000241F2670340F2BB
:1019D000CF7CCDE90011C0E90023C0E9021C816180
:1019E000FFF7FEFD002818BFFEF734FD40F2B000FF
:1019F000C2F200006946FFF795FD002818BFFEF708
:101A000029FD02B080BD0000FEE70000FEE70000F7
:101A10007047000040F29000C2F20000FFF74AB9A0
:101A200070470000FEF720BD70B592B006AC2046AE
:101A30003021FEF7A7FC002543F640000595CDE9CF
:101A40000355CDE901550095C4F202000168022654
:101A500041F080510160006800F0805000900098D3
:101A600047F200000095C4F20000016841F4804193
:101A70000160006800F48040009000980620069005
:101A80000120CDE9080010200A9008200E90A8201F
:101A9000CDE90F06042011902046CDE90C65FEF734
:101AA00029FF18B172B600BFFEE700BF0F20CDE9D5
:101AB00001064FF4A05004904FF48050059001A807
:101AC00005210395FEF72EFE10B172B6FEE700BFAA
:101AD00012B070BD4EF68850CEF20000016841F49D
:101AE000700101607047000070B540F2B000C2F2B2
:101AF0000000FFF71FFE40F2700540F29004C2F2B2
:101B00000005C2F2000405F1080120460122012669
:101B1000FFF736F9A91C20460122FFF7FFF82888B5
:101B200020B128880130288070BD00BF40F2F80144
:101B3000C2F2000141F217000880102088700020D6
:101B40004FF000424860C1E90300C1E90520C861C7
:101B50004FF48070486240F29000C2F2000001220F
:101B600081F82060FFF7ECF9002818BFFEF772FC3F
:101B700028880130288070BD10B540F6FF3E03680C
:101B8000C4F2000E40F2004C7045C4F2010C25DC9A
:101B9000B0F1804F2FD040F20042C4F200029042D8
:101BA00029D040F60002C4F20002904223D041F650
:101BB000FF72C4F20002904227DC70453ADCB0F1BB
:101BC000804F5BD040F20042C4F20002904255D0F8
:101BD00040F60002C4F200024EE000BF40F60042B0
:101BE000C4F20002904206D0604504D00022C4F244
:101BF00001029042DBD14A6823F07003134341F69F
:101C0000FF72C4F200029042D7DD43F6FF72C4F2C5
:101C10000102904220DC42F20002C4F20002904233
:101C20002CD00022C4F20102904227D0604525D07A
:101C300028E000BF40F60042C4F2000290421DD0EE
:101C400041F60002C4F20002904217D041F6004271
:101C5000C4F2000210E000BF44F20002C4F201022C
:101C600090420BD044F60002C4F20102904205D02B
:101C700044F20042C4F20102904203D1CA6823F444
:101C80004073134323F080024B69D1F800E08C6865
:101C90001A430260C46240F48062C0F828E06245E2
:101CA00004BF09690163012141610169C90708BFD6
:101CB00010BD016921F00101016110BDFEE70000C6
:101CC000FEF7E0FBFFF7B0FEFFF7E6FDFFF70AFEC9
:101CD000FFF770FE40F2B000C2F20000FFF7D2FC46
:101CE000FEE7F1EE100A4FF6FF71C0F2C03120EAB4
:101CF000010040F04070E1EE100A70470000000063
:101D0000000000000102030406070809301D000856
:101D10000000002010000000EC010008401D000839
:101D200010000020180700000C020008000000004E
:101D300001000000100000000024F400000000007A
:040000050800018965
:00000001FF
