:020000040800F2
:1000000000000220E11F00084D0500084F05000810
:1000100051050008530500085505000800000000C0
:10002000000000000000000000000000570500086C
:1000300059050008000000005B0500085D05000888
:10004000312000083120000831200008312000084C
:10005000312000083120000831200008312000083C
:10006000312000083120000831200008312000082C
:10007000312000083120000831200008312000081C
:10008000312000083120000831200008312000080C
:1000900031200008312000083120000831200008FC
:1000A00031200008312000083120000831200008EC
:1000B00031200008312000083120000831200008DC
:1000C00031200008312000083120000865050008B3
:1000D00031200008312000083120000831200008BC
:1000E00031200008312000083120000831200008AC
:1000F000312000083120000831200008312000089C
:10010000312000083120000831200008312000088B
:10011000312000083120000831200008312000087B
:100120003120000831200008312000087505000842
:10013000312000083120000831200008312000085B
:10014000312000083120000831200008312000084B
:10015000312000083120000831200008312000083B
:10016000312000083120000831200008312000082B
:100170003120000831200008312000080000000074
:080180003120000831200008C5
:1001880053B94AB9002908BF00281CBF4FF0FF31F6
:100198004FF0FF3000F00CB8ADF1080C6DE904CE5B
:1001A80001F070FFDDF804E0DDE9022304B07047D8
:1001B800704700BF10B5054C237833B9044B13B111
:1001C8000448AFF300800123237010BD20000020F5
:1001D800000000004823000808B5034B1BB1034981
:1001E8000348AFF3008008BD000000002400002091
:1001F8004823000800B583B000210191094B1A6B10
:1002080042F480021A631B6B03F480030193019B81
:100218000A463B2000F05CFD3B2000F069FD03B07E
:100228005DF804FB003802402DE9F0418AB0002453
:10023800059406940794089409940194254B1A6B25
:1002480042F080021A631A6B02F080020192019A4E
:1002580002941A6B42F001021A631A6B02F001024F
:100268000292029A03941A6B42F004021A631A6B00
:1002780002F004020392039A04941A6B42F00202F9
:100288001A631B6B03F002030493049BDFF84C8092
:1002980022463021404601F058F80F4E22460121EF
:1002A800304601F052F8302305930125069507944E
:1002B8000327089705A9404600F04AFF05950695CB
:1002C8000794089705A9304600F042FF0AB0BDE838
:1002D800F08100BF003802400004024000080240DC
:1002E80072B6FEE700B595B03022002108A801F0EB
:1002F8009CFE0023039304930593069307930193AD
:100308001F4A116C41F080511164126C02F0805246
:100318000192019A02931B4A116841F480411160CD
:10032800126802F480420292029A02220892012183
:100338000B9110210C910E920F9308231093A82370
:10034800119312920423139308A801F005F898B9A1
:100358000F23039302230493002305934FF4A05320
:1003680006934FF480530793052103A801F044FA3C
:1003780020B915B05DF804FBFFF7B2FFFFF7B0FF37
:10038800003802400070004080B586B000F00CFCD8
:10039800FFF7A8FFFFF748FFFFF72CFF00F034F83E
:1003A800002000F08EFB002000F090FB134D00278A
:1003B80004974FF4FC630393012602962C1D94E8DE
:1003C80003008DE803002B680D4A3421142000F047
:1003D80047FB04971F230393029694E803008DE8D4
:1003E80003002B68074A1E210F2000F039FB492023
:1003F80000F09AFB462000F097FBFEE70000002083
:10040800183E0008203E000808B50F480F4B03604F
:100418004FF4827343604FF4004383600023C3604A
:10042800036143614FF4802282611022C26103623A
:10043800436283620A23C36201F032FB00B908BD3C
:10044800FFF74EFFFBE700BF9C0000200030014093
:1004580030B589B00023039304930593069307935B
:100468000268264B9A4201D009B030BD04460025E7
:10047800019503F584335A6C42F480525A645A6CDD
:1004880002F480520192019A02951A6B42F001021D
:100498001A631B6B03F001030293029BB0230393BF
:1004A80002230493032306930523079303A91448FF
:1004B80000F04EFE1348144B03604FF0C0634360D6
:1004C80040238360C5604FF48063036145618561A3
:1004D800C5610562456200F09FFC58B9094BA364E9
:1004E8009C6300221146232000F0F2FB232000F039
:1004F800FFFBB9E7FFF7F4FEF0E700BF003001406B
:10050800000002403C0000205864024082B00021F4
:1005180000910B4B5A6C42F480425A645A6C02F4B4
:1005280080420092009A01911A6C42F080521A643B
:100538001B6C03F080530193019B02B0704700BF0E
:1005480000380240FEE7FEE7FEE7FEE7FEE77047F9
:100558007047704708B500F041FB08BD08B5024870
:1005680001F0A0FC08BD00BF9C00002008B50248AF
:1005780000F000FD08BD00BF3C000020034AD2F88F
:10058800883043F47003C2F88830704700ED00E00B
:1005980010B5094C00220121204600F0D6FE0520A6
:1005A80000F02EFB01221146204600F0CEFE052069
:1005B80000F026FB10BD00BF00040240F8B50E464F
:1005C80015461F46154C2468002CFBD002462021F6
:1005D800134800F0BAFE47B172193346934204D269
:1005E800186840BA43F8040BF8E7132D0CD80B4CE5
:1005F800002323604FF0FF332A463146094801F0B3
:10060800AEFA01232360F8BD044B00221A602A4683
:100618003146044801F086FBF5E700BF14000020CE
:10062800000802409C00002000B583B08DF8070048
:10063800002301220DF107011846FFF7BFFF03B0A1
:100648005DF804FB01B9704708B513468AB2014644
:100658000120FFF7B3FF08BD2DE9F843054615F85B
:10066800013B11E0661C002201212046FFF7EAFF4A
:100678000135EDB234464D45F4D312E00025FAE7D2
:1006880000F0BEFA3B4625465F1EFFB29BB12C46E2
:1006980014F8020BFFF7C8FF95F8018018F07F09DE
:1006A800ECD118F0800FEDD014F8010BFF28E7D13A
:1006B8004FF4FA70E4E7BDE8F88300002DE9F04153
:1006C80082B005460C4690461F462A20FFF7ACFF2D
:1006D80000268DF80460134B19780D448DF80550E9
:1006E8008DF8066041448DF80710324604210DEB61
:1006F8000100FFF7A7FF0C4B1A7814448DF805404A
:100708003A448DF807202B20FFF78EFF324604214C
:100718000DEB0100FFF796FF2C20FFF785FF02B0D5
:10072800BDE8F081F5100020F410002000B583B07A
:1007380000238DF80730032813D8DFE800F0021EE5
:100748002F3DC0238DF807308023244A1380244A84
:100758001380244B1A78244B1A70244B1A78244B94
:100768001A703620FFF760FF002201210DF1070003
:10077800FFF768FF03B05DF804FBA0238DF807308E
:100788008023174A1380154A1380164B1A78184B82
:100798001A70164B1A78144B1A70E2E780230F4A26
:1007A80013800F4A13800F4B1A780F4B1A700F4B98
:1007B8001A780F4B1A70D4E760238DF8073080231E
:1007C800074A1380054A1380064B1A78084B1A709B
:1007D800064B1A78044B1A70C3E700BFF8100020C4
:1007E800FA100020F7100020F5100020F610002065
:1007F800F410002010B50446FFF7CAFE0948FFF7B9
:100808002BFF0948FFF728FF0848FFF725FF084B8B
:1008180002221A70074B03221A702046FFF786FF40
:1008280010BD00BF443E0008403E0008383E0008A6
:10083800F7100020F6100020F8B5BDF818502F4C1E
:10084800B4F90060B04256DA2D4CB4F90040A14228
:1008580051DA002A4FD0002B4DD0024492B2013A0F
:1008680092B2964200DAB2B20B449BB2013B9BB201
:100878009C4200DAA3B22F0247EA35275D1A0135F8
:10088800141A013415FB04F5ADB21E4CD4F800C09F
:10089800B5F5806F03D26E080136002406E04FF4E8
:1008A8000076FAE74CF8047B0134A4B2B442F9D3D9
:1008B800AE0ADBB2D2B2C9B2C0B2FFF7FFFE002463
:1008C80008E000224FF400610E4B1868FFF7BAFEEB
:1008D8000134A4B2B442F4D3F1020A4C0022C1EBB1
:1008E80045012068FFF7AEFE2268074B9A4203D005
:1008F800054A044B1A60F8BD044AFAE7FA100020CA
:10090800F810002010000020F4080020F400002057
:1009180082B02DE9F04F85B00090019115460F93F4
:100928009DF848E0BDF84C60BDF85040494B186848
:10093800BDF840C05FFA8CF1BEF1020F1ED0BDF8C1
:1009480042209DF8449009FB02FB203D0F9B0BFBC6
:10095800053AB9F1020F14D0B9F1030F14D14FF4CD
:100968000005370247EA1627BFB2260246EA1426D0
:10097800B6B20024A0460292039131E04B00D9B2EE
:10098800DDE74FF40045ECE78025EAE71AF8083080
:100998000AEB0802517841EA032133E01AF80810FB
:1009A80030E0023420F8127006E0621C20F814606F
:1009B800BEF1020F0FD0144601339C450FD901FA3E
:1009C80003F22A42F1D0621C20F81470BEF1020F23
:1009D800E7D01446F0E7023420F81260ECE7C84488
:1009E800D84511D2B9F1020FD0D0B9F1030FD5D142
:1009F8001AF808200AEB08035978090241EA02416B
:100A08009B7819430023D8E7029A03999DF80000C0
:100A18009DF804604518EDB2B318DBB2013B6A1EBD
:100A2800DBB2D2B23146FFF749FE0A4D002261001F
:100A38002868FFF707FE2A68074B9A4207D0064A3C
:100A4800044B1A6005B0BDE8F04F02B07047034A86
:100A5800F6E700BF10000020F4080020F400002092
:100A680082B02DE9F04786B004460F4615460F932D
:100A78009DF84880BDF84C90BDF850A0BDF8406086
:100A8800B8F1010F15D97600B6B212E0CDF810A072
:100A9800CDF80C90CDF8088010AB93E803008DE8F2
:100AA80003000F9B39462046FFF732FF3444A4B2B7
:100AB80001352A78002AE9D106B0BDE8F04702B02E
:100AC800704708B5FFF796FE08BD000000B583B073
:100AD8000090054B1B88054A128800210846FFF73D
:100AE800ABFE03B05DF804FBF8100020FA100020FC
:100AF80000BF0268034B9A4200D07047024B0122A4
:100B08001A60FAE700300140140000200268044B24
:100B18009A4200D07047034B01221A60FAE700BFDF
:100B2800003001401400002008B5312809D04628BB
:100B380007D030280AD100221021074800F005FC10
:100B480004E001221021044800F0FFFB10210248B4
:100B580000F0F4FB08BD00BF0008024010B50446D1
:100B68000E4B1A784FF47A73B3FBF2F30C4A106801
:100B7800B0FBF3F000F0C0F868B90F2C01D90120E0
:100B88000AE0002221464FF0FF3000F0A1F8054BA3
:100B98001C60002000E0012010BD00BF18000020EC
:100BA8000C0000201C00002008B50B4B1A6842F40A
:100BB80000721A601A6842F480621A601A6842F475
:100BC80080721A60032000F071F80F20FFF7C6FF4B
:100BD800FFF79CFC002008BD003C0240034A116856
:100BE800034B1B780B441360704700BFFC100020B8
:100BF80018000020014B1868704700BFFC10002047
:100C080038B50446FFF7F6FF0546B4F1FF3F02D0BA
:100C1800044B1B781C44FFF7EDFF401BA042FAD39E
:100C280038BD00BF18000020002807DB00F01F02B5
:100C3800400901239340024A42F82030704700BF20
:100C480000E100E0002808DB0901C9B200F16040BA
:100C580000F5614080F80013704700F00F000901AB
:100C6800C9B2014B1954704714ED00E000B500F00B
:100C78000700C0F1070CBCF1040F28BF4FF0040CAB
:100C8800031D062B0FD9C31E4FF0FF3E0EFA0CF0C2
:100C980021EA000199400EFA03FE22EA0E0241EA17
:100CA80002005DF804FB0023EEE70000074AD36862
:100CB80023F4E0631B041B0C000200F4E060034310
:100CC80043F0BF6343F40033D360704700ED00E0A6
:100CD80010B50446054BD868C0F30220FFF7C6FFDD
:100CE80001462046FFF7AEFF10BD00BF00ED00E053
:100CF80008B5FFF799FF08BD0138B0F1807F0BD226
:100D08004FF0E0235861054AF02182F823100020B3
:100D1800986107221A6170470120704700ED00E0D2
:100D280030B405682C6824F480242C60046863605F
:100D38008368402B05D0036899600368DA6030BC8B
:100D4800704703689A600368D960F8E710B40368CD
:100D5800D9B210390A4AA2FB01421209094CA25C15
:100D6800C2655F2907D96FF3090304338365806D72
:100D78005DF8044B70476FF309038365F7E700BF1D
:100D8800ABAAAAAA7C3E0008836A826992B9012BA1
:100D98000AD0022B02D00BB100207047C36A13F0AF
:100DA800807F28D100207047C36AB3F1C07F24D068
:100DB80000207047B2F5005F09D0022B25D9032B1C
:100DC80025D1C36A13F0807F23D100207047032BFD
:100DD80003D8DFE803F01404140A00207047C36A3C
:100DE80013F0807F0DD100207047C36AB3F1C07F34
:100DF80009D000207047012070470120704701206A
:100E0800704701207047012070470120704700207B
:100E1800704701207047000070B50446FFF7EAFEEE
:100E2800002C5BD00546022384F83530002384F873
:100E380034302268136823F00103136023681A68AA
:100E480012F0010F0AD0FFF7D5FE431B052BF5D989
:100E580020236365032084F8350070BD1A68204993
:100E680011406268A0680243E068024320690243B7
:100E780060690243A0690243E0690243206A0243B1
:100E88000A43616A04291ED01A602668756925F02C
:100E98000705636A1D43042B07D1A36A1D43E36A50
:100EA8001BB12046FFF770FF90B975612046FFF728
:100EB8004DFFE26D3F23934083600020606501236E
:100EC80084F83530C9E7E16A206B01430A43DBE760
:100ED80040236365012084F83500BEE70120BCE7A4
:100EE8003F8010F038B50446856D90F8340001282D
:100EF8002BD0012084F8340094F83500C0B20128C2
:100F080004D0002384F83430022038BD022084F84D
:100F18003500002060652046FFF702FFE26D3F23A1
:100F28009340AB602268136843F016031360236C88
:100F380023B12268136843F008031360226813681A
:100F480043F0010313600020DFE70220DDE790F89B
:100F58003530DBB2022B03D0802343650120704774
:100F6800052380F835300268136823F00103136005
:100F780000207047F0B583B0044600230193724BFC
:100F88001D68724BA3FB0535AD0A876D3E68C26DBF
:100F980008239340334210D003681A6812F0040FF4
:100FA8000BD01A6822F004021A60C26D082393401D
:100FB800BB60436D43F001034365E26D0123934039
:100FC800334209D02268526912F0800F04D0BB6006
:100FD800636D43F002036365E26D0423934033427B
:100FE80009D02268126812F0020F04D0BB60636D4A
:100FF80043F004036365E26D10239340334224D029
:101008002268126812F0080F1FD0BB6023681A68A4
:1010180012F4802F0DD01B6813F4002F04D1236C19
:101028009BB12046984710E0A36C73B120469847BF
:101038000BE01A6812F4807F03D11A6822F00802C4
:101048001A60236C0BB120469847E26D2023934029
:10105800334255D02268126812F0100F50D0BB608E
:1010680094F83530DBB2052B0ED023681A6812F4D9
:10107800802F33D01B6813F4002F2AD1636C002B08
:101088003ED0204698473BE02268136823F01603B9
:1010980013602268536923F080035361236CA3B162
:1010A8002268136823F008031360E26D3F2393401E
:1010B800BB60012384F83530002384F83430236D75
:1010C800002B3FD0204698473CE0A36C002BE7D18B
:1010D800EBE7E36BA3B12046984711E01A6812F4D6
:1010E800807F09D11A6822F010021A60012384F85F
:1010F8003530002384F83430E36B0BB12046984731
:10110800636DFBB1636D13F0010F17D0052384F8ED
:1011180035302268136823F001031360019B013303
:101128000193AB4204D823681B6813F0010FF5D173
:10113800012384F83530002384F83430E36C0BB194
:101148002046984703B0F0BD0C000020B5814E1B27
:1011580000230F2B00F2E98070B582B065E0856846
:101168004FEA430E032404FA0EF425EA0405CC687A
:1011780004FA0EF42C438460446824EA02044A68A2
:10118800C2F300129A40224342605CE0DC08083453
:1011980050F8242003F00705AD004FF00F0E0EFAAB
:1011A80005FE22EA0E0E0A69AA4042EA0E0240F83B
:1011B80024205CE0072200E0002202FA0EF22A4313
:1011C80002345A4D45F82420594A94686FEA0C02B3
:1011D80024EA0C054E6816F4801F01D04CEA040579
:1011E800534CA560E46802EA04054E6816F4001F33
:1011F80001D04CEA04054E4CE560646802EA040537
:101208004E6816F4003F01D04CEA0405484C65606E
:10121800246822404D6815F4803F01D04CEA04024E
:10122800434C226001330F2B7DD801229A400C6871
:1012380004EA020C32EA0404F4D14C6804F0030412
:10124800013C012C8BD94A6802F00302032A09D019
:10125800C4685D000322AA4024EA02048A68AA40FE
:101268002243C2604A6802F00302022A8ED0046850
:101278004FEA430E032202FA0EF224EA02044A68F5
:1012880002F0030202FA0EF2224302604A6812F4E4
:10129800403FC7D000220192264A546C44F480444F
:1012A8005464526C02F480420192019A9C08A51C75
:1012B8001E4A52F8255003F0030E4FEA8E0E0F22F5
:1012C80002FA0EF225EA02051B4A90423FF474AF77
:1012D80002F5806290421AD002F58062904218D0DE
:1012E80002F58062904216D002F58062904214D0D6
:1012F80002F58062904212D002F58062904210D0CE
:1013080002F5806290423FF455AF082255E701226A
:1013180053E7022251E703224FE704224DE7052253
:101328004BE7062249E702B070BD7047003801401C
:10133800003C0140003802400000024003691942A5
:1013480001D001207047002070470AB181617047C1
:101358000904816170470000002800F0E08170B541
:1013680082B00446036813F0010F3BD09F4B9B6883
:1013780003F00C03042B2CD09C4B9B6803F00C034C
:10138800082B21D06368B3F5803F4FD0B3F5A02F69
:1013980052D0964B1A6822F480321A601A6822F4E6
:1013A80080221A606368002B50D0FFF723FC0546A3
:1013B8008E4B1B6813F4003F14D1FFF71BFC401B36
:1013C8006428F5D90320B1E1884B5B6813F4800FDA
:1013D800D8D0864B1B6813F4003F03D06368002BFA
:1013E80000F09F81236813F0020F54D07F4B9B6855
:1013F80013F00C0F3ED07D4B9B6803F00C03082BB9
:1014080033D0E368002B68D0794B01221A60FFF7CC
:10141800F1FB0546754B1B6813F0020F54D1FFF71B
:10142800E9FB401B0228F5D903207FE16F4A1368C6
:1014380043F480331360B5E76C4B1A6842F480229A
:101448001A601A6842F480321A60ABE7FFF7D2FBE1
:101458000546664B1B6813F4003FC3D0FFF7CAFB71
:10146800401B6428F5D9032060E1604B5B6813F4E6
:10147800800FC6D15D4B1B6813F0020F03D0E368E1
:10148800012B40F05081594A136823F0F803216971
:1014980043EAC1031360236813F0080F42D063695D
:1014A8006BB3534B0122C3F8802EFFF7A3FB05460D
:1014B8004E4B5B6F13F0020F34D1FFF79BFB401BC1
:1014C8000228F5D9032031E1484A136823F0F803CC
:1014D800216943EAC1031360DDE7454B00221A6026
:1014E800FFF788FB0546414B1B6813F0020FD2D06B
:1014F800FFF780FB401B0228F5D9032016E13C4B7F
:101508000022C3F8802EFFF775FB0546374B5B6F4B
:1015180013F0020F06D0FFF76DFB401B0228F5D928
:10152800032003E1236813F0040F77D02F4B1B6CC3
:1015380013F0805F33D1002301932C4B1A6C42F0D7
:1015480080521A641B6C03F080530193019B0125A0
:10155800284B1B6813F4807F23D0A368012B34D059
:10156800052B38D0214B1A6F22F001021A671A6F27
:1015780022F004021A67A368002B3DD0FFF73AFB5C
:1015880006461A4B1B6F13F0020F46D1FFF732FBCA
:10159800801B41F288339842F3D90320C6E0002526
:1015A800D6E7144A136843F480731360FFF722FBED
:1015B8000646104B1B6813F4807FCED1FFF71AFB49
:1015C800801B0228F5D90320B0E0084A136F43F0C6
:1015D80001031367CFE7054B1A6F42F004021A673D
:1015E8001A6F42F001021A67C5E700BF00380240CF
:1015F8000000474200700040FFF7FCFA0646524BD5
:101608001B6F13F0020F08D0FFF7F4FA801B41F2AA
:1016180088339842F3D9032088E0EDB9A369002BF9
:1016280000F08380484A926802F00C02082A51D0E0
:10163800022B17D0454B00221A66FFF7DBFA044647
:10164800414B1B6813F0007F42D0FFF7D3FA001B11
:101658000228F5D9032069E03B4A136C23F0805334
:101668001364DBE7394B00221A66FFF7C3FA054615
:10167800354B1B6813F0007F06D0FFF7BBFA401B01
:101688000228F5D9032051E0E369226A1343626A0C
:1016980043EA8213A26A5208013A43EA0243E26A21
:1016A80043EA0263284A5360284B01221A66FFF76F
:1016B800A1FA0446244B1B6813F0007F06D1FFF7FC
:1016C80099FA001B0228F5D903202FE000202DE00D
:1016D80000202BE0012B2BD01B4B5B6803F480010F
:1016E800E269914226D103F03F02216A8A4223D15E
:1016F800616A47F6C0721A40B2EB811F1ED103F42B
:101708004031A26A5208013AB1EB024F18D103F0F6
:101718007063E26AB3EB026F14D1002006E0012087
:101728007047012002E0012000E0002002B070BDF7
:101738000120FBE70120F9E70120F7E70120F5E7A1
:101748000120F3E70120F1E700380240000047429A
:1017580008B5264B9B6803F00C03042B41D0082BDB
:1017680041D1224B5A6802F03F025B6813F4800FA4
:1017780012D01E4B5968C1F388111D480023A1FBE4
:101788000001FEF7FDFC194B5B68C3F3014301330D
:101798005B00B0FBF3F008BD144B5868C0F3881029
:1017A8004FEA401CBCEB000C6EEB0E0E4FEA8E139A
:1017B80043EA9C634FEA8C11B1EB0C0163EB0E0317
:1017C800DB0043EA5173C90011EB000C43F100033D
:1017D800990200234FEA8C2041EA9C51FEF7D0FC85
:1017E800D1E70348D7E70348D5E700BF00380240F0
:1017F80040787D010024F400002800F09B8070B53B
:101808000D4604464F4B1B6803F007038B4208D272
:10181800CBB24C4A1370136803F007038B4240F0B5
:101828008B80236813F0020F17D013F0040F04D035
:10183800454A936843F4E0539360236813F0080F14
:1018480004D0414A936843F4604393603E4A9368E6
:1018580023F0F003A1680B439360236813F0010F92
:1018680032D06368012B21D09A1E012A25D9364A25
:10187800126812F0020F61D033498A6822F003021D
:1018880013438B60FFF7B6F906462F4B9B6803F0AE
:101898000C036268B3EB820F16D0FFF7ABF9801B1D
:1018A80041F288339842F0D9032042E0264A126870
:1018B80012F4003FE0D101203BE0234A126812F005
:1018C800007FD9D1012034E01E4B1B6803F00703C9
:1018D800AB4207D9EAB21B4B1A701B6803F0070327
:1018E800AB422DD1236813F0040F06D0164A936833
:1018F80023F4E053E1680B439360236813F0080F67
:1019080007D0114A936823F46043216943EAC1036D
:101918009360FFF71DFF0C4B9B68C3F303130B4A3F
:10192800D35CD8400A4B18600A4B1868FFF716F9C1
:10193800002070BD012070470120FAE70120F8E778
:101948000120F6E7003C024000380240283E00082B
:101958000C0000201C0000202DE9F04782B005464D
:10196800884617461E46FFF745F90A9B1B1A03EBE4
:101978000609FFF73FF98246284B1B68C3F3CB33B0
:1019880009FB03F301932B689C6838EA04040CBF35
:1019980001230023BB423DD0B6F1FF3FF3D0FFF750
:1019A80029F9A0EB0A00484507D2019A02B14A4634
:1019B800019B013B01939146E5E72A68536823F0B0
:1019C800E00353606B68B3F5827F0BD0AB6AB3F565
:1019D800005F14D0012385F85130002385F850307A
:1019E800032018E0AB68B3F5004F02D0B3F5806F61
:1019F800ECD12A68136823F040031360E6E72A68ED
:101A0800136823F4005313602A68136843F40053DF
:101A18001360DFE7002002B0BDE8F0870C0000206B
:101A280070B584B004460D46164600920B46012256
:101A38000221FFF791FFD0B9174B1B68174AA2FB89
:101A480003235B0D4FF47A7202FB03F3039363687D
:101A5800B3F5827F11D0039B3BB1039B013B0393FA
:101A680023689B6813F0800FF5D104B070BD636DD7
:101A780043F0200363650320F7E700962B46002216
:101A880080212046FFF768FF0028EED0636D43F001
:101A9800200363650320E8E70C000020819F5E16A1
:101AA80000285AD010B50446436A33B94368B3F5E1
:101AB800827F05D00023C36102E0002303614361F4
:101AC8000023A36294F85130002B40D0022384F8FD
:101AD80051302268136823F040031360636803F4ED
:101AE8008273A26802F404421343E26802F40062BB
:101AF8001343226902F002021343626902F00102F1
:101B08001343A26902F400721343E26902F0380237
:101B18001343226A02F080021343A26A02F40052BD
:101B2800216813430B60638B03F00403626A02F0BD
:101B38001002216813434B602268D36923F40063C1
:101B4800D36100206065012384F8513010BD84F80A
:101B580050302046FEF77CFCB8E7012070472DE99D
:101B6800F04383B00446894690461D46FFF742F885
:101B780094F85160F6B2012E40F0CC800746B9F1D6
:101B8800000F00F0C880B8F1000F00F0C48094F88E
:101B98005030012B00F0C380012384F85030032318
:101BA80084F8513000236365C4F83090A4F8348079
:101BB800A4F83680A363A387E38763642364A368D8
:101BC800B3F5004F1ED023681A6812F0400F03D1F6
:101BD8001A6842F040021A60E368B3F5006F1CD03F
:101BE800636813B1B8F1010F5FD1226B23681278D3
:101BF8001A73236B01332363E38E9BB2013B9BB2C1
:101C0800E38652E02268136823F0400313602268D9
:101C1800136843F480431360D5E7636813B1B8F1E0
:101C2800010F15D1226B23681288DA60236B023307
:101C38002363E38E9BB2013B9BB2E38608E0FEF789
:101C4800D9FFC01BA84202D3B5F1FF3F15D1A5B1FA
:101C5800E38E9BB2002B42D023689A6812F0020FE1
:101C6800EDD0226B1288DA60236B02332363E38E94
:101C78009BB2013B9BB2E386EAE7012384F851302B
:101C8800002384F85030032645E0226B12781A733B
:101C9800236B01332363B4F836C01FFA8CFC0CF1B4
:101CA800FF3C1FFA8CFCA4F836C0E38E9BB2B3B19C
:101CB80023689A6812F0020FE7D1FEF79BFFC01B5A
:101CC800A84202D3B5F1FF3F01D1002DEDD1012388
:101CD80084F85130002384F8503003261BE03A463C
:101CE80029462046FFF79CFE08B120236365A368B8
:101CF80033B901932368DA6801929B680193019BC9
:101D0800012384F85130002384F85030636D13B9EF
:101D1800002600E00226304603B0BDE8F083022624
:101D2800F9E7000038B590F85150EDB2012D5DD1BA
:101D3800044600295BD0002A59D090F85030012B76
:101D480057D0012380F85030032380F85130002306
:101D5800436501638286C286836343640364838721
:101D6800C3878368B3F5004F2DD0A36C224A1A6449
:101D7800A36C224ADA63A36C214ADA64A36C0022BA
:101D88001A652268E38E9BB20C32216BA06CFFF7B8
:101D9800A9F8014610BB23681A6812F0400F03D156
:101DA8001A6842F040021A60002384F85030226812
:101DB800536843F0200353602268536843F00203DA
:101DC80053600D4613E00268136823F04003136064
:101DD8000268136843F480431360C6E7636D43F0F9
:101DE80010036365002384F8503000E0022528467C
:101DF80038BD0225FBE700BF0F1E00083B1E000888
:101E0800191E0008704708B5806BFFF7FBFF08BD77
:101E180008B5806B0268536823F003035360436D71
:101E280043F010034365012380F85130FEF760FE4C
:101E380008BD30B583B00546846BFEF7DBFE2B6822
:101E48001B6813F4807F23D1024621684B6823F076
:101E580020034B6021684B6823F002034B60642128
:101E68002046FFF7DDFD18B1636D43F0200363657D
:101E7800A36833B901932368DA6801929B680193D8
:101E8800019B0023E386012384F85130636D23B955
:101E98002046FEF73BFE03B030BD2046FEF728FE85
:101EA800F9E7000030B585B00446026851689368C8
:101EB800C3F3801013F0400F05D113F0010F02D0C7
:101EC80011F0400F69D113F0020F02D011F0800F0A
:101ED80067D1C3F3401513F0200F03D110B913F4E1
:101EE800807F61D011F0200F5ED078B194F8510056
:101EF800C0B203285AD0606D40F00400606500202D
:101F08000090D068009090680090009865B1606D6E
:101F180040F001006065002002909068029010680F
:101F280020F040001060029A13F4807F09D0636D9E
:101F380043F0080363650023039323689B680393B6
:101F4800039B636D002B2FD02268536823F0E003B6
:101F58005360012384F8513011F0030F2ED022680A
:101F6800536823F003035360E36C4BB1154A1A65B9
:101F7800E06CFEF7ECFF18B1636D43F04003636556
:101F8800A36C8BB10F4A1A65A06CFEF7E0FF58B13D
:101F9800636D43F04003636506E0236C2046984771
:101FA80002E0636C2046984705B030BD00230193DA
:101FB800D368019393680193019BF5E72046FEF7E8
:101FC80097FDF1E7D11F000808B5806B0023C38790
:101FD800C386FEF78DFD08BDDFF834D0FEF7CEFAD4
:101FE8000C480D490D4A002302E0D458C45004336C
:101FF800C4188C42F9D30A4A0A4C002301E0136042
:102008000432A242FBD300F019F8FEF7BDF970477D
:10201800000002200000002020000020943E00085C
:102028002000002000110020FEE7024403469342EE
:1020380000D1704703F8011BF9E7000070B50D4D9A
:102048000D4C641BA4100026A64209D10B4D0C4C64
:1020580000F076F9641BA4100026A64205D170BDD5
:1020680055F8043B98470136EEE755F8043B984786
:102078000136F2E78C3E00088C3E00088C3E0008D2
:10208800903E00082DE9F047089D0E4604460F468D
:10209800002B4AD194468C45B2FA82F260D942B1FB
:1020A800C2F12003974020FA03F30CFA02FC1F4305
:1020B80094404FEA1C4E1FFA8CF6B7FBFEF1230C36
:1020C8000EFB117743EA074301FB06F098420AD951
:1020D8001CEB030301F1FF3780F01581984240F2B1
:1020E8001281023963441B1AA4B2B3FBFEF00EFB43
:1020F800103344EA034400FB06F6A6420AD91CEB57
:10210800040400F1FF3380F00081A64240F2FD8014
:102118006444023840EA0140A41B00211DB1D440A8
:102128000023C5E90043BDE8F0878B4205D90DB10E
:10213800C5E9000100210846F5E7B3FA83F1002953
:1021480046D1B34202D3824200F2F580841A66EB8C
:10215800030201201746002DE5D0C5E90047E2E754
:10216800002A40F09380A1EB0C034FEA1C471FFAAA
:102178008CFE0121B3FBF7F607FB1630230C43EA6C
:1021880000430EFB06F0984208D91CEB030306F146
:10219800FF3802D2984200F2D08046461B1AA4B2F9
:1021A800B3FBF7F007FB103344EA03440EFB00FED1
:1021B800A64508D91CEB040400F1FF3302D2A6455A
:1021C80000F2B6801846A4EB0E0440EA0640A5E7E4
:1021D800C1F120078B4022FA07FC4CEA030C06FAEF
:1021E80001FE20FA07F426FA07F344EA0E0400FA7F
:1021F80001F84FEA1C404FEA1449B3FBF0FE1FFAFE
:102208008CF600FB1E3349EA03430EFB06F9994599
:1022180002FA01F20BD91CEB03030EF1FF3A80F02E
:102228008580994540F28280AEF1020E6344A3EBAB
:102238000909A4B2B9FBF0F300FB139944EA094475
:1022480003FB06F6A64208D91CEB040403F1FF3091
:1022580068D2A64266D9023B644443EA0E40A41BF6
:10226800A0FB02E6B4427346B14652D34FD05DB1EB
:10227800B8EB030264EB090404FA07F722FA01F346
:102288001F43CC40C5E9007400214CE7C2F120018E
:1022980020FA01F30CFA02FC26FA01F196403343C6
:1022A8004FEA1C471FFA8CFEB1FBF7F007FB10162C
:1022B800190C41EA064100FB0EF68E4204FA02F4BC
:1022C80008D91CEB010100F1FF382DD28E422BD921
:1022D80002386144891B9BB2B1FBF7F607FB161164
:1022E80043EA014306FB0EF1994208D91CEB0303AC
:1022F80006F1FF3814D2994212D9023E63445B1AA0
:1023080046EA004136E73946EDE6184602E7F04569
:10231800ADD2BEEB020366EB0C060138B146A6E768
:102328004646ECE7034698E74046D3E7D6467EE7BD
:102338006444023847E708460DE7023E63442DE748
:10234800F8B500BFF8BC08BC9E467047F8B500BF9A
:08235800F8BC08BC9E4670476A
:10236000000000000000000000000000000000006D
:10237000000000000000000000000000000000005D
:10238000000000000000000000000000000000004D
:10239000000000000000000000000000000000003D
:1023A00000000000000000000000000000000380AA
:1023B000000380000380000380000380000380008E
:1023C0000380000380000380000100000100000082
:1023D00000000000000380000380000000000000F7
:1023E00000000000000000000000000000000000ED
:1023F0000000000000000000000E70000E70000ED3
:1024000070000420000420000420000420000000CC
:1024100000000000000000000000000000000000BC
:1024200000000000000000000000000000000000AC
:102430000000000000000000000000000000066036
:10244000000660000660000660000660003FF800BD
:102450003FF8000660000CC0003FF8003FF8000C99
:10246000C0000CC0000CC0000CC0000CC00000007C
:10247000000000000000000000000000000000005C
:1024800000000001800001800007B0000FF000187C
:1024900070001870001C00000F800007E00000F0C2
:1024A000001830001C30001C70001FE0001BC00032
:1024B0000180000180000180000180000000000018
:1024C0000000000000000000000000000000078085
:1024D000000FC0001CE0001860001860001CE00045
:1024E0000FF80007E0001FF000073800061800068C
:1024F000180007380003F00001E0000000000000B1
:1025000000000000000000000000000000000000CB
:1025100000000000000000000000000003F00007C1
:10252000F0000C60000C00000C000006000007002A
:10253000000F9C001DFC0018F0001870000FFC003C
:1025400007DC0000000000000000000000000000A8
:10255000000000000000000000000000000000007B
:1025600000038000038000038000010000010000E0
:102570000100000100000000000000000000000059
:10258000000000000000000000000000000000004B
:10259000000000000000000000000000000000003B
:1025A000000000000000001800003800007000006B
:1025B000F00000E00000E00001C00001C00001C028
:1025C0000001C00001C00001C00000E00000E00008
:1025D00000700000700000380000180000000000CB
:1025E00000000000000000000000000000001800D3
:1025F000001C00000E00000E000007000007000095
:102600000380000380000380000380000380000338
:1026100080000700000700000F00000E00001C00F3
:102620000018000000000000000000000000000092
:102630000000000000000180000180000180001DFA
:10264000B8001FF80007E00003C00003C0000660E8
:102650000006600000000000000000000000000014
:10266000000000000000000000000000000000006A
:10267000000000000000000000000000000000005A
:102680000000000001800001800001800001800046
:102690000180003FFC003FFC000180000180000140
:1026A00080000180000180000000000000000000A8
:1026B000000000000000000000000000000000001A
:1026C000000000000000000000000000000000000A
:1026D00000000000000000000000000000000000FA
:1026E0000000000000000000000000E00000C0004A
:1026F00001C0000180000180000300000300000011
:1027000000000000000000000000000000000000C9
:1027100000000000000000000000000000000000B9
:102720000000001FF8001FF800000000000000007B
:102730000000000000000000000000000000000099
:102740000000000000000000000000000000000089
:102750000000000000000000000000000000000079
:102760000000000000000000000000000000000069
:102770000000000000000000000003C00003C000D3
:1027800003C0000000000000000000000000000086
:1027900000000000000000000018000018000038D1
:1027A0000000300000700000600000600000C00009
:1027B00000C000018000018000030000030000064B
:1027C00000000600000E00000C00001C00001800B5
:1027D00000180000000000000000000000000000E1
:1027E00000000000000003C00007E0000C30000CF7
:1027F00030001818001818001818001818001818B9
:10280000001818001818000C30000C300007E00009
:1028100003C00000000000000000000000000000F5
:102820000000000000000000000000000000008028
:10283000000780001F80001D8000018000018000D3
:102840000180000180000180000180000180000102
:1028500080000180001FF8001FF800000000000049
:102860000000000000000000000000000000000068
:1028700000000000000007C0001FF00038300030EA
:10288000180030180000180000300000600001C07F
:10289000000380000600000C00001800003FF80054
:1028A0003FF80000000000000000000000000000F1
:1028B000000000000000000000000000000003C055
:1028C000000FE0000C7000003000003000006000DD
:1028D00003C00003E00000700000180000180000B2
:1028E00018001838001FF0000FC0000000000000A2
:1028F00000000000000000000000000000000000D8
:1029000000000000000000E00001E00001E0000322
:1029100060000660000660000C60000C600018603B
:10292000003060003FF8003FF80000600003F8004E
:1029300003F800000000000000000000000000009C
:1029400000000000000000000000000000001FF078
:10295000001FF0001800001800001800001BC00045
:102960001FF0001C300000180000180000180000C4
:1029700018003030003FF0000FC0000000000000E1
:102980000000000000000000000000000000000047
:1029900000000000000000F80003F8000700000E2F
:1029A00000000C00001800001BC0001FF0001C30CD
:1029B000001818001818001818000C38000FF00044
:1029C00003E0000000000000000000000000000024
:1029D00000000000000000000000000000001FF8E0
:1029E000001FF800181800183800003000003000F0
:1029F00000700000600000600000E00000C0000007
:102A0000C00001C000018000018000000000000043
:102A100000000000000000000000000000000000B6
:102A200000000000000007E0000FF0001C38001854
:102A300018001818000C300007E00007E0000C3008
:102A4000001818001818001818001C38000FF000A3
:102A500007E000000000000000000000000000008F
:102A6000000000000000000000000000000007C09F
:102A7000000FF0001C30001818001818001818007B
:102A80000C38000FF80003D80000180000300000D8
:102A9000700000E0001FC0001F00000000000000E8
:102AA0000000000000000000000000000000000026
:102AB0000000000000000000000000000000000016
:102AC000000003C00003C00003C0000000000000BD
:102AD0000000000000000000000003C00003C00070
:102AE00003C0000000000000000000000000000023
:102AF00000000000000000000000000000000000D6
:102B00000000000000000000000000F00000F000E5
:102B100000F00000000000000000000000000000C5
:102B2000E00001C0000180000180000300000200FD
:102B30000000000000000000000000000000000095
:102B4000000000000000000000000000001C000069
:102B50003C0000F00003C0000F00003C0000F0004B
:102B6000003C00000F000003C00000F000003C002B
:102B7000001C000000000000000000000000000039
:102B80000000000000000000000000000000000045
:102B9000000000000000000000000000007FFC00BA
:102BA0007FFC000000000000007FFC007FFC0000B4
:102BB0000000000000000000000000000000000015
:102BC0000000000000000000000000000000000005
:102BD000000000000000000000000000700000780D
:102BE00000001E000007800001E000007800001EC9
:102BF0000000780001E0000780001E00007800005F
:102C00007000000000000000000000000000000054
:102C100000000000000000000000000000000000B4
:102C20000007C0000FE000187000183000183000D6
:102C300000700000E00003C00003800003000000FB
:102C40000000000000070000070000000000000076
:102C50000000000000000000000000000000000074
:102C600000000000000003E00007F0000E38000C38
:102C7000180018780018F80019D800199800199849
:102C80000019980018F8001878001800000C0000CF
:102C90000E180007F80003E000000000000000002C
:102CA0000000000000000000000000000000000024
:102CB000001F80001FC00001C0000360000360000F
:102CC0000630000630000C30000FF8001FF8001826
:102CD0000C00300C00FC7F00FC7F000000000000B6
:102CE00000000000000000000000000000000000E4
:102CF0000000000000000000007FE0007FF00018EE
:102D000038001818001818001838001FF0001FF8B5
:102D100000181C00180C00180C00180C007FF8009C
:102D20007FF0000000000000000000000000000034
:102D30000000000000000000000000000000000093
:102D40000003EC000FFC001C1C00180C00300C00F1
:102D5000300000300000300000300000300000186B
:102D60000C001C1C000FF80003F000000000000025
:102D70000000000000000000000000000000000053
:102D80000000000000000000007FC0007FF000187D
:102D90003800181800180C00180C00180C00180C3B
:102DA00000180C00180C001818001838007FF000EC
:102DB0007FE00000000000000000000000000000B4
:102DC0000000000000000000000000000000000003
:102DD000007FF8007FF800181800181800199800F4
:102DE0001980001F80001F800019800019980018AA
:102DF00018001818007FF8007FF80000000000009D
:102E000000000000000000000000000000000000C2
:102E10000000000000000000003FFC003FFC000C30
:102E20000C000C0C000CCC000CC0000FC0000FC03C
:102E3000000CC0000CC0000C00000C00003FC000E3
:102E40003FC0000000000000000000000000000083
:102E50000000000000000000000000000000000072
:102E60000003EC000FFC001C1C00180C00300C00D0
:102E700030000030000030FE0030FE00300C003822
:102E80000C001C1C000FFC0003F000000000000000
:102E90000000000000000000000000000000000032
:102EA0000000000000000000007E7E007E7E001812
:102EB00018001818001818001818001FF8001FF83C
:102EC000001818001818001818001818007E7E0046
:102ED0007E7E0000000000000000000000000000F6
:102EE00000000000000000000000000000000000E2
:102EF000001FF8001FF80001800001800001800021
:102F0000018000018000018000018000018000013B
:102F100080000180001FF8001FF800000000000082
:102F200000000000000000000000000000000000A1
:102F300000000000000000000007FE0007FE000087
:102F40003000003000003000003000003000303031
:102F5000003030003030003030003060003FE000A2
:102F60000F800000000000000000000000000000D2
:102F70000000000000000000000000000000000051
:102F8000007F3E007F3E0018300018600018C0002F
:102F90001980001B80001FC0001CE0001870001882
:102FA00030001838007F1F007F1F00000000000065
:102FB0000000000000000000000000000000000011
:102FC0000000000000000000007F80007F80000CF7
:102FD00000000C00000C00000C00000C00000C00B5
:102FE000000C0C000C0C000C0C000C0C007FFC0006
:102FF0007FFC000000000000000000000000000056
:1030000000000000000000000000000000000000C0
:1030100000F00F00F81F00381C003C3C003C3C0056
:10302000366C00366C0033CC0033CC00318C003071
:103030000C00300C00FE7F00FE7F0000000000004E
:103040000000000000000000000000000000000080
:1030500000000000000000000078FE0078FE001C68
:1030600018001E18001F18001B18001B980019D804
:103070000018D80018F8001878001838007F1800D9
:103080007F180000000000000000000000000000A9
:103090000000000000000000000000000000000030
:1030A0000003C0000FF0001C3800181800381C0086
:1030B000300C00300C00300C00300C00381C0018B4
:1030C00018001C38000FF00003C0000000000000D2
:1030D00000000000000000000000000000000000F0
:1030E0000000000000000000003FF0003FF8000C6E
:1030F0001C000C0C000C0C000C0C000C18000FF841
:10310000000FE0000C00000C00000C00003FC000AD
:103110003FC00000000000000000000000000000B0
:10312000000000000000000000000000000000009F
:103130000003C0000FF0001C3800181800381C00F5
:10314000300C00300C00300C00300C00381C001823
:1031500018001C38000FF00007C00007CC000FFC5F
:10316000000C38000000000000000000000000001B
:103170000000000000000000007FE0007FF0001869
:1031800038001818001818001838001FF0001FC069
:103190000018E0001870001830001838007F1E007A
:1031A0007F0E000000000000000000000000000092
:1031B000000000000000000000000000000000000F
:1031C0000007D8000FF8001C380018180018180065
:1031D0001E00000FC00003F000007800181800184F
:1031E00018001C38001FF0001BE000000000000069
:1031F00000000000000000000000000000000000CF
:103200000000000000000000003FFC003FFC003117
:103210008C00318C00318C00318C000180000180E9
:10322000000180000180000180000180000FF0009B
:103230000FF000000000000000000000000000008F
:10324000000000000000000000000000000000007E
:10325000007E7E007E7E00181800181800181800E6
:103260001818001818001818001818001818001856
:1032700018000C30000FF00003C000000000000038
:10328000000000000000000000000000000000003E
:103290000000000000000000007F7F007F7F00181A
:1032A0000C000C18000C18000C180006300006303A
:1032B0000003600003600003600001C00001C00063
:1032C000008000000000000000000000000000007E
:1032D00000000000000000000000000000000000EE
:1032E00000FE3F80FE3F8030060030060030860042
:1032F00019CC0019CC001B6C001B6C001E7C000E4E
:1033000038000E38000C18000C18000000000000F7
:1033100000000000000000000000000000000000AD
:103320000000000000000000007E7E007E7E00188D
:1033300018000C300006600003C00001800001800E
:103340000003C0000660000C30001818007E7E00EC
:103350007E7E000000000000000000000000000071
:10336000000000000000000000000000000000005D
:10337000007C7E007C7E001818000C300006600087
:1033800006600003C0000180000180000180000190
:1033900080000180000FF0000FF00000000000002E
:1033A000000000000000000000000000000000001D
:1033B0000000000000000000001FF8001FF80018C7
:1033C000180018300018600018C0000180000300C9
:1033D000000618000C18001818003018003FF800FC
:1033E0003FF80000000000000000000000000000A6
:1033F000000000000000000000000000000001F0DC
:103400000001F000018000018000018000018000C7
:103410000180000180000180000180000180000126
:10342000800001800001800001800001800001F027
:103430000001F0000000000000000000000000009B
:103440001800001800001C00000C00000E00000610
:10345000000006000003000003000001800001805E
:103460000000C00000C000006000006000007000AC
:1034700000300000380000180000180000000000B4
:1034800000000000000000000000000000000F80AD
:10349000000F800001800001800001800001800099
:1034A0000180000180000180000180000180000196
:1034B00080000180000180000180000180000F80F9
:1034C000000F80000000000000000000000000006D
:1034D00000000000800001C00003E000077000064B
:1034E00030000C1800180C00100400000000000050
:1034F00000000000000000000000000000000000CC
:1035000000000000000000000000000000000000BB
:1035100000000000000000000000000000000000AB
:10352000000000000000000000000000000000009B
:10353000000000000000000000000000000000008B
:10354000000000000000000000000000000000007B
:1035500000000000000000000000FFFF00FFFF006F
:1035600000000003000003800000E0000060000095
:10357000000000000000000000000000000000004B
:10358000000000000000000000000000000000003B
:10359000000000000000000000000000000000002B
:1035A000000000000000000000000000000000001B
:1035B000000000000000000000000FC0001FE0003D
:1035C00000300000300007F0001FF00038300030FD
:1035D00030003070001FFC000FBC00000000000035
:1035E00000000000000000000000000000000000DB
:1035F00000000000000078000078000018000018AB
:1036000000001BE0001FF8001C1800180C00180C2C
:1036100000180C00180C00180C001C18007FF80093
:103620007BE000000000000000000000000000003F
:10363000000000000000000000000000000000008A
:103640000000000000000000000003EC000FFC0080
:103650001C1C00380C00300C00300000300000381A
:103660000C001C1C000FF80003F00000000000001C
:10367000000000000000000000000000000000004A
:103680000000000000000078000078000018000032
:10369000180007D8001FF80018380030180030183C
:1036A000003018003018003018001838001FFE00D5
:1036B00007DE000000000000000000000000000025
:1036C00000000000000000000000000000000000FA
:1036D0000000000000000000000007E0001FF800EC
:1036E000181800300C003FFC003FFC003000003098
:1036F0000000180C001FFC0007F000000000000094
:1037000000000000000000000000000000000000B9
:1037100000000000000001FC0003FC0006000006A1
:1037200000003FF8003FF800060000060000060019
:10373000000600000600000600000600003FF00042
:103740003FF000000000000000000000000000004A
:103750000000000000000000000000000000000069
:103760000000000000000000000007DE001FFE0057
:1037700018380030180030180030180030180030A9
:1037800018001838001FF80007D8000018000018AB
:10379000000038000FF0000FC00000000000000023
:1037A00000000000000078000078000018000018F9
:1037B00000001BE0001FF0001C380018180018184B
:1037C000001818001818001818001818007E7E003D
:1037D0007E7E0000000000000000000000000000ED
:1037E0000000000000000000000000000000018058
:1037F000000180000000000000001F80001F80000A
:103800000180000180000180000180000180000132
:1038100080000180003FFC003FFC00000000000031
:103820000000000000000000000000000000000098
:1038300000000000000000C00000C0000000000008
:1038400000001FF0001FF0000030000030000030CA
:103850000000300000300000300000300000300078
:103860000030000030000030000070001FE0001F3A
:1038700080000000000000000000000000003C008C
:10388000003C00000C00000C00000CF8000CF800DC
:103890000CC0000D80000F80000F00000F80000D95
:1038A000C0000CE0003C7C003C7C000000000000FC
:1038B0000000000000000000000000000000000008
:1038C0000000000000001F80001F80000180000138
:1038D00080000180000180000180000180000180E3
:1038E000000180000180000180000180003FFC0099
:1038F0003FFC00000000000000000000000000008D
:1039000000000000000000000000000000000000B7
:1039100000000000000000000000F77800FFFC003D
:1039200039CC00318C00318C00318C00318C00316D
:103930008C00318C00FDEF00FDEF00000000000066
:103940000000000000000000000000000000000077
:103950000000000000000000000000000000000067
:1039600000007BE0007FF0001C38001818001818D9
:10397000001818001818001818001818007E7E008B
:103980007E7E00000000000000000000000000003B
:103990000000000000000000000000000000000027
:1039A0000000000000000000000003C0000FF00055
:1039B0001C3800381C00300C00300C00300C003873
:1039C0001C001C38000FF00003C0000000000000C5
:1039D00000000000000000000000000000000000E7
:1039E00000000000000000000000000000000000D7
:1039F00000007BE0007FF8001C1800180C00180C79
:103A000000180C00180C00180C001C18001FF800FF
:103A10001BE0001800001800001800007F00007F65
:103A20000000000000000000000000000000000096
:103A30000000000000000000000007DE001FFE0084
:103A400018380030180030180030180030180030D6
:103A500018001838001FF80007D8000018000018D8
:103A60000000180000FE0000FE0000000000000042
:103A70000000000000000000000000000000000046
:103A800000003E78003EFC0007CC00070000060066
:103A9000000600000600000600000600003FF000DF
:103AA0003FF00000000000000000000000000000E7
:103AB0000000000000000000000000000000000006
:103AC0000000000000000000000007F8000FF800F0
:103AD0001818001818001F80000FF00000F80018D8
:103AE00018001838001FF0001FE000000000000060
:103AF00000000000000000000000000000000000C6
:103B00000000000000000C00000C00000C00000C85
:103B100000003FF0003FF0000C00000C00000C0023
:103B2000000C00000C00000C00000C1C0007FC0046
:103B300003F0000000000000000000000000000092
:103B40000000000000000000000000000000000075
:103B50000000000000000000000078780078780085
:103B6000181800181800181800181800181800184D
:103B700018001838000FFE0007DE000000000000EB
:103B80000000000000000000000000000000000035
:103B90000000000000000000000000000000000025
:103BA00000007C3E007C3E001818001818000C3005
:103BB000000C300006600006600007E00003C00053
:103BC00003C0000000000000000000000000000032
:103BD00000000000000000000000000000000000E5
:103BE00000000000000000000000783C00783C006D
:103BF0003118003398003398001AB0001EF0001EF0
:103C0000F0001C60000C60000C6000000000000070
:103C100000000000000000000000000000000000A4
:103C20000000000000000000000000000000000094
:103C300000003E7C003E7C000C300006600003C0AB
:103C40000001800003C0000660000C30003E7C00D4
:103C50003E7C0000000000000000000000000000AA
:103C60000000000000000000000000000000000054
:103C7000000000000000000000007E1F007E1F000A
:103C8000180C000C18000C18000630000630000359
:103C9000600003E00001C00000C00001800001805E
:103CA000000300003FC0003FC00000000000000013
:103CB0000000000000000000000000000000000004
:103CC00000001FF8001FF80018300018600000C046
:103CD000000180000300000618000C18001FF80007
:103CE0001FF80000000000000000000000000000BD
:103CF000000000000000000000000000000000E0E4
:103D00000001E000018000018000018000018000CE
:103D10000180000180000380000700000380000193
:103D2000800001800001800001800001800001E02E
:103D30000000E000000000000000000000000000A3
:103D400000000000000001800001800001800001EF
:103D5000800001800001800001800001800001805E
:103D600000018000018000018000018000018000CE
:103D7000018000018000018000018000000000003F
:103D8000000000000000000000000000000007002C
:103D90000007800001800001800001800001800098
:103DA00001800001800001C00000E00001C00001AE
:103DB00080000180000180000180000180000780F8
:103DC00000070000000000000000000000000000EC
:103DD00000000000000000000000000000000000E3
:103DE00000000000000000000E00001F18003BB89B
:103DF0000031F00000E000000000000000000000C2
:103E000000000000000000000000000000000000B2
:103E1000000000000000000031323A3035000000A0
:103E2000414C41524D210000000000000000000004
:103E300001020304060708090213800A29806400AE
:103E4000000000000F0180961180FFB103012C2DAE
:103E5000B203012C2DB306012C2D012C2DB401072A
:103E6000C003A20284C101C5C2020A00C3028A2A99
:103E7000C4028AEEC5010E20003A010500061016A4
:043E80000006101612
:083E840008E2FF7F01000000CD
:043E8C00E101000848
:043E9000BD01000868
:103E94006023000811001800030000000024F4004F
:103EA400F4080020010000000100000010000000E0
:0400000508001FE1EF
:00000001FF
